:020000022000DC
:1060000000000120396202009162020093620200E6
:10601000956202009762020099620200000000008F
:106020000000000000000000000000009B62020071
:106030009D620200000000009F620200A162020057
:1060400071860200A7620200A98A0200AB62020008
:10605000AD620200AF62020025890200CD8A020013
:10606000B5620200B7620200B9620200BB620200C0
:10607000BD620200BF620200C1620200C362020090
:10608000C562020065660200C9620200CB620200BE
:1060900001670200CF620200EDD10200D36202006C
:1060A000D5620200D7620200D9620200DB62020000
:1060B000DD620200DF620200A3620200A36202004E
:1060C000E1620200E3620200E5620200E7620200B0
:0C60D000E9620200EB620200ED620200D7
:1060DC00354936480A1A02D0072291438D46344975
:1060EC0034480A1A06D00722914381F30988022208
:1060FC0082F3148830483149314A00F044F8314871
:10610C003149324A00F03FF831483249324A00F006
:10611C003AF832483249334A00F035F832483349BC
:10612C00334A00F030F833483349344A00F02BF846
:10613C0033483449344A00F026F8344834490022B4
:10614C0000F02CF833483449002200F027F833488B
:10615C003349091A082902DB002202604160314AE6
:10616C0090471F481F49884205D00268043003B489
:10617C00904703BCF7E700208646EC460020002140
:10618C00294A9047FEE7884207D0521A05D0037877
:10619C0001300B700131013AF9D17047884202D0BD
:1061AC0002700130FAE770470000012000E0002087
:1061BC00000001200000012064D7020034220020DE
:1061CC0049220020F0620200F06202009CD502001D
:1061DC0064D70200342200203422002038D602007A
:1061EC0038D6020038D6020038D6020038D6020063
:1061FC0038D6020038D6020038D6020064D7020026
:10620C007CD702004C2200204C2200204C22002083
:10621C00742B0020742B0020742B0020742B002076
:10622C00744B00205D620200159602000F484FF07F
:10623C000701884385460E4880470E48016841F4A3
:10624C0070010160BFF34F8FBFF36F8FFFF740BF3B
:10625C0009480A490A4A884207D0521A05D00378DD
:10626C0001300B700131013AF9D170470000012067
:10627C005981020088ED00E024D602002022002083
:10628C0034220020FEE7FEE7FEE7FEE7FEE7FEE72E
:10629C00FEE7FEE7FEE7FEE7FEE7FEE7FEE7FEE7CA
:1062AC00FEE7FEE7FEE7FEE7FEE7FEE7FEE7FEE7BA
:1062BC00FEE7FEE7FEE7FEE7FEE7FEE7FEE7FEE7AA
:1062CC00FEE7FEE7FEE7FEE7FEE7FEE7FEE7FEE79A
:1062DC00FEE7FEE7FEE7FEE7FEE7FEE7FEE7FEE78A
:0462EC00FEE700BF0A
:1062F0002DE9F04F364E87B04FF00009354B1B7833
:106300005FFA89F5AB4202D807B0BDE8F08F324B97
:10631000D3F800A01AF835000124D6E9001EA0F138
:106320002002C0F1200304FA02F224FA03F313431B
:1063300004FA00FC059301EA0C030093059B0EEAA6
:1063400003030193DDE9002313430AEBC50B3BD0A4
:10635000059B21EA0C012EEA0303C6E9001302F0B3
:10636000D7FA01461AF835001C4DA0F12002C0F101
:10637000200304FA02F224FA03F31343D5E900C21E
:106380008440134004EA0C040393A0F12002C0F1FE
:10639000200321FA03F3029401FA02F848EA030801
:1063A000DDE9023401FA00F7444508BFBB420BD1D6
:1063B000DBF8043043B19BF80120541E6242624175
:1063C000551A69426941984709F1010996E700BFEA
:1063D000802200204C2200208822002078220020E9
:1063E000F8B506461E4800F073FBC0BB0125A6F1B8
:1063F0002004C6F1200325FA03F305FA04F41C4334
:10640000184BD3E900C2B5400CEA050002EA0401CA
:1064100001431F461DD1304602F07AFA124BD3E9F0
:10642000001288B129432243C3E90012D7E90023AF
:106430001C430E4B0A4819681543C7E90054002253
:10644000BDE8F84000F0FCBA21EA050122EA0402A6
:10645000EAE72CEA050522EA0404C3E90054F8BD82
:106460005422002080220020782200205022002088
:10647000042A2DE9F34105460C46164639D902F0A7
:1064800087F9D8B11C4B1D491D601D4BDFF8848076
:106490001C701C4B00221E600023C1E900231A4916
:1064A000C1E90023013CE4B200260327FF2C0CD1F4
:1064B000164A1748002100F0B1FA03E002F02EF965
:1064C0000028DFD002B0BDE8F08105EBC40315F869
:1064D00034009B788DF80660424601A98DF804705F
:1064E0008DF8053002F05EF9013CE4B20028DDD001
:1064F000E8E70720E6E700BF882200207822002096
:106500004C2200205022002080220020F162020054
:1065100038D60200E163020070B5084D084E002431
:106520002B789C4201D3002070BD3368012113F801
:10653000340002F0A9F90134F2E700BF4C22002038
:10654000882200201FB50021039001AA44F2010017
:10655000CDE9011100F004F805B05DF804FB00007E
:1065600072B6094B1B68DB0700D500BEBFF34F8F27
:106570000649074BCA6802F4E0621343CB60BFF3DD
:106580004F8F00BFFDE700BFF0ED00E000ED00E041
:106590000400FA05094A537891780133DBB2994235
:1065A00008BF0023117899421FBF03705078182349
:1065B00003FB002014BF0430002070478C22002011
:1065C00073B5054600240DF107000E468DF807400F
:1065D00000F08EFA0DF10600FFF7DCFF90B10670B7
:1065E000094B9DF8062045605A709DF8070000F0A1
:1065F000A3FA24B9054B4FF48012C3F800212046BA
:1066000002B070BD0424F0E78C22002000E100E01D
:10661000024B4FF43C6043F00103184740D60200A0
:1066200038B50C4B0C4C4FF40032C3F880200125D8
:106630004FF48033C4F84833C4F808336560FFF77B
:10664000E7FF064BA56000241C60FFF7E1FF044B49
:106650001C7038BD00E100E000100140A8230020BC
:1066600099230020F8B51F4B1F491B680025C1F86E
:106670004051C1F84451C1F84851C1F84C51C1F8DA
:106680000051C1F804514BB3D1F8044517490968CA
:10669000641A24F07F442F461A68A24209D8A41A2B
:1066A00015441A7CDE691AB1D3E905201F7490479E
:1066B000AEB90F4A0F4B11781B788B4205D10133CD
:1066C000DBB2022B08BF0023137012780A4B43F889
:1066D00022500A4B4FF48012C3F80021F8BD334614
:1066E000DAE700BFAC23002000100140A8230020FF
:1066F000A5230020A42300209C23002000E100E02B
:106700002DE9F04FA24AA34913780978A24D994286
:1067100085B03CD00133DBB2022B08BF00231370DD
:106720009E4912789E4B0F6853F822003B1823F0C5
:106730007F4300220B602B6816461446944613B91B
:1067400042B12B6006E0196881420ED902B12B607C
:10675000091A196001272B68DFF84CA201934FF04A
:106760000008BEB9DFF848B262E0401A0C44D968AC
:10677000D3F81CE0C3F800C031B13A1922F07F42CF
:10678000C3E90121DE611E4673460122D7E70026D8
:106790003746E0E73446F669804A63681268DFF8F6
:1067A00014C2A068991A21F07F41614500F2A880C7
:1067B00001442160012222742A680023C4E90133C4
:1067C000E361002A40F0A5802C60CAE79BF8021024
:1067D0005A1CD2B291428BF8002004BF00228BF8E1
:1067E0000020182202FB03B32A6819799C68022949
:1067F00077D0032900F08180012919D1207CB8B914
:10680000D3E90312A2605A69E2609A69654BA261FA
:106810001B78002B0CBF0B4603466360BCE78C4221
:1068200000F094808946C9690029F8D100232374B7
:106830009BF800309BF801209A42C7D12B68B8F131
:10684000000F04D1019A9A4201D1002F43D0002BAE
:1068500079D0D3F800A0544D504BD5F804751C687E
:10686000DFF854813E1B98F8003026F07F4603364F
:106870009BB94FF48033C5F84433C5F804334B4B10
:106880004FF400324FF00109C3F880211A60C5F8B7
:106890000090FFF7BDFE88F80090B2452CBF54442D
:1068A000A41924F07F44C5F84045D5F80435DB1B16
:1068B00023F07F43E41B033324F07F44A3420AD92F
:1068C000D5F80435C5F84035FFF7A2FE374B4FF435
:1068D0000032C3F80021334B00221A7005B0BDE826
:1068E000F08F114691469FE71174D2690123002A67
:1068F000FAD1002B9CD02A609AE700231946F6E7CC
:10690000D31A23F07F43834234BFC31A002323608A
:1069100050E721681368994213D8591A1160E2614F
:1069200052E7091AD8691A4638B1034618688842EE
:10693000F7D3401A1860184613462160E061DC6105
:106940000FE71346F2E7FFF76BFEC4E74C4511D1A2
:10695000D3692B6073B9DFF844E00120CDE902125E
:10696000CAF80800CEF800300E4B1870FFF750FE42
:10697000DDE902120B68C969C9F81C1011B1086879
:1069800003440B602B68934218BF4FF001084DE79A
:10699000A4230020A5230020AC230020A82300204E
:1069A0009C230020982300200010014000E100E01B
:1069B0008C220020FEFF7F009923002008B5FFF7FE
:1069C0002FFE104B00200B2218809A700E4B18607F
:1069D0000E4B18700E4B18700E4B4FF48012E021C6
:1069E000C3F8802183F814131A6002F18042A2F5E3
:1069F0006F22C2F8080583F81113074BD2F804255B
:106A00001A6008BD8C220020AC230020A4230020A3
:106A1000A523002000E100E0A8230020074B9B787D
:106A20004BB132B128B10368187C20B959745A614E
:106A30007047072070470820704700BF8C22002055
:106A40002DE9F743DFF8848098F8023005460E46BA
:106A50001746ABB3A0B3042930D9436983B3437C51
:106A60000024012B0DF107000CBF8946A1468DF8CB
:106A7000074000F03DF80DF10600FFF78BFDD8B19F
:106A8000012303700F4B4560D3F80435C0E9049728
:106A9000C0E902369DF8063088F801309DF80700FD
:106AA00000F04AF824B9084B4FF48012C3F80021D3
:106AB000204603B0BDE8F0830424EFE70724F7E79E
:106AC0000824F5E70010014000E100E08C220020DE
:106AD000064A92783AB130B1426922B1002202747A
:106AE0000221FFF76DBD0820704700BF8C220020F7
:106AF00070B5EFF3108672B60C4A946801239CB906
:106B000093600B4B0B4DD3F8801029401160C3F8F4
:106B10008050D3F8841051604FF0FF32C3F88420C6
:106B2000047006B962B670BD0370FAE7B0230020A6
:106B300000E100E0FC06FFBD084B9A6810B55AB1B1
:106B400050B9EFF3108172B6054A1C6814605C6896
:106B50005460986001B962B610BD00BFB023002038
:106B600000E100E070B5064D0646002455F8043BF0
:106B70000BB1304698470134042CF7D170BD00BFEB
:106B8000C8230020033080B240F2FD33984230B574
:106B90001FD8124B1A783AB91C895D892C440444D9
:106BA000A4B2B4F5806F0AD31A7DA2B99A8BDC8B9C
:106BB0002244024492B2B2F5806F0CD201220A80C4
:106BC0001446142202FB04335A89104458810020D1
:106BD00030BD0920FCE70720FAE700BFFC230020B6
:106BE0000B4A0C4B5188142000FB0131CB6833B9A0
:106BF0000420496810700122074801F04AB807498B
:106C00000523137002238B80012209680023F3E718
:106C1000E0230020FC23002020220020C4240020A8
:106C200007B5002305490093054A0968054808236C
:106C300001F001F803B05DF804FB00BFC42400209C
:106C400054D602002022002007B5002301460093FD
:106C5000034A0448082300F0EEFF03B05DF804FB8C
:106C60004CD602002022002013B500230C460093CE
:106C70000146084A0848042300F0DDFF38B90749F7
:106C8000142303FB04140123237402B010BD0E204F
:106C9000FBE700BF48D6020020220020FC23002092
:106CA00037B50A480A4B42689C88196853880325FF
:106CB000033305709BB2002000909B0001EB840120
:106CC000044800F0B8FF03B030BD00BFE02300204F
:106CD000C42400202022002010B50146044800F002
:106CE00085FE1C220446002106F0F5FB204610BD5F
:106CF000B024002068B10268084B9A4209D140686C
:106D0000074B984207D00133984214BF032001205B
:106D10007047032070470020704700BFDEC0ADDE23
:106D2000FE011EF14388033300EB8303994209D32C
:106D300082884FF6FF739A4206D00088B0FA80F03E
:106D40004009704702207047012070472DE9F0414B
:106D50000D460223154F2B80164600F5805100F199
:106D600008044FF001088C420ED2236801330BD087
:106D70002046FFF7D7FF48B10EB186F80080022801
:106D800009D14FF480632B80BDE8F081A3683A6895
:106D9000934200D93B602B886288033313442B80D5
:106DA0006388033304EB8304DDE700BFF423002092
:106DB00038B5144B14220D4602FB00302B68446892
:106DC00004F58051A3B15C88033403EB84048C4246
:106DD00015D22368013312D02046FFF7A3FF012804
:106DE00008D002280BD00028F1D12C60012038BD3A
:106DF0000834ECE76388033304EB8304E7E70020FF
:106E0000F5E700BFFC230020426873B504460D4639
:106E100062B3234BD9688A4228D31B699A4225D88A
:106E200012F0030322D11F490089098988421DD12C
:106E300020689168884219D11B494868824203D969
:106E400000F5805082420DD389698A420CD901F540
:106E500080518A4208D201222A80B3FA83F0400985
:106E600002B070BD1A46F7E70A23F6E700232B802D
:106E70001E460196288801A9FFF79AFF30B92B8892
:106E800001339BB2012B2B80F3D9E9E7019B2268E8
:106E900099689142EED16360024B1B892381DFE741
:106EA00020220020E0230020FC2300202DE9F843CD
:106EB0001C461C4B1B7806460F4615466BB372B337
:106EC0006CB3DFF868804FF01409A388012B01D957
:106ED0000A2020E009FB03F318F803302BB9A0883F
:106EE0002146FFF765FF20B92060A3880133A38006
:106EF000EBE723681EB1998832889142EFD11FB128
:106F000019883A889142EAD19A68C5E90023064B6C
:106F10001B892B810020BDE8F8830220FBE70520B8
:106F2000F9E700BFD8230020E0230020FC23002045
:106F300008B5074B5888191DFFF73AFF18B1BDE88F
:106F40000840FFF7ADBEBDE80840FFF749BE00BFEF
:106F5000E02300202DE9F04FA14FDFF8A89289B07F
:106F60000646B8463B6823B99E48494600F078FD7E
:106F70003860D8F8005029784B1E052B07D8DFE879
:106F800013F0210079007900090109015E010F2445
:106F90001422002103A806F09EFA41F61D539C42DC
:106FA00008BF0024D8F8003004941A78013A052A62
:106FB00000F2EF81DFE812F0DB01DF01FF010F02D9
:106FC0001B02250226B1884B00225A600124DFE70C
:106FD0002B79032B1DD8DFE803F015022A358349EE
:106FE0000B78022B084619D00B7D022B4FF00103C2
:106FF00016D114225343C2180020C8545068FFF71A
:1070000023FE03E001232B71FFF70AFE002800F0A6
:10701000BC80754B00225A600E24B9E70023E8E7D4
:10702000714A13700023536041F61D54B0E7704954
:107030007048002302222B718A800968012200F027
:1070400028FEE3E76A4C00262E712068674DFFF7A3
:10705000FBFD694BD4F800C05A8814235343EA1847
:10706000EE5451682160A188C2F804C01181022247
:10707000A280CBE7B5F814A0AA7DDFF870B1AEB15D
:10708000022AEB8806D9142101FB0AB1DA1C08890F
:1070900002440A81142202FB0ABAC3F57F43BAF8FC
:1070A0000A20FD331344AAF80A308FE7142303FBA8
:1070B0000AB318895C6804EB8004062A68D8DFE804
:1070C00002F0274D35431D59040041F61D54AA7D99
:1070D000EB88022A06D9142101FB0AB1DA1C0889BF
:1070E00002440A81142202FB0ABAC3F57F43BAF8AC
:1070F0000A20FD331344AAF80A3049E73F484049C3
:1071000000234360AB690360FFF77EFE002859D07F
:107110000223AB75002300930423EA182146354867
:1071200000F089FD002830D00E24D0E72B69002B19
:1071300014BF03230123AB750023009305F10C0258
:10714000042304F10801EAE70123AB750022EB8870
:1071500000922A699B0004F10C01E0E703290CBFAF
:1071600005230623AB7500230093042305F10802D1
:10717000E118D4E70623AB75214B19881F4B5868DB
:10718000FFF772FD04460028A1D109B0BDE8F08FD9
:107190000F249CE7002E7FF419AF2B79012B33D0FD
:1071A000022B3FF441AF002B7FF4F1AE02232B7191
:1071B0000DF10A01EB68039303A8CDE90466FFF71C
:1071C00023FE08B90A24E3E60498BDF80A10838870
:1071D000EB8003882B81FFF747FD044625E000BFC5
:1071E000F8230020B0240020D8230020FC23002016
:1071F000C424002020220020E0230020BC23002003
:10720000D0240020F02300207F4B03AA3146A81D84
:10721000FFF74CFE7C4B044658B999880498FFF759
:1072200023FD04460A2C3FF4FFAE002C7FF4B0AEE1
:10723000ABE708223146184606F04DF9F2E7002E7A
:107240007FF4C4AE714B1A7BB2B11E731A78013A47
:10725000062A3FF69CAE01A151F822F0037302000A
:1072600029730200477302004D7302008F6F020002
:1072700053730200657302001A78072AE6D801A149
:1072800051F822F0A57202004D7202004D72020008
:10729000CB720200DF720200FF720200FF72020076
:1072A000C77202001A895A4901321A8100225A8093
:1072B0001A730A78B2FA82F252099A720A7DB2FA05
:1072C00082F25209DA72012207E0524958688A882C
:1072D0004088033202448A8002221A70B6E74C4C7E
:1072E0005A884C49142505FB0242086854685060CE
:1072F0008888108102228A800C600622EDE707222E
:10730000EBE79A7A32B9DA7A8AB900221A705A808F
:107310005A6089E63E4900229A72CA68002AF2D170
:10732000097C0029EFD05A80FFF702FE55E70022C2
:10733000DA72374A116A0029E7D192F82420002A2C
:10734000E3D00122EFE7FFF7ABFC46E7FFF748FC8D
:1073500043E72F4A5B88142101FB03235868FFF79A
:1073600073FC3AE700225A60FFF75AFC35E7002326
:107370008DF80C300DE001228DF80C201A89ADF843
:1073800018209A88DB680593ADF81A2000238DF841
:107390001C3003A8FFF7E6FB002649461E48C8F844
:1073A000006000F088FB1D48012100F027FC002848
:1073B0007FF4D8ADE9E602228DF80C201A89ADF8E9
:1073C00018209A88ADF81A20DA689B7D05929A1FDA
:1073D00053425341DBE703228DF80C20DA88ADF8E5
:1073E00018201A89DB68ADF81A200593D1E704222A
:1073F0008DF80C20DB88ADF818300023ADF81A307A
:10740000F3E70523B4E700BFD4240020E0230020E5
:10741000FC230020C4240020B0240020C02400202D
:107420004068FFF797BD000008B50548012100F04E
:10743000CDFB18B9BDE80840FFF78CBD08BD00BF03
:10744000C02400202DE9F3419846354B1B780646B1
:107450000D46002B5BD000295BD009884FF6FF73E7
:10746000994258D06B88002B55D06B689B0754D13C
:107470004AB92F890DF102013846FFF783FB30B17D
:1074800002B0BDE8F08113885788ADF8023001A83A
:10749000FFF722FC044658B9BDF80230214A1421F6
:1074A00001FB032358890338C01B58810820E7E7F4
:1074B00080F8008000238375BDF8023083826B68FA
:1074C00003610121184800F08DFB2B882381B8F15E
:1074D000030F6B88A38004BF0423A3754FF000053E
:1074E00008BF3368E06008BFA3611048E78065818A
:1074F00001A900F0A5FA36B1E36833600C4B756062
:107500001B89B5723381FFF78FFF0020B8E7022097
:10751000B6E70520B4E70420B2E70320B0E700BFD8
:10752000D8230020FC230020F4230020B0240020D6
:10753000E023002008B5034607480268042A08D063
:107540000168064A42F82130012100F04BFB00207F
:1075500008BD0C20FCE700BFCC240020C82300207D
:107560002DE9F04F14228BB000210DEB020005F045
:10757000B2FF724A137803F0FF01CDE901123BB16B
:1075800005A8FFF7EFFA002630460BB0BDE8F08FF4
:10759000029B181D00F03EFB0028F4D14FF0102391
:1075A0004FF080525B6911695269654C581C08BFE5
:1075B00002FB01F323616349A3F5405300222046F7
:1075C000E36000F02AFB039406460028DCD15E4904
:1075D0005E48DFF88491DFF884811C238C2200F060
:1075E000D0F9B24635464FF0030B3446039BDF68B3
:1075F000574438463946FFF77DFB01284AD0032817
:1076000015D0002835D11421614308EB010208F898
:107610000100576001F110020831424441443846EC
:10762000FFF794FB45F002050134A4B221E007F511
:1076300080520868013074D104319142F9D1D9F8EF
:1076400000203AB902220123C9F80070A9F80420E9
:1076500001930CE014226243022008EB020108F8B7
:1076600002003B4A4F60548001340881A4B245F0C7
:1076700001050AF5805ABAF5405FB7D1BBF1010F99
:1076800098BF0025EDB2022D02D0062D20D045BBBB
:107690000B2679E7019B63B11422624308EB0201D8
:1076A000022008F802000134D9F800204A6008815D
:1076B000A4B200222749C9F800703846FFF746FBFC
:1076C000B9F80420022A0CBF042208221543D0E78F
:1076D000029A0123137005A800235360FFF742FAB2
:1076E00052E704A8FFF7F8FAC8B10123013D03707F
:1076F0000A2D09D8DFE805F006080608070807087C
:107700000F110F000023037104A9104800F098F92D
:10771000FFF78AFE38E70323F5E70223F3E708269D
:1077200032E70BF1FF321FFA82FB1422624308EBAF
:1077300002014F60032108F8021075E7D8230020EA
:107740002022002068D6020024240020B02400203B
:10775000E0230020C8240020C4240020FC230020B3
:1077600073B50D460446C8B1C1B10DF10601FFF76E
:107770004BFBA8B10B4BBDF806006668142202FB58
:10778000003001210C3000F02DFA63682E600C33BC
:107790006B600123A372002002B070BD0520FBE7DF
:1077A0000A20F9E7FC23002013B50446A8B10DF127
:1077B0000601FFF729FB90B10B4ABDF806301421F2
:1077C00001FB0323DA6862B1A27A52B1DA680020C1
:1077D000013ADA60A07202B010BD0520FBE70A2072
:1077E000F9E70620F7E700BFFC2300200B4B1B78CE
:1077F00037B504460D4663B168B10DF10601284660
:10780000FFF7C0F918B9BDF806302380658003B0D2
:1078100030BD0220FBE70520F9E700BFD823002098
:10782000104B1B7810B5B3B1B8B10288022A16D834
:107830000D494388142404FB02129C1C51898C427C
:107840000DDAC3F57F43FD330B44538100230380DE
:107850004380184610BD0220FCE70520FAE704200B
:10786000F8E700BFD8230020FC23002002230022D9
:10787000FFF7E8BD12B10223FFF7E4BD0520704712
:1078800018B103230022FFF7DDBD0520704700007B
:10789000104B1B7813B50446ABB14FF6FF739842FB
:1078A00013D001A8FFF718FA88B10523037001234C
:1078B0000371C48001A9084800F0C2F8FFF7B4FDC5
:1078C000002002B010BD0220FBE70420F9E70820E9
:1078D000F7E700BFD8230020B02400200E4B1B7810
:1078E00007B5A3B101A8FFF7F7F990B1062303701C
:1078F00001A90A4800F0A4F8094B1A780AB101223C
:107900001A73FFF791FD002003B05DF804FB02201D
:10791000FAE70820F8E700BFD8230020B0240020B1
:10792000E023002007B5ADF80600ADF804100DF116
:10793000060001A9FFF7BAFA03B05DF804FB07B52A
:107940001346ADF806000A4600200DF10601FFF7C8
:10795000ADFA03B05DF804FB07B51346ADF80600B9
:107960000A460DF106000021FFF7A0FA03B05DF80A
:1079700004FB20B119B103680B600020704705209B
:10798000704710B561B1B2FBF3F403FB1424A4B249
:1079900044B9C0E9001484608281C381204610BDCF
:1079A0000E20FCE70920FAE782B050E8022FC188D8
:1079B000B2EB324F4FF0000317BF92B241EA0141E0
:1079C00042EA014104E04268B2EB324F08BF0123B2
:1079D00040E80212002AE8D18DF807309DF8073000
:1079E000002B0CBF1120002002B0704737B550E8C3
:1079F000013F9DB2C48925448489A54228BF2D1B1F
:107A00000489A54202BFBFF32F8F002207E0C5EA19
:107A1000030540E80154002CE9D14FF001028DF834
:107A200003200193019B9DF803200B6002F0FF03EC
:107A300022B10B880068184403B030BD1846FBE73C
:107A40000A884B889A4209D150E8012FC2EA0242C3
:107A500040E80123002BF7D1012070470020704738
:107A600037B550E8023F1FFAA3F5C488A54202BF0C
:107A7000BFF32F8F00220DE0C48925448489A542DD
:107A800028BF2D1BC3EA054540E80254002CE8D16D
:107A90004FF001028DF803200193019B9DF8032014
:107AA0000B6002F0FF0322B14B880068184403B05A
:107AB00030BD1846FBE70A884B889A4209D150E846
:107AC000022FC2EA224240E80223002BF7D1012014
:107AD00070470020704701F01F024B0901219140BF
:107AE00000EB830000F05AB84B0910B501F01F04F9
:107AF0000121A14000EB830000F044F8E04000F0D9
:107B0000010010BD01F01F0301229A404B0900EB58
:107B10008300D14300F04EB84B0901F01F0150F82B
:107B20002300C84000F0010070472DE9F0474F1EC8
:107B30007F0980460E460137002558F8254008EB9E
:107B40008509E44394FAA4F4B4FA84F44FEA451A9C
:107B5000202C06D10135AF42EFD834462046BDE88F
:107B6000F0875444A642F5D921464046FFF7BCFFB2
:107B70000028F3D0D9F80040E44394FAA4F4B4FA0E
:107B800084F4E5E710B5034653E8000F40EA01022C
:107B900043E8002494F0000FF6D110BD10B5034661
:107BA00053E8002F42EA010043E8000494F0000F7C
:107BB000F6D110BD10B5034653E8002F02EA0100CC
:107BC00043E8000494F0000FF6D110BD10B5034651
:107BD00053E8000F00EB010243E8002494F0000F8B
:107BE000F6D110BD10B5034653E8002F02EB01009B
:107BF00043E8000494F0000FF6D110BD10B5034621
:107C000053E8002FA2EB010043E8000494F0000FBA
:107C1000F6D110BD0121FFF7B5BF0B4610B41146D8
:107C200028B123B103605DF8044B1B6818470E2090
:107C30005DF8044B70472DE9F04108B302B3D0F86A
:107C400000E0BEF1000F1ED0FBB14568D5F80480FE
:107C5000B3FBF8F508FB1535BDB942EA010C1CF081
:107C6000030F14D1C568A94211D34D1EEC18056944
:107C7000AC420CD8DEF80C40A446BDE8F0416047A9
:107C80000E20BDE8F0810820FBE70920F9E710206D
:107C9000F7E7F0B5D8B1D0F800C0BCF1000F18D0AC
:107CA000CAB14768D7F800E00EF1FF370F4214D190
:107CB000C768B94211D304694D1E0EFB0255A54297
:107CC0000BD8DCF81040A446BDE8F04060470E2019
:107CD000F0BD0820FCE70920FAE71020F8E70000D3
:107CE00070B550B90E4D0F4C0026641B1423B4FB25
:107CF000F3F4B44208D1002010E00368002BF1D067
:107D0000BDE87040DB6918472B6813B9013614359C
:107D1000EFE7DB69284698470028F7D070BD00BF21
:107D2000202200203422002029DF704728DF7047FE
:107D300070B503689E6886B004460D466EB1142285
:107D40000021684605F0C7FBA368059323790195D8
:107D50002BB1012B0DD06846B04706B070BD012392
:107D60008DF8003023690293E368039363690493F9
:107D7000F1E702238DF80030E3681B030293F5E777
:107D80000846704700207047024B187A003818BF29
:107D90000120704778250020034B187A0122B0FAA1
:107DA00080F05A74400970477825002008B51046C5
:107DB0001A4605F067FB002008BD000008B5142234
:107DC0000021044805F087FB0348FFF7EDFD002084
:107DD00008BD00BF782500206825002010B5094C9B
:107DE000094B43602046FFF715FF40B905F0E4F961
:107DF000064920741C2306488C22FFF7C2FD002090
:107E000010BD00BF782500205CD60200DC240020D5
:107E10006825002070B5244C244E237A25463BB9B2
:107E200023492448FFF71CFE306008B9606070BD2C
:107E3000022334682B72237973B1012B24D020469E
:107E40000321FFF775FF00232B726B601849194857
:107E5000BDE87040FFF72FBED4E90523D21AB2F572
:107E6000805FD4E9031028BF4FF480529208012AA2
:107E700038BF012219441844FFF756FF50B11128AA
:107E8000DDD101232B72D2E7D4E903031844FFF7B5
:107E90004DFFF3E72B7C002BC9D10146BDE87040B4
:107EA000022000F009B800BF7825002090250020AE
:107EB0008C2500206825002038B5831E012B45D86D
:107EC000234C237A002B41D0022B09D1032830D038
:107ED000204B00221B68E2601A793AB1012A22D0B5
:107EE000637C7BBBBDE83840FFF794BFD3E9051244
:107EF0008D1AB5F5805F94BF521902F580529A61D0
:107F00009142EDD102284FF0000308BF19462372B9
:107F1000104B18BF0D211868FFF70AFF0E490F48D4
:107F2000FFF7C9FDDCE71A6901321A615B699A4201
:107F3000E7E7E3680133082B01D8E360D0E70023CB
:107F4000E360DFE7BDE8384005F026B938BD00BF83
:107F500078250020902500208C2500206825002011
:107F600000F0FD03012B08D1044B00225A74421E7D
:107F7000504250411874FFF74DBF704778250020DC
:107F800010B5064C201DFFF745FE28B9637C1BB9D0
:107F9000BDE81040FFF73EBF10BD00BF78250020B0
:107FA0002DE9F34180460D460F4801A916461F46AC
:107FB000FFF71CFD0446A8B11C22002105F08BFA36
:107FC0002D0B0123237101A90748C4F80080A76085
:107FD000E5606661FFF734FDFFF7D2FF002002B0D5
:107FE000BDE8F0810420FAE7682500202DE9F74379
:107FF00081468846104801A917461E46FFF7F6FC41
:108000000446B0B11C22002105F065FA00250A9B48
:10801000A36001A9C4E9037807482571C4F800905A
:108020006661FFF70DFDFFF7ABFF284603B0BDE823
:10803000F0830420FAE700BF6825002041DF704785
:10804000064B10B500241C70054B1C60BFF35F8FFE
:108050000449054800F030F8204610BD9C2500205A
:10806000A025002088D602009425002007B5002313
:108070000DF107008DF80730FEF73AFDF1EE103AEA
:1080800023F09F03E1EE103ABFF35F8F094B4022CC
:10809000C3F884219DF80700FEF74EFD05F08CF82B
:1080A00020B1FFF7CBFF03B05DF804FB20BF40BF5A
:1080B00020BFF8E700E100E00B684A6843609342A4
:1080C00008BF0023016008BF43607047436843B1A5
:1080D0000268916852680B449342436004BF0023D6
:1080E000436070470C4B1B78062B10D10B4B1B6861
:1080F0001A070CD10A4B186800F0F003302B08D097
:1081000000F0E000A0F140035842584170470020C1
:1081100070470120704700BFE00F00F0E40F00F04F
:10812000E80F00F0094B1B78062B0CD1084B1B689D
:108130001A0708D1074B186800F0F000A0F13003CF
:108140005842584170470020704700BFE00F00F0D0
:10815000E40F00F0E80F00F008B5FFF7C3FF28B107
:108160007D4B7E4A1B68C3F304231360FFF7DAFFDD
:1081700010B17B4B7B4A1A60FFF7B4FF28B17A4BF2
:108180007A4A1B68C3F342331360FFF7CBFF20B179
:10819000774AD36823F08073D360FFF7A3FF40B121
:1081A0004FF080430022C3F80C21C3F81021C3F81C
:1081B0003825FFF7B7FF10B16E4B03221A60FFF7A7
:1081C000B1FF40B16C4B05221A6001229A67002270
:1081D0009A603F225A60694B1B78062B50D1684B3E
:1081E0001B6819074CD1674B1B6803F0F003502B39
:1081F00046D14FF08052644BD2F80414C3F82015D6
:10820000D2F80814C3F82415D2F80C14C3F82815B2
:10821000D2F81014C3F82C15D2F81414C3F8301582
:10822000D2F81814C3F83415D2F81C14C3F840154A
:10823000D2F82014C3F84415D2F82414C3F8481512
:10824000D2F82814C3F84C15D2F82C14C3F85015E2
:10825000D2F83014C3F85415D2F83414C3F86015AA
:10826000D2F83814C3F86415D2F83C14C3F8681572
:10827000D2F84014C3F86C15D2F84424C3F8702522
:10828000FFF730FF28B1414B414A1B6803F04F0311
:108290001360FFF727FF48B14FF08043D3F8002465
:1082A000D20744BF6FF00102C3F80024394B1B68AA
:1082B000062B08D1384B1B68062B01BF374A1368C1
:1082C00043F480631360364AD2F8883043F4700375
:1082D000C2F88830BFF34F8FBFF36F8F4FF010237A
:1082E000D3F80022002A03DBD3F80432002B2FDA64
:1082F0002C4B0122C3F80425D3F80024002AFBD01C
:108300004FF010221521C2F80012D3F80024002AE1
:10831000FBD04FF010231522C3F80422214B1A463C
:10832000D3F800140029FBD00021C3F80415D2F8BB
:108330000034002BFBD0BFF34F8F19491A4BCA688A
:1083400002F4E0621343CB60BFF34F8F00BFFDE741
:10835000164B174A1A6008BD24030010403501402F
:1083600074C007400DF0ADBA440200103C05004057
:10837000F0ED00E0A005004010560040E00F00F0D6
:10838000E40F00F0E80F00F000C0004058020010B9
:10839000E40E004030010010340100103C17004092
:1083A00000ED00E000E001400400FA053422002066
:1083B0000090D003054A4FF0A043105CD3F8043579
:1083C00023FA00F0C04300F00100704798D6020085
:1083D000044B1A5C012393404FF0A042C2F80C35C5
:1083E000704700BF98D60200044B1A5C01239340EB
:1083F0004FF0A042C2F80835704700BF98D602007F
:1084000008B50020FFF7F0FF0120FFF7EDFF022085
:10841000FFF7EAFFBDE808400320FFF7E5BF08B516
:108420000020FFF7D5FF0120FFF7D2FF0220FFF762
:10843000CFFFBDE808400320FFF7CABF074A4FF04F
:10844000A041105CD1F804350122824022EA0300E9
:108450001340C1F80805C1F80C35704798D60200E2
:10846000054A4FF0A043105CD3F8103523FA00F012
:10847000C04300F00100704794D602000D2809D0D7
:108480000E2809D00F2809D010280CBF03204FF068
:10849000FF3070470020704701207047022070476E
:1084A000014B185C704700BF94D60200C20708B5A4
:1084B00001460CD54FF0A0430322C3F84427C3F86C
:1084C0004827C3F84C27C3F85027FFF799FF8B07BD
:1084D0000AD54FF0A0430C22C3F83427C3F838273D
:1084E000C3F83C27C3F8402708BD000038B5074C47
:1084F000051E04F1080318BF1C4623682BB11A6837
:1085000022605B6828469847F7E738BDAC25002015
:1085100020B9054B01225A70FFF7E8BF012802D1AC
:10852000014A9070F8E77047A425002020B9034B5A
:1085300001225A70FFF7DABF704700BFA425002060
:1085400038B50B4C237883B90A486360A360236174
:10855000E36000F061F8054604F02EFE08B900F073
:1085600067F801232370284638BD8525FBE700BF47
:10857000A42500201185020037B50B4C00230DF116
:1085800007008DF80730FEF7B3FAE368013BE360BC
:10859000E56815B900F060F8A5709DF80700FEF7D2
:1085A000CBFA03B030BD00BFA4250020012813B5CD
:1085B00008D003281CD018B9104B0122C3F8802022
:1085C00002B010BD0E4C00230DF107008DF80730EE
:1085D000FEF78EFA23780BB9FFF7B2FFE3689DF838
:1085E00007000133E3600123A370FEF7A5FAE7E774
:1085F00000F01EF8FFF7C0FFE2E700BF00E100E077
:10860000A425002000F18040002382B003600368AD
:108610000193019B02B07047044A137923B90121E9
:10862000106091801846704785207047B82500205B
:10863000084B1A68D20706D4E02283F800230122EF
:10864000C3F880211A604FF080430122C3F8182537
:10865000704700BF00E100E0044B01221A604FF0B8
:108660008042D2F81834DB03FBD470470C00004082
:10867000124B1B6810B573B14FF48070FFF7C2FF47
:108680004FF080430122C3F808230D4B587910B9ED
:108690005A711B6898470B4B1B6873B14FF482707B
:1086A000FFF7B0FF4FF080430222C3F80823044BCA
:1086B000BDE810401B680120184710BD00010040B4
:1086C000B82500200401004000F1804000F5C040C2
:1086D000002382B0036003680193019B02B07047DE
:1086E000800000F1A040D0F8002722F44032C0F80A
:1086F0000027D0F8003743EA0141C0F8001770475F
:10870000054B4FF0FF32072843F8202084BFC018E4
:1087100080F84820704700BFC025002010B5184CD5
:1087200094F8583053BB04F130032021FF22013963
:1087300011F0FF0103F8012BF9D1C8B2FFF7E0FFF8
:1087400001310C29F9D1042200210E4804F0C3FEA6
:108750000D4BE02283F806234022C3F880214FF41A
:10876000BE701A60FFF7B0FF084B4FF00042C3F82D
:108770000423012384F85830002010BD0820FCE7B2
:10878000C02500201426002000E100E00060004029
:10879000034B93F85800003818BF0120704700BF02
:1087A000C0250020F0B5364D2C1894F93040002C2F
:1087B00064DA8C78C4F34004002C0BBF0823002338
:1087C0000C260826B34201D10420F0BD55F82370D1
:1087D00001373FD12E1845F8232086F8303014B9E0
:1087E000EA1882F848008A78540713D4D60733D59C
:1087F000820002F1A042D2F8004724F00204C2F83D
:108800000047204EC20800F007070124BC40B75CB7
:108810003C43B4548A780C7812F0020225D09B00B5
:1088200003F1804303F5C0430202D3F8101521F48D
:10883000473121F44071C3F810152404D3F8101502
:1088400002F4F85204F4403422430A43C3F81025DA
:108850000020BAE70133B5E74C7800F5E0724FF03D
:10886000A046A40046F82240CBE7083B2B4493F8EF
:10887000501041EA841483F85040E9E70820A4E747
:10888000C02500201426002038B51F4C251895F966
:108890003020072A16DD224492F848309B09032B2A
:1088A0000BD14FF0A043D3F81015C14001F00101E6
:1088B0000231BDE83840FFF713BF012B0CBF022186
:1088C0000321F6E7D3B2072B1CD8930003F18043B2
:1088D00003F5C043D3F8100540F00100C3F81005BC
:1088E00002F14000800080B2FFF7EEFE51B195F931
:1088F000303054F823302BB1012303FA02F2034B3A
:10890000C3F8042338BD00BFC0250020006000402C
:108910004FF0A043D3F8103523FA00F000F0010027
:10892000704700002DE9F04F87B000245A4D0394A2
:108930004FF48072012102F1804303F5C04390B2ED
:108940001B68012B06D1D5F804330B4202D0FFF788
:10895000BBFE0C430432B2F5907F4FEA4101EAD1ED
:108960004E4B1B68012B0AD14FF4BE70FFF7ACFED3
:108970004FF0A04344F00044D3F81035039314F0B3
:10898000FF0F1AD0464F01260025344210D0AB000D
:1089900003F1804303F5C043D3F81005D3F8101555
:1089A00057F8253023B1C1F30141C0F304209847A3
:1089B0000135082D4FEA4606E7D1002C65DA002183
:1089C0004FF0FF33CDE90413354D364E4FF000091B
:1089D000CA4601274FF0A04816F9013B5A1C45D062
:1089E000C3F3C20106AA5018DCB210F8042C03F03D
:1089F0003F0B03F0070307FA03F31A4236D005EBE7
:108A00000B02A40992F9302055F8222052B9032C08
:108A10002CD10DF1100E1EF801C04CEA030C0EF81B
:108A200001C001E0032CF4D00BF5E07110F80C0C40
:108A300058F821101842C1F3014105D0022915D17F
:108A4000032C0FD1214604E003290FD1032C09D1B7
:108A500002215846019209F10109FFF741FE019AEE
:108A60005FFA89F912B12146584690470AF1010A86
:108A7000BAF1040FB0D1B9F1000F06D04FF0A04306
:108A8000039AD3F81035934202D107B0BDE8F08FB6
:108A90000393049B059398E7006000407C610040CD
:108AA000C025002010260020014B1B68184700BF7E
:108AB0001C26002000F1804000F5E040002382B039
:108AC000036003680193019B02B07047F0B5504BFF
:108AD000504C1B6885B0002B3DD04FF4827094F849
:108AE0002E20FFF7E7FF2AB394F82F3013BB4A4B31
:108AF0001B68002B33D04FF48070FFF7DBFF638BD4
:108B000094F82D108B424FD922895B1A9BB292B2F6
:108B10006383D31A626802EB4303404AC2F82C36DF
:108B2000C2F830164FF48270FFF7C4FF3C4B0122AD
:108B30001A6014E0636802932389ADF80C30E3688F
:108B400000218DF8041023BB2374236801A89847E3
:108B5000002384F82F3094F82E30002BC7D1314BEE
:108B60001B685BB14FF48870FFF7A4FF00232374E8
:108B700002238DF8043001A8236898472A4B1B680C
:108B8000EBB14FF48A70FFF795FF0023237405B013
:108B9000F0BD208B608363602081E160002AD4D126
:108BA0001E4B01221A60D0E7BCD1E368012284F891
:108BB0002F2013B100226283AFE76383B2E76669B7
:108BC0004FF000470125002EE1D0B6FA86F227FAD1
:108BD00002F34632920026EA030602F1804303F5CF
:108BE000E0431B68002BEED01046FFF763FFA2F5B1
:108BF0008C72D30882F00402C2F380028DF8083030
:108C00008DF8045023688DF8092001A89847DAE709
:108C100004710040242600200071004000700040D4
:108C200004700040107100401471004038B51D4BB5
:108C3000044693F82C0098BB1B4A19602178C2F8AF
:108C4000F0156178C2F8F415E5781874012183F8FD
:108C50002C1083F82D00586183F82F0083F82E50D4
:108C60006FF00043C2F808334FF48270FFF722FF21
:108C70004FF48070FFF71EFFA3780C485B01DBB256
:108C800080F807338023C0F8803103600223C2F8E4
:108C900004330DB1C2F80413C2F80015002038BD2A
:108CA0000820FCE7242600200070004000E100E0DE
:108CB00070B52C4B1A7C02F0FF05002A4FD10A79BF
:108CC000012A9CBF284CC4F8005500F10C0503EBA9
:108CD0004504247924B993F82D40013483F82D40BC
:108CE00003EB4503CC790D7A8E781C715D714B785E
:108CF00036021B0106F4E06603F0300333430E78BE
:108D000006F003063343CE78360306F48056334329
:108D1000160406F4E02633434E798979360506F4C5
:108D200080160906334301F080710B430E4901EBB5
:108D30000016000100F1804000F5E040012AC6F86D
:108D40001835C0F81455C0F81045C0F81455C0F8CF
:108D5000104502D80123C1F80035002000E01120A1
:108D600070BD00BF242600200070004070B5264A68
:108D7000264B05461220C2F808031C7C022C03D1A6
:108D8000C2F80403112070BD187C01281DD1D868D9
:108D900018B10223C2F80433F4E7DD60198393F8B5
:108DA0002E3063B91A4A1368002BFCD04FF4807040
:108DB000FFF780FE144BC3F82C56C3F83016124B45
:108DC0000222C3F804230020DDE7022093F82E409E
:108DD000C2F80403012600201E745D601981D8606A
:108DE0003CB1598393F82D30C2F82C56C2F8303676
:108DF000C9E7C2F82C564FF48070C2F83016FFF75E
:108E000059FE20461660BEE7007000402426002070
:108E100000710040084A117C0129CBB209D192F8B7
:108E20002E0018B1054A002013607047044A1360F1
:108E300070470820704700BF2426002000700040C3
:108E4000047000400220FFF7F9BA00002DE9F04756
:108E500080460D46FFF712FB0328044610D8012D6B
:108E600010D0022D30D05DB91A48FDF731FE1A4BF3
:108E700004EB440213449E78184B1B5DB34219D097
:108E8000BDE8F087144D00EB4002A918AE5C4A78AB
:108E9000470052B1DFF84C900E484A464FF400416B
:108EA000FDF7CEFD08B989F800803B192B449A786C
:108EB0000A4B1A55002EE3D0094B1B68002BDFD05C
:108EC0003046BDE8F047184700EB40040248044430
:108ED0006678EFE778260020B8260020D12600200B
:108EE000CC2600205426002000780221FFF7AEBFD8
:108EF00008B5094B1B7853B10020FFF775FA012024
:108F0000FFF772FABDE808400320FFF76DBABDE82D
:108F10000840FFF775BA00BF55260020F8B5794C18
:108F2000237805461BB100232370FFF7E1FF172DBF
:108F300000F28480DFE805F00C13133F5061727C6F
:108F400084898489919696969696C0C5CDD5E0E0A1
:108F5000FFF7CEFF6C4B00241C702046F8BD0020AC
:108F6000FFF728FAF8B10020FFF73EFA022D0CBFF8
:108F70004FF4E1614FF47A61634B1D704FF4004090
:108F80004FF4FA740025E0FB01454FF47A72002398
:108F90002046294604F0DCF900220146BDE8F840ED
:108FA0005A48FDF74DBDFFF713FA022D0CBFC8213B
:108FB0004FF4C871E0E70020FFF7FCF940B1002052
:108FC000FFF712FA4FF448714F4B03221A70D5E79E
:108FD000FFF7FEF9C821F7E70020FFF7EBF938B1FA
:108FE0000020FFF701FA4FF47A61474B0422EDE7C6
:108FF000FFF7EEF94FF4C871F7E70020FFF7DAF951
:1090000048B10020FFF7F0F93F4B05221A7041F6F6
:109010009A110022C2E7FFF7DBF9F5E70020FFF71E
:109020000DFA394B06221A70002240F6CD41B5E701
:109030000020FFF7CDF9344B07221A7000248CE78B
:1090400001202070FFF7FAF9EEE701202070FFF70A
:10905000F5F900224FF48041A0E7FFF7E0F92A4B31
:109060000C22EAE72A482B4EFDF732FDD5F1110517
:1090700004461CD0D8B9012D13D0C8235D434FF44A
:1090800000474FF4FA7000214FF47A720023C7FBB7
:10909000050104F05DF9224601461D48FDF7D0FCAC
:1090A00004460220FFF794F90123337055E70220AC
:1090B000FFF79AF90023F8E7FFF71AFF124B122285
:1090C000BBE7FFF715FF0020FFF782F90E4B1322D5
:1090D000B3E7FFF70DFF0120FFF77AF90A4B1422DF
:1090E000ABE7FFF705FF0020FFF772F90120FFF75C
:1090F0006FF9054B1522A0E7FFF791F9024B1D70A0
:109100009CE700BFC8260020D0260020982600201B
:109110005826002055260020044B1B68DB0703D58A
:10912000034B1878FFF7FABE704700BFC426002033
:10913000D0260020032801D8FFF792B900207047FD
:10914000044B1B6813F0010301D0FFF7E7BE18467C
:10915000704700BFC426002038B51C4B18601C4B5C
:1091600010F00204054619601AD01A4B1A480E2254
:109170001A700F22DA7010229A7111225A72042189
:1091800040F26662FDF774F9044648B9FDF7C4F988
:10919000044628B90146114A1148FDF73FFC044630
:1091A000EB0711D50120FFF781F96CB921460D4A73
:1091B0000D48FDF733FC044630B9BDE838400B4A92
:1091C0000B480121FDF72ABC204638BDC4260020EB
:1091D000CC260020B82600209CD60200E98E020092
:1091E000C0D6020019910200C4D60200458E0200CA
:1091F000BCD60200032811D8012A0AD101290FD1B7
:1092000000F10E02D2B20D4B00EB40001A540020C8
:1092100070470129F7D0022904D049B107207047CF
:109220000022F8E7054B00EB400018444270EEE7DF
:10923000024B00EB400018448270E8E7B82600209B
:10924000032808B512D8FFF72BF9800000F1A040E1
:10925000D0F8003723F44033C0F80037D0F8003797
:1092600043F44033C0F80037002008BD0620FCE777
:1092700008B5012202210020FFF7BCFF08B1072832
:1092800010D1072202210120FFF7B4FF08B10728FF
:1092900008D100210A220846FFF7ACFF10B10728C9
:1092A00008BF002008BD00000388102B10B502D0B5
:1092B000112B1ED010BD1A4C2168B1B901220846ED
:1092C000FFF798FF08B1072824D1072202210120C7
:1092D000FFF790FF08B107281CD1042202210020CB
:1092E000FFF788FF08B1072814D1236801332360F2
:1092F000E0E70B4A1368013B1360002BDAD1FFF75C
:10930000B7FF0028D6D0074B1B68002BD2D0BDE892
:1093100010401847034B1B68002BE6D09847E4E742
:10932000DC260020D826002008B50020FFF788FFA3
:1093300008B1062806D10120FFF782FF10B10628E8
:1093400008BF002008BD00000D4B10B518600C468A
:1093500029B10120FFF7EEFE40B102232370094B33
:109360001B6853B9BDE81040FFF782BFFFF7E2FE6C
:1093700008B10B23F2E72070F1E7002010BD00BF19
:10938000D8260020DC26002076DF70477ADF704781
:109390007CDF70478FDF704733DF70474CDF7047EB
:1093A000FDF7D0B807B5002301A80193FFF7F6FF3A
:1093B000019B0C48002BB8BF03339B1001A90193FC
:1093C00000F036FB4FF0A042D2F80435D94301F447
:1093D000801103F48013C2F80815C2F80C3503B0ED
:1093E0005DF804FBF027002008B50020FFF7A8FE79
:1093F00008B1FDF7A7F8FFF797FF08B1FDF7A2F84E
:10940000FFF7CAFF18B1BDE80840FDF79BB808BDDB
:1094100003883B2B13B5044608D005D8102B0AD07F
:10942000212B19D002B010BD562BFBD1A0881321DF
:10943000FFF7AAFF0BE00720FFF782FE08B1FDF758
:1094400081F8094BA1880948198002F00CF800281E
:10945000E8D0FDF777F8E5E7002301A98088ADF8AB
:109460000430FFF797FFF2E73C2200200428002099
:1094700008B503784BB9054B3B211888FFF784FFEB
:1094800018B1BDE80840FDF75DB808BD3C220020DA
:1094900013B50378044683B940680121FFF766FCE1
:1094A00008B1FDF74FF863680548B3F90030ADF82F
:1094B00006300DF1060100F0DFFA02B010BD00BF6A
:1094C000F0270020072808B513D00A280DD004285B
:1094D00019D10D4B13211888FFF756FF30F0080300
:1094E00011D0BDE80840FDF72DB8BDE80840FFF7F2
:1094F0007BBF054B1A884FF6FF739A4203D103488E
:1095000000F034FFEAE708BD3C220020E0260020FE
:1095100008B548B103280BD10220FFF711FE38B17E
:10952000BDE80840FDF70EB8BDE80840FFF75CBF96
:1095300008BD000008B50548032100F0B8FD18B1CA
:10954000BDE80840FCF7FEBF08BD00BFE0260020D4
:1095500007B50378043B092B0DD8DFE803F0050CB1
:109560000F1E0C1A0C1E171E002340888DF80430A5
:1095700001A902F04FFD03B05DF804FBFEF7AEF960
:1095800030F00803F7D0FCF7DDFFF4E7FFF7D2FF78
:10959000F1E700690028EED0F5E78068FAE7FCF70C
:1095A000D1BF08B5FFF736FC4FF0A042D2F8043522
:1095B000D94301F4002103F40023C2F80815C2F8CE
:1095C0000C3508BD1FB50F4A10685168127A01ABFF
:1095D00003C30D490D481A70FFF728FB08B1FCF7CB
:1095E000B1FF01A90020FFF763FB08B1FCF7AAFF58
:1095F00007480121FFF7BAFB08B1FCF7A3FF05B04C
:109600005DF804FBDAD6020091940200E3D6020072
:109610009827002000B5ADB0FDF7D0F908B1FCF7F0
:1096200091FF734A73480121FDF7F8F90121724A4D
:109630007248FDF7F3F972490320FFF78DFD08B179
:10964000FCF780FF01A90020FFF77EFE08B1FCF7C0
:1096500079FF9DF80440FEF7F3FC08B1FCF772FFB8
:1096600003F024FD08B1FCF76DFF002301A90120E0
:10967000019303F0EBFD08B1FCF764FF01A803F0D0
:109680003DFE08B1FCF75EFF11235E488DF8003007
:1096900003F054FF5B4982B26846FFF779FE08B1D8
:1096A000FCF750FF0021082201A803F014FF5649DF
:1096B0004FF0C87301A8CDE90113FFF767FE08B1A9
:1096C000FCF740FF5148002101F001FE08B1FCF712
:1096D00039FF4F4B4F48019301A901F0B2FE08B189
:1096E000FCF730FF4C4800F0BFF8AC22002101A885
:1096F00003F0F1FE02238DF8043040F20163474A83
:10970000ADF806300123ADF8503015928DF8803059
:109710004FF4967244F25063CDE923234048414B05
:109720002A9301A900F051FC08B1FCF70BFF3C485B
:10973000012100F047FC1C22002101A803F0CBFE10
:1097400000234FF42032CDE90132ADF812304FF44E
:1097500070228DF81430344B039206930322334B5E
:109760008DF8102001A8079300F01CFF08B1FCF74A
:10977000E9FE02F0FBFB08B1FCF7E4FE0522002144
:1097800001A803F0A8FE019B03F07C42284B134381
:1097900001939DF8083023F0030343F0030301A86D
:1097A0008DF8083002F02CFC08B1FCF7CBFE214804
:1097B00002F00EFC08B1FCF7C5FEFFF703FF002224
:1097C0004FF400411C48FDF73BF91C4800224FF4C0
:1097D0000041FDF735F9022C07D102F029FC08B150
:1097E000FCF7B0FEFEF742FCFCE7FFF7A3FEF9E74B
:1097F000A5930200E8D60200A3950200ECD6020071
:10980000C5940200C8D602005000A0009C2700208A
:10981000A193020004280020F02700203822002015
:10982000E026002011950200719402009F9502002D
:109830003107100351950200D0270020B0270020E7
:10984000A8DF7047AADF7047AEDF704762DF70475E
:109850000388102B02D0112B03D0704783880B8014
:1098600070474FF6FF73FAE7F0B56F4BA9B008AA3F
:1098700003F11007044694463E4618685968154699
:1098800003C50833BB422A46F7D14FF20D030DF151
:1098900012016046ADF81030FFF7D8FF08B1FCF7B1
:1098A00051FE22464FF6FF7322F8023B04A9012025
:1098B000FFF7C6FF08B1FCF745FE0CAA5A4B174646
:1098C00018685968154603C50833B3422A46F7D1CC
:1098D0004BF6EF630DF116013846ADF81430FFF783
:1098E000B5FF08B1FCF72EFE4BF20B030DF11A0188
:1098F0003846ADF81830FFF7A9FF08B1FCF722FE93
:109900001C2200211AA803F0E6FD9DF868301C22F5
:1099100043F00203002121A88DF8683003F0DBFD3D
:109920009DF88430032243F00203002168468DF83D
:10993000843003F0D0FD9DF80230CDF87CD00125B5
:1099400065F342038DF802309DF8683001AE41F2B4
:10995000111743F01003032200213046ADF80070C8
:109960008DF8683003F0B7FD9DF80630ADF804704F
:1099700065F342038DF806309DF88430269602AFD9
:1099800043F010030322002138468DF8843003F0A1
:10999000A2FD9DF80A3003AE65F3420303220021C5
:1099A00030468DF80A3003F096FD9DF80E3065F3D1
:1099B00042038DF80E3014221123002110A88DF8D7
:1099C00008308DF80C3003F086FD05AB1422002121
:1099D00015A8CDE9103703F07EFD144A079206ABB7
:1099E00007AACDE915360423ADF84C30ADF8483060
:1099F0001492ADF86030ADF85C3019926088E318CD
:109A000010AA1AA9FFF71EFF08B1FCF79BFD60889A
:109A100004F10C0315AA21A9FFF714FF08B1FCF704
:109A200091FD29B0F0BD00BFF0D602001234567887
:109A300030B502884FF6FF739A4287B004460D4650
:109A400018D004230021102202A8ADF8063003F03C
:109A500042FDA388ADF8083001238DF80A300023B9
:109A6000ADF80C3020880DF1060302A9CDE90435CC
:109A7000FFF7EAFE07B030BD30B502884FF6FF733E
:109A80009A4287B004460D4618D0042300211022C4
:109A900002A8ADF8063003F01EFDA389ADF808302A
:109AA00001238DF80A300023ADF80C3020880DF129
:109AB000060302A9CDE90435FFF7C6FE07B030BDA5
:109AC0006DDF704779DF70477DDF704764DF704777
:109AD0002DE9F04F85B000250E9CBDF83CB0B4F8E0
:109AE00000A00191074690461E46A9463A884A457D
:109AF0000DDC45B12388013BA3EB0A039BB2FF2B8E
:109B00003AD806F80A30002005B0BDE8F08F7A6830
:109B100052F82900039000220DF10B0103A8FFF772
:109B2000D5FF0028F0D19DF80B20424521D1228895
:109B3000002D14BF0020022002EB0801014459450A
:109B40001ADC3DB9013292B2019B2280B3542288C3
:109B50000132228022880DF10B01324403A8FFF765
:109B6000B5FF0028D0D121889DF80B200A4422801F
:109B7000012509F10109B9E70C20C5E72DE9F341F9
:109B8000089FBDF824801546CDE9007802220446DE
:109B90001E46FFF79DFF50B9334610222946204646
:109BA000CDE9087802B0BDE8F041FFF791BF02B0FF
:109BB000BDE8F0812DE9F04F00231788138090F85D
:109BC0002D3085B006460D46144653B3082F01D8F4
:109BD0000C2007E102A8FFF773FF002840F0028184
:109BE00023880822EA54238801339BB21B22238056
:109BF000EA542088013080B2208006220DF109014C
:109C0000284403F03FFC23889DF8082006339BB2CC
:109C100012F0FE0218BF01222380EA542388013388
:109C20002380B378FBB123880433BB42D0D802A889
:109C3000FFF748FF002840F0D58023880322EA542C
:109C4000238801339BB219222380EA542388BDF86C
:109C5000082001339BB2E9182380EA54120A4A70A3
:109C6000238802332380F2789AB12388D91CB94221
:109C7000AED80221E954238801339BB2012123800D
:109C8000E95423880B449BB22380EA5423880B4475
:109C900023807268AAB12388D91CB94298D80221BE
:109CA00092F90020E954238801339BB20A212380D2
:109CB000E954238801339BB22380EA54238801337B
:109CC00023803389002B40F08180338A53B1CDE962
:109CD00000472B460722032106F11000FFF74EFF35
:109CE00000287FD1338B53B1CDE900472B46152295
:109CF000142106F11800FFF741FF002872D1326AE3
:109D0000002A72D1D6F82480B8F1000F30D0B8F80C
:109D100004302188981C8A1C0244BA423FF658AF8E
:109D2000FE283FF655AF03336B54238801339BB2B3
:109D3000FF222380EA54238801339BB22380B8F8A2
:109D40000020EA54E918120A4A702088023080B2D2
:109D50002080B8F804205AB1D8F8081000294ED055
:109D6000284403F08FFB2388B8F804201344238091
:109D700096F82C30002B7DD1307898B33388012BA6
:109D80003DD0228802F1020CBC453FF621AF0128EC
:109D900005D17378023313449F42FFF419AF023F99
:109DA000BF1ABFB202A905EB0C00ADF80870FFF7AF
:109DB0008BFEB8B93378022B40F09F80BDF8083095
:109DC000BB4240F2B580ADF808709FE0CDE9004796
:109DD0002B460622022106F10800FFF7CFFE0028DD
:109DE0003FF473AF05B0BDE8F08FB4F800C00CF1DC
:109DF0000603BB423FF6ECAE1188052901D80720C7
:109E0000F0E76FF4486E01EB0E039BB24FF27D3E1C
:109E10007345F4D95388052BF1D96FF448601818AD
:109E200080B27045EBD94FF6FF70814203D0834278
:109E300001D09942E3D8052305F80C30238801337B
:109E40009BB212212380E954238801339BB22380E3
:109E50001188E954E818090A4170238802339BB23B
:109E600023805288EA54E918120A4A702388023380
:109E7000238047E7B36A002BC1D04FF000094FF0B1
:109E80000C0A4FF0160B96F82C305FFA89F29342C9
:109E90007FF672AFB16A0AFB02F201EB0208B8F872
:109EA0000430981CFE283FF693AE208803332B54D1
:109EB000238801339BB2238005F803B02388013344
:109EC0009BB223808A5AEA54E918120A4A70208801
:109ED000023080B22080B8F804205AB1D8F80810B7
:109EE00000298CD0284403F0CDFA2388B8F8042048
:109EF0001344238009F10109C5E7012B7FF463AF07
:109F000073789F42FFF45FAFADF808300821BDF8C9
:109F10000830FE2B3FF65CAE22880133AB5422881A
:109F2000013292B22280A95422881344238059E737
:109F30000921ECE770B5C0B14AB116880024B442DB
:109F400003D305196D789D4208D0A14201D80020A5
:109F50000BE0055D01352C44A4B2F0E7A142F6D92F
:109F6000A31C1380005D013880B270BD13B5134689
:109F70000022ADF806200DF106020446FFF7DAFFD5
:109F800010B1BDF80630E01802B010BD72DF7047A6
:109F900073DF704774DF704738B5012204460D4601
:109FA000B0F89810D0F89400FFF7E0FF00B105700A
:109FB00004F13C0204F1940104F15400BDE838407E
:109FC000FFF7E4BF80F830107047F8B504460F463D
:109FD000002968D0002866D091F87A301BB191F83A
:109FE0009830002B61D1D7F8A030042B5DD0D7F882
:109FF0009C30042B59D04FF0000C84F802C007F1BC
:10A0000078060FCE251D0FC50FCE0FC596E80700A9
:10A0100085E8070084F830C0D7F8A4306363D7F828
:10A02000A830A3634FF6FF7504F19403C4F8A4307D
:10A03000A4F8A8500722614604F1AA0003F04BFAE5
:10A0400023780BB984F85450224604F155011F259A
:10A05000C4F89410384622F8985FFFF7ABFD08BBB0
:10A06000224604F17401C4F89C1007F13C0022F868
:10A07000A05FFFF79FFDA8B9A369A4F848304FF48B
:10A0800080730125A4F8503063692064014684F888
:10A090003C50636404F13C0204F15400FFF776FF86
:10A0A00000B92570F8BD0E20FCE70720FAE7F8B5E7
:10A0B000077804460D46002F00F00D8181700020C6
:10A0C000FDF70EFE014618B1012363700020F8BDB4
:10A0D00004F1AA060722304603F0FDF9E38813B124
:10A0E000A378012B04D0E3794BB1A378022B06D1DE
:10A0F000636BA3B1012284F8B1200820984733464E
:10A1000004F1B00113F8012F12B99942FAD11746A0
:10A110006B1E032B52D8DFE803F0050B0F1284F8F7
:10A12000B130ECE7A3791BB194F8243003B95FB9DF
:10A13000E3790BB1002F43D1237A002B42D1637A0C
:10A14000002B0CBF00250425636BA570002B3BD0B2
:10A15000033D012D38D86279002A35D094F8B22019
:10A1600092BB84F8B420012284F8B32007209847DA
:10A1700004F13C0518220021284603F0ACF9E36AFB
:10A1800094F82420581E0121022828BF0B4684F889
:10A190003C1084F8513032B1884296BFA36A84F8EB
:10A1A000521084F85230A178002384F850300429EA
:10A1B0001BD8DFE801F07A0D25385C000025C3E7E5
:10A1C0000225C1E70325BFE7002384F8B330CFE7BA
:10A1D000C4E91063C4F8A4300223012284F83C309F
:10A1E000802384F83120A4F84830A378002B5FD175
:10A1F000636B002B3FF46AAF94F83100984765E732
:10A200000223002A84F8313014BF0723032384F883
:10A210003C302369A4F848300023C4F8A430E36834
:10A2200026646364E1E763696364A369A4F8483062
:10A2300012B1062384F83C306379B3B194F8B2309C
:10A240009BB994F8B43083B1022384F850300421D0
:10A250002046FFF7A1FE0028C7D1052384F831303E
:10A2600004F19403C4F8A430BFE70323F6E7E369DD
:10A270006364236AA4F8483012B1062384F83C30A2
:10A28000637983B194F8B2306BB994F8B43053B1B8
:10A29000022384F8503004212046FFF77DFE002879
:10A2A000A3D10623DAE70423D8E784F831309CE70A
:10A2B000D4F8A4102A4604F15400FFF767FE0028E2
:10A2C0007FF405AF94F8301094F85400FFF760FE67
:10A2D00000288DD0FBE60820F9E60388112B10B585
:10A2E0000C460AD0262B1FD0102B05D1C37B012B87
:10A2F00002D18388A1F8A83010BD0022838881F89C
:10A30000B220B1F8A8209A42F6D10B79002BF3D1F4
:10A3100001212046FFF7CBFE0028EDD0A36B002BD8
:10A32000EAD0BDE810401847037A013B012BE3D87F
:10A33000897805230131B1FBF3F303EB8303C91AD9
:10A34000C9B2E6E70238012810B50C460DD84B78A3
:10A350005BB100234B7020468978FFF7A8FE20B13F
:10A36000A36B13B1BDE81040184710BD38B50446C3
:10A3700090F85400FFF70EFE012384F8B23000235A
:10A3800084F8B43084F8503006212046FFF704FEEC
:10A39000054638B9A1782046FFF789FE10B1A36BB6
:10A3A00003B19847284638BD75DF704776DF7047A0
:10A3B0007ADF70477BDF7047034B1A8882420CBFFD
:10A3C00018460020704700BF2C280020024B9B69D4
:10A3D00003B11847704700BF1028002073B585B23D
:10A3E0002846FFF7E9FF044670B1164E027A337B28
:10A3F0009A420BD200F10A012846FFF7D5FFE8B1D7
:10A40000112801D0FFF7E2FF02B070BD00230372F4
:10A41000337C43B13B212846FFF7C8FF30F00803E7
:10A4200001D0FFF7D3FF7369002BEDD000228DF828
:10A430000420ADF8065001A89847E5E7237A0133D8
:10A440002372E1E71028002037B50B46497A0F4AFE
:10A4500071B9D2E901141D7A0246002D18BF2146B8
:10A460005868FCF7EDFA08B1FFF7B0FF03B030BD54
:10A47000002119725369002BF8D00122ADF80600B3
:10A480008DF8042001A89847F0E700BF10280020AD
:10A490004B8802889A4213D842889A4210D3808807
:10A4A0008A8840F2F313984294BF031AC31A934266
:10A4B00006D800F2F310904234BF0020012070470C
:10A4C000002070470388122B70B5014659D004D87C
:10A4D000102B1ED0112B44D070BD502BFCD12F4B14
:10A4E000C288DB899A42F7D1038A022BF4D186888D
:10A4F0003046FFF761FF05460028EDD001F112005C
:10A5000000F0AEF938BB6868FCF7E2FA0028E3D047
:10A5100009E0C37B012BDFD14FF6FF70FFF74CFF43
:10A52000054620B90420BDE87040FFF74FBF1C4A24
:10A530008E880680002303721368C0F80A305368BF
:10A54000C0F80E3010310A30FFF7A2FF134B6872CB
:10A55000DB89002BC0D129463046BDE87040FFF7AB
:10A5600073BF8088FFF728FF04460028B4D04068F6
:10A57000FCF7AEFA08B1FFF729FF4FF6FF7323800F
:10A58000AAE786883046FFF717FF05460028A3D0C4
:10A5900008310A30FFF77CFF6872DCE710280020E2
:10A5A00040280020F8B5064648B305460FCD154FA4
:10A5B0003C460FC495E8070084E807003068124C59
:10A5C0003C60B0B1FFF7F4FEC0B932681368236095
:10A5D000536863600D480E4A4FF6FF7303800D4BBE
:10A5E00040F8043F0021FCF719FA002818BF0320A7
:10A5F00004E02046FFF7DEFE0028EBD0F8BD0E2079
:10A60000FCE700BF10280020402800202C28002054
:10A61000DDA3020048280020F7B5174601900E463A
:10A6200091B1019C6CB100252C46294601A8FDF78B
:10A6300073FA18B13946A8B2B04701340135142D68
:10A64000F3D1204603B0F0BD0C46FAE773B5019193
:10A65000019C06466CB100252C46294601A8FDF751
:10A660005BFA18B106EB440301349D800135142DCB
:10A67000F3D13046346002B070BD00002DE9F047E0
:10A6800003888488112B8CB005463CD01A2B3FD010
:10A69000102B17D1284EB368DB43009371686846CE
:10A6A000FDF788FA009901A8FFF7D0FF0DF108091E
:10A6B0004FF00008019B984507D3132C13D90420B1
:10A6C000FBF740FF0CB0BDE8F08739F802AB00277C
:10A6D0000137514606EB8700FDF714FA1D2FF7D11D
:10A6E00008F10108E6E715482146FDF7F4F914489A
:10A6F0002146FDF7F0F9EB7B012BE3D01148214611
:10A70000FDF7E9F9DEE70D482146FDF7FBF9D9E74A
:10A71000037A0D481F2B4FEA1315214606D9FDF782
:10A72000DAF9022D09482146EAD1EEE7FDF7EAF908
:10A7300006482146E9E700BF68280020702800206D
:10A740006C28002074280020782800207C28002015
:10A750001328014602D80248FDF7DEB900207047F1
:10A760006C28002007B50190FFF7F2FF019930B186
:10A770000448FDF7D1F9002814BF0220012003B0DE
:10A780005DF804FB7428002007B50190FFF7E0FF97
:10A79000019928B1044803B05DF804EBFDF7BCB99A
:10A7A00003B05DF804FB00BF7828002008B518212D
:10A7B0000248FDF7BAF9C0B208BD00BF6828002002
:10A7C00070B50A4E054630460C46FDF7A5F958B15E
:10A7D0002846FFF7BDFF38B10634294606EB840052
:10A7E000BDE87040FDF798B9002070BD68280020D2
:10A7F000F8B50D4C054620460E461746FDF78CF978
:10A8000080B12846FFF7A4FF60B1B01D04EB8000C3
:10A8100029461FB1BDE8F840FDF75DB9BDE8F84035
:10A82000FDF770B9F8BD00BF6828002073B50B4D67
:10A83000019204460E4601462846FDF76DF950B1D7
:10A84000043405EB8404019AA068314602B0BDE8E7
:10A850007040FFF7E1BE02B070BD00BF6828002065
:10A86000007800F00100704710B50446408800F001
:10A87000B7FBA0802046BDE8104001F073BB30B5A7
:10A8800087B005460C461422002101A802F023FEE1
:10A89000072301A88DF80430ADF806500394FFF7A4
:10A8A000E3FF07B030BD000030B587B00546142285
:10A8B000002101A802F00FFE4FF6FF739D42ADF894
:10A8C000065023D0284600F028FA1128044617D055
:10A8D00007D860B10B2811D021462846FFF7CFFFDB
:10A8E00003E043F202039842F6D1002209E00E236E
:10A8F00001A88DF80430FFF7B7FFF6E70F23F7E75D
:10A900000122034B28461978FFF772FF07B030BDCC
:10A91000E1280020FFF7C8BF024B03491878002246
:10A92000FFF784BFE328002041A90200024B03493E
:10A9300018780022FFF77ABFE2280020D9A9020088
:10A9400070B5234E86B031780446FFF739FF0546CF
:10A9500000283BD1204600F033FA1128014623D0CD
:10A9600008D8062822D0082820D078B12046FFF742
:10A9700086FF19E043F20203984215D043F20143E7
:10A980009842F3D12046FFF78FFF0DE029461422AD
:10A9900001A802F0A0FD102301A88DF80430ADF845
:10A9A0000640FFF761FF0125012205E0204600F087
:10A9B00017FB00F01FFA0022064B20461978FFF71C
:10A9C00017FF31782A462046FFF712FF06B070BD08
:10A9D000E4280020E328002070B5002186B0064658
:10A9E0001C4801F0EFFC054678B3304600F050F902
:10A9F000862801460ED006D8D0B1112827D030467F
:10AA0000FFF73DFF03E043F202039842F7D1002431
:10AA100025460FE01422002101A802F05CFD062368
:10AA200001A88DF80430ADF80660FFF71DFFEEE7D2
:10AA30002C460546084B2A4619783046FFF7D8FEC3
:10AA40001CB90448214601F0E2FC06B070BD0024A8
:10AA5000F0E700BFE0280020E228002010B50378CE
:10AA6000044673B94088FFF71FFF608800F095F92E
:10AA700038B1044B60881978BDE810400122FFF717
:10AA8000B7BE10BDE328002037B50378082B044675
:10AA90002CD1417A51BB057A072D1BD0082D29D026
:10AAA000012D23D180886A46294601F08FF8E8B944
:10AAB000019B1B78D3B1A08800F0BAFA4FF6FF7360
:10AAC000984213D00D4B2A461978FFF791FEFFF7F5
:10AAD00023FF0BE0808800F0ABFA4FF6FF7398423B
:10AAE00004D0074B01221978FFF782FEFFF71EFF03
:10AAF00003B030BD034801F08AFCF7E7E3280020EB
:10AB0000E2280020E028002070B5FFF74FFE104E2D
:10AB1000104D3070FFF74AFE2870FFF747FE0E4CCD
:10AB20002070FFF743FE0D4B18703378182B0DD0B3
:10AB30002B78182B0AD02378182B07D0182805D08B
:10AB40000748012101F037FC002070BD0320FCE71D
:10AB5000E2280020E1280020E3280020E42800204B
:10AB6000E028002010B503888488522B86B016D0C8
:10AB7000542B21D0502B15D1037B012B12D1827A7B
:10AB8000012A0FD1018942F6021399420AD11B4BC7
:10AB900020461978FFF72CFEFFF7C8FE02E020469A
:10ABA000FFF782FE164B174918780022FFF73EFE8A
:10ABB000FFF7B2FE06B010BD1422002101A802F07A
:10ABC0008AFC112320468DF80430ADF8064000F0D1
:10ABD00007FAADF8080000F00DF90B4B2046197884
:10ABE0000022FFF705FE094B204619780022FFF7E7
:10ABF000FFFD01A8FFF738FED4E700BFE2280020E0
:10AC0000E128002015A90200E4280020E328002004
:10AC1000AFDF7047B1DF7047B2DF7047B3DF704717
:10AC200073B50F4B0F4C93E803006D4685E80300A6
:10AC300000222088294601F0BAF84FF6FF762388D3
:10AC4000B34201D0112801D102B070BD184601F005
:10AC5000A0F800222946208001F0A9F8EFE700BF04
:10AC600000D70200E6280020044B1A884FF6FF7335
:10AC70009A4201D0FFF7D4BF704700BFE6280020FA
:10AC8000024B4FF6FF721A8000207047E628002022
:10AC90002DE9F743804600F0A3F94FF6FF73984281
:10ACA000064637D001274FF003093A466B46082184
:10ACB000304600F08FFF0137BFB2054628BB01992F
:10ACC0000A46032342F8049B06314046FFF7A4FFDF
:10ACD000044648B932460821304601F047F8044698
:10ACE000204603B0BDE8F0830C280CD0052800D125
:10ACF0002C460821304600F0D3FF002818BF03245B
:10AD0000002DD2D1ECE70125F3E7072814BF044654
:10AD10000C24E5E743F20204E2E72DE9F34107469C
:10AD200000F05EF94FF6FF73984218D10024032516
:10AD300026464FF001082B46224631463846FFF79B
:10AD400069FF042821D0082825D00B281ED115F032
:10AD500002030FD196B9ACB902B0BDE8F0816A46E2
:10AD6000082100F033FF0028E0D1019B9C881D687A
:10AD70009E1DDEE701254FF00008DCE703251C4699
:10AD80001E46F8E703253446F5E71120B8F1000F19
:10AD900008BF0B20E0E70020F8E71FB50DF107031F
:10ADA000039300F01DF902AA012100F00FFF20B962
:10ADB000039B187805B05DF804FB0020FAE700005B
:10ADC00070B505460A48FFF729FF70B9084C43F2F1
:10ADD000030621884FF6FF722846FFF719FFB0429D
:10ADE00004D1238801332380F3E7032070BD00BF23
:10ADF000E828002013B5074A044692E803006B4692
:10AE000083E8030000221946204600F0D0FF02B07C
:10AE100010BD00BF08D7020046DF704770B5084D6F
:10AE2000084E002431786888FFF7CAFC08B9E0B200
:10AE300070BD0134142C05F10C05F3D1FF20F7E7A8
:10AE4000EC280020EA28002010B50A4B19780446A7
:10AE5000FFF7B6FC58B1084A00235188A14201D13E
:10AE6000D8B210BD0133142B02F10C02F5D1FF2032
:10AE7000F7E700BFEA280020EC28002038B5054697
:10AE80000C4609B9FF2038BD4FF6FF739842F9D040
:10AE90000E4B01221978FFF7ABFC2846FFF7D4FFD1
:10AEA000FF2803D1FFF7BAFFFF28EBD008490C2297
:10AEB00042438B185D804FF6FF758D5222685A60B1
:10AEC000A2881A81A2799A72DDE700BFEA280020E1
:10AED000EC280020421E00F10F0312F8010F10B9F8
:10AEE0009A42FAD170470120704708B570B171B12C
:10AEF00003780A78534013F0FE0F08D1062201317F
:10AF0000013002F08CFAB0FA80F0400908BD002050
:10AF1000FCE72DE9F04700F101084F1C06460D46FD
:10AF200000F1110901F1110A10223946404602F0E0
:10AF300076FA0446D0B94046FFF7CCFF18B1384640
:10AF4000FFF7C8FF044651464846FFF7CEFF737C23
:10AF500003F0FC03042B05D06B7C03F0FC03042BF3
:10AF600018BF044604F00100BDE8F0870024EAE7BA
:10AF700030B585B004460D4600F004FC02AA0DF180
:10AF80000601072000F006FC10B94FF6FF700BE039
:10AF9000BDF80630AB42F1D003992046FFF7B9FF68
:10AFA0000028EBD0BDF8060005B030BD10B50A4C46
:10AFB0000A49182222704FF6FF7300220132142A28
:10AFC0004B8001F10C01F9D1FFF7F0FB182820703C
:10AFD0000CBF0320002010BDEA280020EC28002030
:10AFE00008B5FFF731FFFF281DBF0C235843034B63
:10AFF0004FF6FF7018BF185A08BD00BFEC2800209C
:10B0000010B50C46FFF720FFFF280CD0074B0C2291
:10B0100002FB003050F8043F23608388A3808379CB
:10B02000A371002010BD0520FCE700BFEC28002024
:10B03000084A30B500230C2404FB03F18D5A8542E5
:10B0400002D10A44508830BD0133142BF4D14FF69D
:10B05000FF70F8E7EC280020038843B9821C00F158
:10B060000A0312F8010B10B99A42FAD17047012075
:10B07000704710B50446FFF7EFFF58B122880B88E0
:10B080009A4208D108220231A01C02F0C8F9B0FA95
:10B0900080F0400910BD0020FCE71FB5044600F019
:10B0A00071FB02AA0DF10601072000F073FB10B935
:10B0B0004FF6FF7007E0039920464631FFF7D9FFAE
:10B0C00018B1BDF8060004B010BD039920462A311E
:10B0D000FFF7CFFF0028E4D0F3E7000010B50C46DF
:10B0E000FFF7B2FEFF281FBF0C235843014B1C5231
:10B0F00010BD00BFEC28002070B50446FFF798FF94
:10B100000546204600F0E0FD4FF6FF76B5420446C6
:10B1100009D040B92846FFF797FEFF281FBF0C2330
:10B120005843024B1E52204670BD00BFEC28002041
:10B1300070B58CB014466A460D4600F110031646F1
:10B1400013F8011D02F8011B9842F9D10D220021CC
:10B1500004A802F0C0F92B788DF81F306B788DF8B9
:10B160001E303046AB788DF81D30FFF755FE9DF848
:10B170002F3023709DF82E3063709DF82D30A37012
:10B180000CB070BD30B5037803F0FE03042B85B01E
:10B1900004460D4618D1411C032201A802F072F9A1
:10B1A0000322211D03A802F06DF902AA03A9284673
:10B1B000FFF7BEFF032202A901A802F030F9B0FA9E
:10B1C00080F0400905B030BD0020FBE730B50388B2
:10B1D000102B93B050D1041D0FCC07AD0FC50FCC71
:10B1E0000FC594E807009DF8203003F0FE03062BFE
:10B1F00085E8070009D000F0C5FA9DF82030032B40
:10B200004FEA530204D9022A3FD04FF6FF7410E0F0
:10B2100002AA0DF10601072000F0BCFA0028F4D0C4
:10B22000039908A81131FFF760FE0028F0D0BDF89F
:10B230000640BDF81C0008A9FFF720FE4FF6FF737B
:10B240009C4219D0BDF81C00FFF7FEFDFF281EBF71
:10B250000C235843114BADF80C4018BF1C52BDF8DD
:10B260001C30ADF80A3002A800238DF8083000F039
:10B270007BFE02A8FFF7F2FB13B030BD039908A8CC
:10B280000131FFF77FFF0028D1D102AA0DF106019D
:10B29000072000F07FFA0028F0D1B6E7EC28002064
:10B2A00090DF7047A5DF7047B5DF70471FB50023FB
:10B2B000ADF80810ADF80A106A4602A9039300938E
:10B2C000ADF80430FFF7ECFF05B05DF804FB78B192
:10B2D0004FF0171303601B2303711723C3800381EF
:10B2E00041F61B3200230161438182811846704779
:10B2F0000E20704713B5034680880C4698B91A880B
:10B30000242A75D011D8112A52D0232A7DD0102A90
:10B310002BD0A37A3BB1E1880020FFF7C3FF10B91F
:10B320004FF48073638102B010BD3A2A48D0552A89
:10B33000EFD1DB88C988A072172B38BF17238B4247
:10B3400028BF0B462381FFF7AFFFE37A002BE0D144
:10B350002369002BDDD040F6772200922289ADF8D8
:10B360000420694620469847D3E7DB7B0A790A73B5
:10B37000012B13D0022B14D0E18823898B4205D2F4
:10B380000020FFF78FFF70B90123E372217B637BFD
:10B390008B42BED20020FFF789FFBAE70B88E3801B
:10B3A000EAE74B88FBE7112804BF0123A372EDE70E
:10B3B0001723CB800B8141F61B3348818B81A8E793
:10B3C0005B89CA88934228BF1346172B0A6938BF86
:10B3D00017230B814AB1C97A39B140F67721009120
:10B3E000ADF804306946204690470023638190E71A
:10B3F0001A7A0B694A73002B8BD04DF67A218DF89F
:10B40000050000918DF80420ABE7197A237B99425F
:10B4100028BF1946BFE7B0DF704766DF704710B539
:10B42000002104464088FFF7F8FF034608B923725D
:10B4300010BD112801D10123F9E76368BDE8104070
:10B44000184760B159B10378DE2B0AD00B6843600E
:10B45000DE2303704FF6FF734380002070470E20F9
:10B4600070470820704728B10378DE2B04D1418053
:10B47000002070470E20704708207047F0B5054641
:10B4800085B00C46F1B1E8B10B78DE2B1AD1828879
:10B490004B889A4204D10B7A13B10846FFF7BFFFDD
:10B4A0002B88112B32D0512B0ED0012B0AD12B7AA5
:10B4B000012B07D1A9886288914203D123722046CB
:10B4C000FFF7ADFF05B0F0BDAE886388B342F9D198
:10B4D000AF79022FF6D1AD7B2B1F022BF2D80021C2
:10B4E0001022684601F0F7FF052D14BF4FF4C0731A
:10B4F0000023694630468DF80070ADF80430FFF740
:10B500008AFF0028DED063689847DBE76388AA8853
:10B510009A4204BF4FF6FF736380D3E7012804D03B
:10B52000043804288CBF0020012070474FF6FF73B9
:10B53000438000F09FBA0000F0B51F4E8BB0002191
:10B5400008226846317001F0C6FF4FF6FF7000F028
:10B55000D9FC4FF6FF770446BC4211D0A4F58045D4
:10B56000ADB26A4602A92846FCF7F6F90A2809D0C6
:10B570002846FCF78DF9082805460BD101233370C6
:10B580000BB0F0BD204600F05FFC204600F0BAFC96
:10B590000446E1E7002DF3D0142200210DEB020058
:10B5A00001F099FF072305A88DF81430ADF8184075
:10B5B0000795FFF7BBFFE3E7E429002070B50446D9
:10B5C00086B01422002101A801F085FFA08923780C
:10B5D0002B4D00F5804080B2042BADF808003AD026
:10B5E00008D85A1E022A0FD92B780BB1FFF7A4FFF7
:10B5F00006B070BD052BF7D113238DF804304FF63C
:10B60000FF73ADF808301DE043F6FE76B042E189E5
:10B6100004D901F5804292B2B242E5D8DA1E534213
:10B6200053418DF80D30A368049363688DF80C10B6
:10B6300063B908238DF804309DF8143043F00103FA
:10B640008DF8143001A8FFF771FFCDE709228DF8BE
:10B6500004200593F6E743F6FE739842C4D8E389C5
:10B66000002BC1D163683BB90A238DF8043000F088
:10B67000EBFB01232B70E5E70B238DF80430F8E793
:10B68000E429002073B504460D4616460021082221
:10B69000684601F020FFA5F58041A4F580406B4687
:10B6A000324689B280B2FCF73DF9002818BF052068
:10B6B00002B070BD30B5174889B0FBF73BFF20BB27
:10B6C000FBF74EFF044610BB00F090FB082221461A
:10B6D00003A801F000FF03AA05A94CF20700FCF73C
:10B6E0002EF910B1204609B030BD01A905A8FCF71C
:10B6F00037F8019B9D8805F58045ADB205A8FCF79C
:10B7000053F8284600F088FBE5E70324EAE786249F
:10B71000E8E700BFBDB50200F0B5FF2887B00446DA
:10B720000E4615461F4629D80846FFF7F7FE28B3F0
:10B7300003AA2046FFF7A6FF18B10524204607B04C
:10B74000F0BD01A903A8FCF70BF804460028F4D1CA
:10B75000019BAE705B882B802FB9029B6B6003A8A6
:10B76000FCF722F8EAE73968B1EB830F4FEA83026E
:10B7700006D30299686801F085FEF0E70724DDE74B
:10B780000424DBE702480822002101F0A4BE00BF28
:10B79000DC290020F0B587B006460F461546FFF7B6
:10B7A000BDFE0446F8B1A6F58040104A03A980B258
:10B7B000FCF7C5F818B10024204607B0F0BD01A978
:10B7C00003A8FBF7CDFF0028F5D1019BAE705A8886
:10B7D0009B882A8003F58043029A6A6003A83B8015
:10B7E000FBF7E2FFE8E70124E6E700BFDC290020E1
:10B7F00008B5034680780A46FFF790FE40B11988E5
:10B800001046FBF7F3FF092804D8034B185C08BD6A
:10B810000720FCE70320FAE718D7020007B50190DC
:10B8200001A8FBF7FDFF002818BF032003B05DF857
:10B8300004FB70B588B0FF2804460D4601921E46F1
:10B8400043D889780846FFF769FE00283DD0A4F563
:10B850008043ADF80830A1F58043ADF80A306B683D
:10B86000039305AA2B8804932046FFF70BFF0528B6
:10B87000019B13D163B902A905A8FBF7F7FF0728BD
:10B88000044624D013D8C8B10324204608B070BDA4
:10B8900001AA02A905A8FBF7EDFFF0E713B101A883
:10B8A000FBF7BEFF02A905A8FBF7EAFFE7E70828B8
:10B8B0000FD00E2814BF03241124E6E7002EE4D095
:10B8C000314605A8FCF755F8DFE70724DDE78624B5
:10B8D000DBE71124D9E74FF6FF7000F09DBAFF288F
:10B8E00008B505D800F09EFAFFF726FE002008BD37
:10B8F0000720FCE700F0BEBA00F0EABA00F002BB95
:10B9000030B50A68064B012A01D9002005E0140170
:10B91000E55A854202D10A60181930BD0132F2E7BA
:10B920009C2A002037B500230D460446019301A947
:10B93000FFF7E6FF38B18378AB4206D1837B9B07E4
:10B9400003D183680BB903B030BD019B0133019370
:10B9500001A92046ECE710B5044600F017FC20468C
:10B9600001F0BEFA2046FFF77FF92046BDE81040FF
:10B97000FFF78AB88378013B072B07D8DFE803F08D
:10B9800007060606060704091423038070470123EF
:10B99000FBE743689B8809339B08F6E770B50E4EBA
:10B9A00004460025237BAB420ED84FF6FF7323805D
:10B9B000A3700023C4E901334FF47F43A381A37B29
:10B9C00023F00303A37370BD617B2944C9B23046E1
:10B9D00000F0AAFC0135E5E78C2A002037B50446C3
:10B9E0008378417B21480025CDE900558DF8023050
:10B9F00000F083FCF0B1237BA278019003EB83037A
:10BA00009B0068468DF80220ADF80030FFF7B2FFCA
:10BA10002346626833F8080B6946FFF70AFF1128CE
:10BA20000FD005D840B1072818BF032003B030BDA0
:10BA3000862811D00320F9E7A37B23F00303A37327
:10BA4000F4E7A37B23F0030343F00203A373084B43
:10BA500001221A702846E9E7A37B23F0030343F091
:10BA60000103A373024B01221A70DFE78C2A002026
:10BA7000882A00202DE9F041374DC368AA68934217
:10BA800086B0074618D0AA69934217D1012405EB66
:10BA900004143B78314E092B12D0132B34D0082BD1
:10BAA00008D197F80980B8F1000F03D16CB3204694
:10BAB000FFF774FF002428E00024E8E70024E8E70B
:10BAC000787A0028F6D104B3A37BA06043F0020388
