:020000022000DC
:1060000000000120396202009162020093620200E6
:10601000956202009762020099620200000000008F
:106020000000000000000000000000009B62020071
:106030009D620200000000009F620200A162020057
:1060400065990200A76202009D9D0200AB620200FA
:10605000AD620200AF620200199C020095A6020028
:10606000B5620200B7620200B9620200BB620200C0
:10607000BD620200BF620200C1620200C362020090
:10608000C5620200F1700200C9620200CB62020028
:106090008D710200CF6202000DF10200D362020096
:1060A000D5620200D7620200D9620200DB62020000
:1060B000DD620200DF620200A3620200A36202004E
:1060C000E1620200E3620200E5620200E7620200B0
:0C60D000E9620200EB620200ED620200D7
:1060DC00354936480A1A02D0072291438D46344975
:1060EC0034480A1A06D00722914381F30988022208
:1060FC0082F3148830483149314A00F044F8314871
:10610C003149324A00F03FF831483249324A00F006
:10611C003AF832483249334A00F035F832483349BC
:10612C00334A00F030F833483349344A00F02BF846
:10613C0033483449344A00F026F8344834490022B4
:10614C0000F02CF833483449002200F027F833488B
:10615C003349091A082902DB002202604160314AE6
:10616C0090471F481F49884205D00268043003B489
:10617C00904703BCF7E700208646EC460020002140
:10618C00294A9047FEE7884207D0521A05D0037877
:10619C0001300B700131013AF9D17047884202D0BD
:1061AC0002700130FAE770470000012000E0002087
:1061BC000000012000000120980803007822002034
:1061CC00F8220020F0620200F0620200E0F6020009
:1061DC0098080300782200207822002060F8020042
:1061EC0060F8020060F8020060F8020060F802003B
:1061FC0060F8020060F8020060F8020096080300E4
:10620C0018090300F8220020F8220020F8220020B0
:10621C005C3400205C3400205C3400205C340020B2
:10622C005C5400205D620200B1B202000F484FF0D6
:10623C000701884385460E4880470E48016841F4A3
:10624C0070010160BFF34F8FBFF36F8FFFF740BF3B
:10625C0009480A490A4A884207D0521A05D00378DD
:10626C0001300B700131013AF9D170470000012067
:10627C006993020088ED00E008F80200202200205B
:10628C0078220020FEE7FEE7FEE7FEE7FEE7FEE7EA
:10629C00FEE7FEE7FEE7FEE7FEE7FEE7FEE7FEE7CA
:1062AC00FEE7FEE7FEE7FEE7FEE7FEE7FEE7FEE7BA
:1062BC00FEE7FEE7FEE7FEE7FEE7FEE7FEE7FEE7AA
:1062CC00FEE7FEE7FEE7FEE7FEE7FEE7FEE7FEE79A
:1062DC00FEE7FEE7FEE7FEE7FEE7FEE7FEE7FEE78A
:0462EC00FEE700BF0A
:1062F0007047000007B5044B0093044A402300F0A8
:1063000032F803B05DF804FB11630200F9220020AB
:106310002DE9F84388461446B2B10F4B0F4E0325C2
:10632000002743F00109224608EB0701002005F091
:10633000BBFA0744241A48B933782BB14FF47A409A
:10634000C847013D02D13570BDE8F88301233370A1
:10635000002CE8D1F8E700BF60F80200F822002026
:10636000704705F0D5BAF0B595B01D4616460846FB
:106370000C4602F0DEFE1A9B0D93CDE90865002560
:106380002B46082205A920460A958DF82C500C951D
:1063900002F00BFF079B0293069B03939DF81430BA
:1063A0008DF8115003F00302012A1DD1BDF814200D
:1063B000059DC3F3C203C2F383168DF81030B200FB
:1063C00008230EA9204602F0F0FEC5F3952508AB80
:1063D0000093324602AB0EA9284600F0F5FB20469A
:1063E00002F0ABFE15B0F0BD022AF8D1BDF8165090
:1063F000C3F3C203C5F389158DF810300827082DA3
:106400002E4628BF08263B4632460EA9204602F0FB
:10641000CCFEAD1B08AB02AA31460EA8374400F0F3
:1064200037FC002DEBD1DAE7014B01221A707047DF
:106430007A2300207047000070B5124D06460FCD3C
:1064400088B06C460FC495E80F00002E84E80F005A
:106450004FF0FF334FF00602CDE90023CDE90233C0
:10646000094A0A484FF0EB7308BF002269460693B9
:1064700003F004FA08B100F08FFD054B1E7008B060
:1064800070BD00BF74F80200296402007822002069
:106490003923002007B5044B0093044A4023FFF73B
:1064A00062FF03B05DF804FBB16402003A230020F0
:1064B00038B50D4B0D4D002018700D4804782D5D3A
:1064C000D2B21C4665B1043004F096F808B100F071
:1064D00063FD084B1A7812B12378002BFBD038BD2E
:1064E0000C3003F08BFEF1E77A230020C02B002054
:1064F000782200203923002008B50848084A03788C
:10650000D35C3BB1043004F015F8BDE8084000202E
:10651000FFF792BF0C3003F00FFEF6E77822002061
:10652000C02B00200120FFF787BF000038B5094CC1
:10653000FFF717FF01250421204600F0AFFA65722E
:10654000054CFFF7EFFF0421204600F0A7FA657223
:1065500038BD00BF8C22002098220020037813F061
:10656000030F03F0040202D012B910467047B2B113
:1065700003F00303012B03D0022B09D00120704745
:106580000A6800880232C0F3831002440A60F5E70B
:106590000B684288023303EB92130B60EEE70B6843
:1065A0004288013303EB92130288F4E72DE9F04FA0
:1065B00087B000230446861C0DF107000F461546E0
:1065C0008DF8073000F0DAFF454801683960D0E9FE
:1065D0000132134401335B1A824600F21C4700F576
:1065E000836900F21448B3421CD30020002D73D0FD
:1065F00004F00F039B0143F0050363F30F00DAF887
:106600000020DAF808301340033316444AF8230018
:106610009DF80700CAF8006000F0D4FF012007B021
:10662000BDE8F08F0121384602F039F8484602F003
:1066300051F8404602F04EF8DAF80400DAF808B0F3
:10664000029000EA0B0003300AEB800002A9FFF77A
:1066500085FF029B50BB0BEA03020AEB820203F1A7
:10666000020CD2680392013303EA0B0B0AEB8B0B8B
:1066700002F00302012ADBF80C10CDF808C023D089
:10668000022A16D08346404602F027F810B1029B3A
:10669000CAF804305946384602F001F8DAE9012315
:1066A0001344DAF8002001339B1A9CE70BEA03003D
:1066B000C9E7BDF80E30C3F3891303334FEA114B1A
:1066C0000CEB93030293DEE7BDF80C30C3F38313A6
:1066D0004FEA114B6344F5E7A40544F006008EE74A
:1066E0004C24002008B50E4B0E48FF229A60002271
:1066F000C3F81824C3E90022C3F8142483F8202423
:1067000002F0D0FC38B9084A084B09499B1ADB084B
:1067100002469A4200D108BD21F822200132F8E752
:106720004C240020C8F7020040F70200C8F702001E
:106730002022002030B50A4C71B10A4A0A49121BC6
:10674000D20800239A4201D1002030BD31F82350F5
:10675000854202D00133F5E7034654F83300F4E7ED
:1067600040F70200C8F7020022220020094B01393D
:1067700003EBC000032909D8DFE801F00A02040690
:1067800004207047007970474079704700207047B7
:106790000220704740F70200034BD3E90030C31AD0
:1067A00058425841704700BF4C2400202DE9F04367
:1067B00087B0FFF7F1FF0646002840F0F3807A4DDE
:1067C000C5F81804BFF34F8F6B68AC680293234081
:1067D000033305EB830002A9FFF7C0FE029B0746C7
:1067E000002861D104EA0302991C013305EB8202FF
:1067F000234005EB8303D268DB68049302F00303B4
:10680000022B0392029162D1BDF80E306748C3F3A8
:106810008918B8F1500FC14628BF4FF0500969F3ED
:106820008F1309F10801ADF80E3002F053FC064653
:10683000002800F0A58002F07CFC3B46082203A95A
:10684000304602F089FC029924EA01020132B9EBD8
:10685000820F4FEA820333D95FFA89F963B321408B
:10686000DCB2A9EB040903315FFA89F7A146504C69
:1068700005EB810108234A46304602F06DFC34B135
:1068800009F108033A462146304602F065FC029BB6
:1068900008F1030803EB98030293D5F81834002B92
:1068A00048D1D5F8104456E02A689A428FD86A60D9
:1068B000304607B0BDE8F0833D491C461F46D9E786
:1068C0000C40E11C08234A4605EB8101DCE7012B63
:1068D00056D1BDF80C303548C3F38311062928BFC3
:1068E000062161F3891302318900ADF80C3002F002
:1068F000F1FB0646002843D002F01BFC3B46082271
:1069000003A9304602F028FCBDF80C20C2F3831224
:10691000BB00974203F10803BFD202994A1C2140F1
:106920000331029205EB81010422304602F014FC8F
:106930000137E9E7304602F000FCFFF72DFF80F059
:106940000100C6B2B4E7637A23B1236831461B68FD
:10695000204698476468002CF5D1304602F0EDFBE4
:106960000DF107008DF8074000F008FED5F8183447
:106970000BB9029B6B609DF8070000F023FEDCE77B
:10698000D5F8104444B90B4B0B491888000440F06B
:10699000020000F05FF8D0E7236820469B68984724
:1069A0006468EFE7002683E74C240020C8F7020064
:1069B0005824002038220020A0F802002DE9F74FCB
:1069C000224D04460F46924601A901221846D5F8E9
:1069D00008909B46FFF7EAFD20B3019E4FF00008A8
:1069E000B21CD84508EB020126D11948002101F05C
:1069F0000FFE80F31000000440EA1440E400731C12
:106A000004F0380403EA090306EA090644F0010425
:106A100005EB8303033644EA881444EA8724D860EC
:106A200045F8264095F820341BB1FFF7BFFE00283B
:106A3000FBD103B0BDE8F08F09EA010105EB81014C
:106A40005AF82830CB6008F10108CAE74C2400202E
:106A50006828002000231A46FFF7B0BF07B50123BE
:106A6000019201AAFFF7AAFF03B05DF804FB07B586
:106A7000CDE9002302236A46FFF7A0FF03B05DF8CB
:106A800004FB1FB5CDE90123069B039301AA032351
:106A9000FFF794FF05B05DF804FB00000F4930B527
:106AA000D1F810440346002022463AB91872D1F8B2
:106AB000104444B9C1F810345A6030BD157A85428B
:106AC00005D05268F1E762685A606360F5E701300B
:106AD0000A28E9D14FF0FF30EFE700BF4C24002037
:106AE000084A38B50123D2F8104482F820341D46F4
:106AF00004B938BD2368657220465B6898476468AE
:106B0000F6E700BF4C24002007B503460846197A73
:106B1000052911D05B7A2BB1094A0A49019001F08D
:106B20003FFE01980849019001F03AFE019803B038
:106B30005DF804EB01F029BE002AF8D0F2E700BFAF
:106B4000C8F80200CDF80200EDF8020030B5C388A5
:106B500085B004460D4633B1144A00921449154AD3
:106B6000284601F01DFE217A05291DD0637A4BB11C
:106B7000A088FFF7FBFD104B104953F82020284652
:106B800001F00EFE227A0E4BA08853F822200392C9
:106B90000021FFF7CFFD039A0A490346284605B0B6
:106BA000BDE8304001F0FCBD05B030BDC8F80200C2
:106BB000D8F80200D0F8020054F90200CDF8020023
:106BC00078F90200F0F802002DE9F04385B01F4685
:106BD0000C9D002395F80C902B7306460C469046AE
:106BE00029463846FFF7B2FFB8F1060F09D8DFE8AB
:106BF00008F00412181F283340003146284601F0DF
:106C0000CFFD002229463846FFF77EFF85F80C901D
:106C100005B0BDE8F08322683146284601F0C0FD8A
:106C2000EFE7D4E900233146284601F0B9FDE8E753
:106C3000A36800933146D4E90023284601F0B0FD53
:106C4000DFE7E3680193A36800933146D4E90023AA
:106C5000284601F0A5FDD4E723690293E368019378
:106C6000A36800933146D4E90023284601F098FD3B
:106C7000C7E76369039323690293E3680193A368F9
:106C800000933146D4E90023284601F089FDB8E796
:106C900008292DE9F74F80460E4617461C4639D87D
:106CA000002593F80C901D7319461046FFF74EFF10
:106CB000DFF880A0DFF880B0AE422ED918F80520AA
:106CC0005946204601F06CFD0135082DF4D11849D4
:106CD000DFF868A0DFF868B0204601F061FD00250C
:106CE000AE421FD918F805200192104608F012FC98
:106CF0000028019A594608BF2E22204601F050FD77
:106D00000135082DECD1012221463846FFF7FCFE63
:106D100084F80C9003B0BDE8F08F5146204601F096
:106D20003FFDD1E75146204601F03AFDE8E700BFBC
:106D300004F9020000F90200FAF8020002F9020068
:106D400006F902002DE9F04F364E87B04FF00009EA
:106D5000354B1B785FFA89F5AB4202D807B0BDE826
:106D6000F08F324BD3F800A01AF835000124D6E991
:106D7000001EA0F12002C0F1200304FA02F224FA5E
:106D800003F3134304FA00FC059301EA0C03009398
:106D9000059B0EEA03030193DDE9002313430AEB8D
:106DA000C50B3BD0059B21EA0C012EEA0303C6E983
:106DB000001302F027FF01461AF835001C4DA0F120
:106DC0002002C0F1200304FA02F224FA03F3134371
:106DD000D5E900C28440134004EA0C040393A0F1F7
:106DE0002002C0F1200321FA03F3029401FA02F811
:106DF00048EA0308DDE9023401FA00F7444508BF18
:106E0000BB420BD1DBF8043043B19BF80120541E88
:106E100062426241551A69426941984709F1010984
:106E200096E700BFA028002070280020A828002096
:106E300098280020F8B506461E4800F08FFBC0BB1E
:106E40000125A6F12004C6F1200325FA03F305FA73
:106E500004F41C43184BD3E900C2B5400CEA05000A
:106E600002EA040101431F461DD1304602F0CAFE6A
:106E7000124BD3E9001288B129432243C3E900121F
:106E8000D7E900231C430E4B0A4819681543C7E98C
:106E900000540022BDE8F84000F018BB21EA0501CB
:106EA00022EA0402EAE72CEA050522EA0404C3E91F
:106EB0000054F8BD78280020A02800209828002041
:106EC00074280020042A2DE9F34105460C46164695
:106ED00039D902F0D7FDD8B11C4B1D491D601D4B9F
:106EE000DFF884801C701C4B00221E600023C1E967
:106EF00000231A49C1E90023013CE4B2002603271C
:106F0000FF2C0CD1164A1748002100F0CDFA03E0FF
:106F100002F07EFD0028DFD002B0BDE8F08105EB75
:106F2000C40315F834009B788DF80660424601A929
:106F30008DF804708DF8053002F0AEFD013CE4B22E
:106F40000028DDD0E8E70720E6E700BFA8280020FA
:106F5000982800207028002074280020A0280020F5
:106F6000456D02008CF90200356E020070B5084DC7
:106F7000084E00242B789C4201D3002070BD33685A
:106F8000012113F8340002F0F9FD0134F2E700BFEB
:106F900070280020A82800201FB50021039001AA16
:106FA00044F20100CDE9011100F004F805B05DF8EC
:106FB00004FB000010B572B6FFF792FDFFF7F6FB79
:106FC0000028FBD1104C11492088000440F001003A
:106FD000FFF740FD0E4B1B68DB0700D500BE208885
:106FE0000C49000440F00200FFF734FDBFF34F8F5F
:106FF00009490A4BCA6802F4E0621343CB60BFF34D
:107000004F8F00BFFDE700BF3822002090F902003B
:10701000F0ED00E09CF9020000ED00E00400FA054C
:10702000094A537891780133DBB2994208BF0023B3
:10703000117899421FBF03705078182303FB00207A
:1070400014BF043000207047AC28002073B50546FB
:1070500000240DF107000E468DF8074000F08EFA6F
:107060000DF10600FFF7DCFF90B10670094B9DF8AB
:10707000062045605A709DF8070000F0A3FA24B975
:10708000054B4FF48012C3F80021204602B070BDBA
:107090000424F0E7AC28002000E100E0024B4FF4AC
:1070A0003C6043F001031847B0F9020038B50C4BBF
:1070B0000C4C4FF40032C3F8802001254FF480338C
:1070C000C4F84833C4F808336560FFF7E7FF064BA0
:1070D000A56000241C60FFF7E1FF044B1C7038BD65
:1070E00000E100E000100140C8290020B92900207B
:1070F000F8B51F4B1F491B680025C1F84051C1F866
:107100004451C1F84851C1F84C51C1F80051C1F87F
:1071100004514BB3D1F8044517490968641A24F0A7
:107120007F442F461A68A24209D8A41A15441A7C33
:10713000DE691AB1D3E905201F749047AEB90F4A32
:107140000F4B11781B788B4205D10133DBB2022B38
:1071500008BF0023137012780A4B43F822500A4BE1
:107160004FF48012C3F80021F8BD3346DAE700BFC0
:10717000CC29002000100140C8290020C52900208A
:10718000C4290020BC29002000E100E02DE9F04FD7
:10719000A24AA34913780978A24D994285B03CD000
:1071A0000133DBB2022B08BF002313709E49127813
:1071B0009E4B0F6853F822003B1823F07F430022B8
:1071C0000B602B6816461446944613B942B12B60E7
:1071D00006E0196881420ED902B12B60091A1960C4
:1071E00001272B68DFF84CA201934FF00008BEB9CD
:1071F000DFF848B262E0401A0C44D968D3F81CE0CA
:10720000C3F800C031B13A1922F07F42C3E901212D
:10721000DE611E4673460122D7E700263746E0E7C7
:107220003446F669804A63681268DFF814C2A068C1
:10723000991A21F07F41614500F2A8800144216044
:10724000012222742A680023C4E90133E361002A81
:1072500040F0A5802C60CAE79BF802105A1CD2B2FD
:1072600091428BF8002004BF00228BF800201822E6
:1072700002FB03B32A6819799C68022977D0032995
:1072800000F08180012919D1207CB8B9D3E903121B
:10729000A2605A69E2609A69654BA2611B78002B73
:1072A0000CBF0B4603466360BCE78C4200F0948041
:1072B0008946C9690029F8D1002323749BF800305E
:1072C0009BF801209A42C7D12B68B8F1000F04D176
:1072D000019A9A4201D1002F43D0002B79D0D3F8E4
:1072E00000A0544D504BD5F804751C68DFF854814C
:1072F0003E1B98F8003026F07F4603369BB94FF4CA
:107300008033C5F84433C5F804334B4B4FF4003297
:107310004FF00109C3F880211A60C5F80090FFF70B
:10732000BDFE88F80090B2452CBF5444A41924F047
:107330007F44C5F84045D5F80435DB1B23F07F4377
:10734000E41B033324F07F44A3420AD9D5F8043563
:10735000C5F84035FFF7A2FE374B4FF40032C3F8B3
:107360000021334B00221A7005B0BDE8F08F1146A2
:1073700091469FE71174D2690123002AFAD1002BAC
:107380009CD02A609AE700231946F6E7D31A23F027
:107390007F43834234BFC31A0023236050E7216830
:1073A0001368994213D8591A1160E26152E7091A19
:1073B000D8691A4638B1034618688842F7D3401A8C
:1073C0001860184613462160E061DC610FE7134640
:1073D000F2E7FFF76BFEC4E74C4511D1D3692B6090
:1073E00073B9DFF844E00120CDE90212CAF80800C1
:1073F000CEF800300E4B1870FFF750FEDDE9021298
:107400000B68C969C9F81C1011B1086803440B6006
:107410002B68934218BF4FF001084DE7C4290020A4
:10742000C5290020CC290020C8290020BC29002023
:10743000B82900200010014000E100E0AC28002045
:10744000FEFF7F00B929002008B5FFF72FFE104B83
:1074500000200B2218809A700E4B18600E4B18708B
:107460000E4B18700E4B4FF48012E021C3F88021B0
:1074700083F814131A6002F18042A2F56F22C2F859
:10748000080583F81113074BD2F804251A6008BDCC
:10749000AC280020CC290020C4290020C5290020C8
:1074A00000E100E0C8290020074B9B784BB132B1C6
:1074B00028B10368187C20B959745A6170470720B5
:1074C00070470820704700BFAC2800202DE9F74323
:1074D000DFF8848098F8023005460E461746ABB3B5
:1074E000A0B3042930D9436983B3437C0024012B22
:1074F0000DF107000CBF8946A1468DF8074000F04A
:107500003DF80DF10600FFF78BFDD8B101230370A4
:107510000F4B4560D3F80435C0E90497C0E9023643
:107520009DF8063088F801309DF8070000F04AF811
:1075300024B9084B4FF48012C3F80021204603B051
:10754000BDE8F0830424EFE70724F7E70824F5E714
:107550000010014000E100E0AC280020064A9278CB
:107560003AB130B1426922B1002202740221FFF720
:107570006DBD0820704700BFAC28002070B5EFF348
:10758000108672B60C4A946801239CB993600B4B29
:107590000B4DD3F8801029401160C3F88050D3F808
:1075A000841051604FF0FF32C3F88420047006B994
:1075B00062B670BD0370FAE7D029002000E100E058
:1075C000FC06FFBD084B9A6810B55AB150B9EFF3ED
:1075D000108172B6054A1C6814605C68546098603B
:1075E00001B962B610BD00BFD029002000E100E063
:1075F00070B5064D0646002455F8043B0BB13046E5
:1076000098470134042CF7D170BD00BFE829002051
:10761000033080B240F2FD33984230B51FD8124B90
:107620001A783AB91C895D892C440444A4B2B4F593
:10763000806F0AD31A7DA2B99A8BDC8B2244024454
:1076400092B2B2F5806F0CD201220A801446142245
:1076500002FB04335A8910445881002030BD0920B0
:10766000FCE70720FAE700BF1C2A00200B4A0C4B5E
:107670005188142000FB0131CB6833B904204968DC
:1076800010700122074801F001BB07490523137060
:1076900002238B80012209680023F3E7002A0020DF
:1076A0001C2A002064220020D42A002007B50023D1
:1076B00005490093054A09680548082301F062FA64
:1076C00003B05DF804FB00BFD42A0020D4F9020007
:1076D0006422002007B5002301460093034A0448B2
:1076E000082301F04FFA03B05DF804FBCCF9020067
:1076F0006422002013B500230C4600930146084A7B
:107700000848042301F03EFA38B90749142303FB63
:1077100004140123237402B010BD0E20FBE700BF48
:10772000C8F90200642200201C2A002037B50A484C
:107730000A4B42689C8819685388032503330570F7
:107740009BB2002000909B0001EB8401044801F0F3
:1077500019FA03B030BD00BF002A0020D42A00204F
:107760006422002010B50146044800F085FE1C226A
:107770000446002107F02FFF204610BDA422002060
:1077800068B10268084B9A4209D14068074B984299
:1077900007D00133984214BF032001207047032013
:1077A00070470020704700BFDEC0ADDEFE011EF155
:1077B0004388033300EB8303994209D382884FF651
:1077C000FF739A4206D00088B0FA80F040097047F3
:1077D00002207047012070472DE9F0410D46022339
:1077E000154F2B80164600F5805100F108044FF02C
:1077F00001088C420ED2236801330BD02046FFF7DC
:10780000D7FF48B10EB186F80080022809D14FF4A5
:1078100080632B80BDE8F081A3683A68934200D969
:107820003B602B886288033313442B8063880333C7
:1078300004EB8304DDE700BF142A002038B5144BA5
:1078400014220D4602FB00302B68446804F5805179
:10785000A3B15C88033403EB84048C4215D2236803
:10786000013312D02046FFF7A3FF012808D00228D9
:107870000BD00028F1D12C60012038BD0834ECE792
:107880006388033304EB8304E7E70020F5E700BFD8
:107890001C2A0020426873B504460D4662B3234B90
:1078A000D9688A4228D31B699A4225D812F003036B
:1078B00022D11F490089098988421DD12068916819
:1078C000884219D11B494868824203D900F580508B
:1078D00082420DD389698A420CD901F580518A42CE
:1078E00008D201222A80B3FA83F0400902B070BDA9
:1078F0001A46F7E70A23F6E700232B801E46019677
:10790000288801A9FFF79AFF30B92B8801339BB271
:10791000012B2B80F3D9E9E7019B226899689142FA
:10792000EED16360024B1B892381DFE764220020D4
:10793000002A00201C2A00202DE9F8431C461C4B7D
:107940001B7806460F4615466BB372B36CB3DFF86F
:1079500068804FF01409A388012B01D90A2020E088
:1079600009FB03F318F803302BB9A0882146FFF771
:1079700065FF20B92060A3880133A380EBE723686B
:107980001EB1998832889142EFD11FB119883A8887
:107990009142EAD19A68C5E90023064B1B892B81E5
:1079A0000020BDE8F8830220FBE70520F9E700BFCF
:1079B000F8290020002A00201C2A002008B5074BC7
:1079C0005888191DFFF73AFF18B1BDE80840FFF7C6
:1079D000ADBEBDE80840FFF749BE00BF002A002049
:1079E0002DE9F04FA14FDFF8A89289B00646B846BE
:1079F0003B6823B99E48494600F078FD3860D8F8C6
:107A0000005029784B1E052B07D8DFE813F0210022
:107A100079007900090109015E010F241422002177
:107A200003A807F0D8FD41F61D539C4208BF00246F
:107A3000D8F8003004941A78013A052A00F2EF8150
:107A4000DFE812F0DB01DF01FF010F021B0225025C
:107A500026B1884B00225A600124DFE72B79032BE3
:107A60001DD8DFE803F015022A3583490B78022B75
:107A7000084619D00B7D022B4FF0010316D11422BA
:107A80005343C2180020C8545068FFF723FE03E098
:107A900001232B71FFF70AFE002800F0BC80754B14
:107AA00000225A600E24B9E70023E8E7714A1370F8
:107AB0000023536041F61D54B0E77049704800231D
:107AC00002222B718A800968012201F0DFF8E3E7C6
:107AD0006A4C00262E712068674DFFF7FBFD694B4D
:107AE000D4F800C05A8814235343EA18EE5451685E
:107AF0002160A188C2F804C011810222A280CBE7D4
:107B0000B5F814A0AA7DDFF870B1AEB1022AEB88F7
:107B100006D9142101FB0AB1DA1C088902440A8142
:107B2000142202FB0ABAC3F57F43BAF80A20FD33D8
:107B30001344AAF80A308FE7142303FB0AB3188909
:107B40005C6804EB8004062A68D8DFE802F0274D61
:107B500035431D59040041F61D54AA7DEB88022AC5
:107B600006D9142101FB0AB1DA1C088902440A81F2
:107B7000142202FB0ABAC3F57F43BAF80A20FD3388
:107B80001344AAF80A3049E73F48404900234360BC
:107B9000AB690360FFF77EFE002859D00223AB7566
:107BA000002300930423EA182146354800F0EAFF39
:107BB000002830D00E24D0E72B69002B14BF0323FC
:107BC0000123AB750023009305F10C02042304F19B
:107BD0000801EAE70123AB750022EB8800922A69CD
:107BE0009B0004F10C01E0E703290CBF05230623E9
:107BF000AB7500230093042305F10802E118D4E7D4
:107C00000623AB75214B19881F4B5868FFF772FD8F
:107C100004460028A1D109B0BDE8F08F0F249CE7ED
:107C2000002E7FF419AF2B79012B33D0022B3FF4B8
:107C300041AF002B7FF4F1AE02232B710DF10A014D
:107C4000EB68039303A8CDE90466FFF723FE08B9A8
:107C50000A24E3E60498BDF80A108388EB800388C1
:107C60002B81FFF747FD044625E000BF182A0020BE
:107C7000A4220020F82900201C2A0020D42A002059
:107C800064220020002A0020DC290020E02A0020B5
:107C9000102A00207F4B03AA3146A81DFFF74CFE97
:107CA0007C4B044658B999880498FFF723FD044695
:107CB0000A2C3FF4FFAE002C7FF4B0AEABE70822F5
:107CC0003146184607F087FCF2E7002E7FF4C4AE79
:107CD000714B1A7BB2B11E731A78013A062A3FF62D
:107CE0009CAE01A151F822F08F7D0200B57D02000B
:107CF000D37D0200D97D02001B7A0200DF7D0200E5
:107D0000F17D02001A78072AE6D801A151F822F085
:107D1000317D0200D97C0200D97C0200577D02002F
:107D20006B7D02008B7D02008B7D0200537D020083
:107D30001A895A4901321A8100225A801A730A7824
:107D4000B2FA82F252099A720A7DB2FA82F25209AA
:107D5000DA72012207E0524958688A884088033263
:107D600002448A8002221A70B6E74C4C5A884C4969
:107D7000142505FB02420868546850608888108109
:107D800002228A800C600622EDE70722EBE79A7A4E
:107D900032B9DA7A8AB900221A705A805A6089E6B2
:107DA0003E4900229A72CA68002AF2D1097C002951
:107DB000EFD05A80FFF702FE55E70022DA72374A09
:107DC000116A0029E7D192F82420002AE3D0012289
:107DD000EFE7FFF7ABFC46E7FFF748FC43E72F4A26
:107DE0005B88142101FB03235868FFF773FC3AE713
:107DF00000225A60FFF75AFC35E700238DF80C305B
:107E00000DE001228DF80C201A89ADF818209A880F
:107E1000DB680593ADF81A2000238DF81C3003A809
:107E2000FFF7E6FB002649461E48C8F8006000F050
:107E300088FB1D48012100F03EFC00287FF4D8ADEE
:107E4000E9E602228DF80C201A89ADF818209A88EC
:107E5000ADF81A20DA689B7D05929A1F5342534170
:107E6000DBE703228DF80C20DA88ADF818201A8998
:107E7000DB68ADF81A200593D1E704228DF80C20B9
:107E8000DB88ADF818300023ADF81A30F3E705238E
:107E9000B4E700BFE42A0020002A00201C2A0020AA
:107EA000D42A0020A4220020D02A00204068FFF716
:107EB00097BD000008B50548012100F0E4FB18B9A2
:107EC000BDE80840FFF78CBD08BD00BFD02A0020E8
:107ED0002DE9F3419846354B1B7806460D46002B9D
:107EE0005BD000295BD009884FF6FF73994258D0C8
:107EF0006B88002B55D06B689B0754D14AB92F89EA
:107F00000DF102013846FFF783FB30B102B0BDE846
:107F1000F08113885788ADF8023001A8FFF722FCE2
:107F2000044658B9BDF80230214A142101FB03234D
:107F300058890338C01B58810820E7E780F8008083
:107F400000238375BDF8023083826B6803610121D1
:107F5000184800F0A4FB2B882381B8F1030F6B882D
:107F6000A38004BF0423A3754FF0000508BF336846
:107F7000E06008BFA3611048E780658101A900F0B7
:107F8000A5FA36B1E36833600C4B75601B89B57296
:107F90003381FFF78FFF0020B8E70220B6E7052006
:107FA000B4E70420B2E70320B0E700BFF8290020BF
:107FB0001C2A0020142A0020A4220020002A0020CD
:107FC00008B5034607480268042A08D00168064A33
:107FD00042F82130012100F062FB002008BD0C2096
:107FE000FCE700BFDC2A0020E82900202DE9F04F43
:107FF00014228BB000210DEB020007F0ECFA724A5C
:10800000137803F0FF01CDE901123BB105A8FFF79A
:10801000EFFA002630460BB0BDE8F08F029B181D2A
:1080200000F055FB0028F4D14FF010234FF08052A0
:108030005B6911695269654C581C08BF02FB01F36A
:1080400023616349A3F5405300222046E36000F01A
:108050006DFD039406460028DCD15E495E48DFF8DA
:108060008491DFF884811C238C2200F0D0F9B24681
:1080700035464FF0030B3446039BDF6857443846C0
:108080003946FFF77DFB01284AD0032815D0002888
:1080900035D11421614308EB010208F80100576053
:1080A00001F110020831424441443846FFF794FB85
:1080B00045F002050134A4B221E007F580520868BA
:1080C000013074D104319142F9D1D9F800203AB984
:1080D00002220123C9F80070A9F8042001930CE0E2
:1080E00014226243022008EB020108F802003B4A16
:1080F0004F60548001340881A4B245F001050AF5AF
:10810000805ABAF5405FB7D1BBF1010F98BF002587
:10811000EDB2022D02D0062D20D045BB0B2679E70B
:10812000019B63B11422624308EB0201022008F8AC
:1081300002000134D9F800204A600881A4B200226C
:108140002749C9F800703846FFF746FBB9F8042004
:10815000022A0CBF042208221543D0E7029A012309
:10816000137005A800235360FFF742FA52E704A8F2
:10817000FFF7F8FAC8B10123013D03700A2D09D8B1
:10818000DFE805F006080608070807080F110F00CA
:108190000023037104A9104800F098F9FFF78AFE44
:1081A00038E70323F5E70223F3E7082632E70BF16C
:1081B000FF321FFA82FB1422624308EB02014F6078
:1081C000032108F8021075E7F82900206422002036
:1081D000D4FB0200442A0020A4220020002A002010
:1081E000D82A0020D42A00201C2A002073B50D466E
:1081F0000446C8B1C1B10DF10601FFF74BFBA8B1B0
:108200000B4BBDF806006668142202FB003001210A
:108210000C3000F044FA63682E600C336B6001236D
:10822000A372002002B070BD0520FBE70A20F9E729
:108230001C2A002013B50446A8B10DF10601FFF772
:1082400029FB90B10B4ABDF80630142101FB032332
:10825000DA6862B1A27A52B1DA680020013ADA60D3
:10826000A07202B010BD0520FBE70A20F9E7062046
:10827000F7E700BF1C2A00200B4B1B7837B50446DC
:108280000D4663B168B10DF106012846FFF7C0F94C
:1082900018B9BDF806302380658003B030BD0220D8
:1082A000FBE70520F9E700BFF8290020104B1B78F9
:1082B00010B5B3B1B8B10288022A16D80D49438867
:1082C000142404FB02129C1C51898C420DDAC3F564
:1082D0007F43FD330B4453810023038043801846C2
:1082E00010BD0220FCE70520FAE70420F8E700BFF4
:1082F000F82900201C2A002002230022FFF7E8BDF5
:1083000012B10223FFF7E4BD0520704718B1032323
:108310000022FFF7DDBD052070470000104B1B78E1
:1083200013B50446ABB14FF6FF73984213D001A8C2
:10833000FFF718FA88B10523037001230371C48085
:1083400001A9084800F0C2F8FFF7B4FD002002B010
:1083500010BD0220FBE70420F9E70820F7E700BF83
:10836000F8290020A42200200E4B1B7807B5A3B1EA
:1083700001A8FFF7F7F990B10623037001A90A4895
:1083800000F0A4F8094B1A780AB101221A73FFF71A
:1083900091FD002003B05DF804FB0220FAE70820FD
:1083A000F8E700BFF8290020A4220020002A0020BE
:1083B00007B5ADF80600ADF804100DF1060001A9EF
:1083C000FFF7BAFA03B05DF804FB07B51346ADF842
:1083D00006000A4600200DF10601FFF7ADFA03B0D2
:1083E0005DF804FB07B51346ADF806000A460DF12B
:1083F00006000021FFF7A0FA03B05DF804FB20B1EE
:1084000019B103680B60002070470520704710B554
:1084100061B1B2FBF3F403FB1424A4B244B9C0E984
:10842000001484608281C381204610BD0E20FCE7C9
:108430000920FAE782B050E8022FC188B2EB324F30
:108440004FF0000317BF92B241EA014142EA0141F5
:1084500004E04268B2EB324F08BF012340E8021249
:10846000002AE8D18DF807309DF80730002B0CBFAB
:108470001120002002B0704737B550E8013F9DB28F
:10848000C48925448489A54228BF2D1B0489A5429F
:1084900002BFBFF32F8F002207E0C5EA030540E8C3
:1084A0000154002CE9D14FF001028DF80320019313
:1084B000019B9DF803200B6002F0FF0322B10B88A3
:1084C0000068184403B030BD1846FBE70A884B88A3
:1084D0009A4209D150E8012FC2EA024240E8012342
:1084E000002BF7D1012070470020704737B550E8C6
:1084F000023F1FFAA3F5C488A54202BFBFF32F8F26
:1085000000220DE0C48925448489A54228BF2D1B83
:10851000C3EA054540E80254002CE8D14FF00102BF
:108520008DF803200193019B9DF803200B6002F05E
:10853000FF0322B14B880068184403B030BD1846D1
:10854000FBE70A884B889A4209D150E8022FC2EA19
:10855000224240E80223002BF7D10120704700207F
:10856000704701F01F024B090121914000EB83008D
:1085700000F065B84B0910B501F01F040121A140BE
:1085800000EB830000F04FF8E04000F0010010BD68
:1085900001F01F0301229A404B0900EB8300D143F5
:1085A00000F065B84B0901F01F0150F82300C840E6
:1085B00000F0010070472DE9F0474F1E7F0980460B
:1085C0000E460137002558F8254008EB8509E4439D
:1085D00094FAA4F4B4FA84F44FEA451A202C06D194
:1085E0000135AF42EFD834462046BDE8F087544409
:1085F000A642F5D921464046FFF7BCFF0028F3D03C
:10860000D9F80040E44394FAA4F4B4FA84F4E5E71A
:1086100010B5034653E8000F0A4643E8002494F0DF
:10862000000FF7D110BD10B5034653E8000F40EA24
:10863000010243E8002494F0000FF6D110BD10B5FC
:10864000034653E8002F42EA010043E8000494F097
:10865000000FF6D110BD10B5034653E8000F00EA35
:10866000010243E8002494F0000FF6D110BD10B5CC
:10867000034653E8002F02EA010043E8000494F0A7
:10868000000FF6D110BD10B5034653E8000F00EB04
:10869000010243E8002494F0000FF6D110BD10B59C
:1086A000034653E8002F02EB010043E8000494F076
:1086B000000FF6D110BD10B5034653E8002FA2EB12
:1086C000010043E8000494F0000FF6D110BD012131
:1086D000FFF7A9BF0121FFF7B2BF0021FFF7BBBF22
:1086E00010B590B1D0E9012301689B1ADBB20A6092
:1086F000013BDBB2FF2B026802D10020107110BDDC
:1087000011684C1C14600B70F2E70E20F7E737B5C8
:10871000054600240DF107008DF80740FEF72EFFF7
:108720002A686B68116899420ED9481E106011F8CA
:10873000014CEB68A98A01FB0434AB6811791B1A60
:10874000DBB2994238BF13719DF80700FEF73AFF7C
:10875000204603B030BD37B5054600230DF10700B4
:108760000C468DF80730FEF709FF2A681368591C7C
:108770001160E968641AA98AB4FBF1F41C709DF8D1
:108780000700FEF71FFF03B030BD826810B5044636
:108790002AB143690168006998470023A36010BDAE
:1087A0000EB403B5039921B104AB01AA019300F003
:1087B0006FF802B05DF804EB03B07047826830B424
:1087C0000468551C8560A154D0E901329A4202D355
:1087D00030BCFFF7DABF30BC704700002DE9F84F1E
:1087E0009846DDE90A43154682460F460A464FF091
:1087F0000109AA420FD2C14538BFC14613F0010B8F
:1088000001D16CB900240126B8F1010F1BD908F180
:10881000FF386E43F8E709F10109B2FBF5F2E8E72A
:108820009B070ED5B8F1000F0CBF30262026A145BE
:10883000E9D2013C31465046FFF7C0FF002CF6D18B
:10884000E0E72026F3E7B7FBF6F39D42E1D9DFF836
:108850003C80B7FBF6F3504618F8031006FB13777D
:10886000FFF7ACFF3346AB42B6FBF5F6F1D2BBF1F6
:10887000000F02D00CB1A14501D3BDE8F88F202133
:108880005046013CFFF79AFFF4E700BFDCF9020015
:108890002DE9F74F054617468846002900F042812A
:1088A00018F8011B49B92B7B002B00F03B812846AF
:1088B00003B0BDE8F04FFFF768BF252940F0B7804F
:1088C000002698F800302D2B424608F1010823D0ED
:1088D000302B24D02B2B25D000242A2B02F1010190
:1088E00023D13B681A1D1B683A601C440A46137862
:1088F0002E2B26D101324FF0000A104610F8011B32
:10890000A1F1300CBCF1090F1DD80A2303FB0A1397
:10891000A3F1300A0246F0E746F00106D1E746F03F
:108920000206CEE746F00406CBE711F8013CA3F1BE
:1089300030000928DBD80A2202FB0434303C0A4606
:10894000CBE74FF0000A12F8011B01F0FB0068288A
:108950009046F8D0782909D86F290CD8632962D0BD
:1089600022D8252963D0582900F0888098F8003053
:10897000002B95D197E770390829F7D801A353F850
:1089800021F000BFFF8A02006D8902006D8902009C
:108990008D8A02006D8902006B8A02006D890200D7
:1089A0006D8902007D8A0200642901D06929DDD128
:1089B0003A68D2F80090111D89EAE9723960A2EB99
:1089C000E9724FF0010B092A35DCD34538BFD34695
:1089D0002CB1B9F1000F01DB720700D5013CB307E0
:1089E00002D5BAF1000F03D0F00701D44CBB00242C
:1089F000B9F1000F2DDAC9F100092D212846FFF742
:108A0000DDFE06F00302022A04D1BAF1000F01D103
:108A10001CBB0024CDE9004653460A22494628469D
:108A2000FFF7DCFEA2E73B681A1D19783A6028467A
:108A3000FFF7C4FE9AE70A230BF1010BB2FBF3F236
:108A4000C1E7A345D4D220212846013CFFF7B6FE5A
:108A5000CCE77107D5D52B21D0E7A345DAD2302159
:108A60002846013CFFF7AAFED2E73968CDE9004667
:108A70000A1D3A6053460A220968D0E739680A1D80
:108A80003A60CDE9004653461022F5E73B681A1DCF
:108A90003A6016F00106D3F8009028D1B9F1000F22
:108AA00003D0484606F0ECFD0646B44200D904BBAC
:108AB00009F1FF3919F8011F00293FF457AF284683
:108AC000FFF77CFEF6E728460136FFF777FE19F838
:108AD00006100029F7D1A642BFF448AF002C3FF49E
:108AE00045AF20212846013CFFF768FEF3E700264A
:108AF000EDE720212846013CFFF760FED5E73B6803
:108B00001A1D3A60302128461C68FFF757FE78216D
:108B10002846FFF753FE00220823CDE90032214604
:108B200010227CE703B0BDE8F08F00BF13B50B4601
:108B3000114670B90E4B0F4A18880E2300930E4B46
:108B400000040E4940F00100FDF79BFF0E2002B02B
:108B500010BD3BB9064B0A4A18880E230093000447
:108B6000054BEEE703601B6802B0BDE810401847F4
:108B700050220020ECF9020082FB0200F1F9020011
:108B800020FA02002DE9F34178B9354B354A1888AF
:108B9000354B0E2400040094344940F00100FDF7E9
:108BA00070FF204602B0BDE8F0813AB92C4B304A44
:108BB00018882D4B0E2400040094EDE7D0F800E057
:108BC000BEF1000F07D1264B2A4A1888264B0824ED
:108BD00000040094E0E73BB9214B274A1888224B58
:108BE000092400040094D7E74568D5F80480B3FB56
:108BF000F8F508FB15353DB1194B204A18881A4B7A
:108C0000092400040094C7E78D0707D0144B1C4AC1
:108C10001888154B102400040094BDE712F0030FD0
:108C200007D00F4B174A18880F4B102400040094EC
:108C3000B2E7C568A9420BD34D1EEC180569AC42DA
:108C400006D8DEF80C40A44602B0BDE8F04160470B
:108C5000034B0D4A1888044B1024000400949BE732
:108C600050220020ECF9020094FB0200F1F902000E
:108C70006EFA02001AFA02002DFA020074FA0200DB
:108C80009EFA0200B6FA0200D9FA0200F7B570B9EE
:108C9000254B264A1888264B0E24000400942549AB
:108CA00040F00100FDF7EDFE204603B0F0BDD0F826
:108CB00000C0BCF1000F07D11B4B1F4A18881C4B8A
:108CC000082400040094EAE73AB9174B1B4A1888B5
:108CD000174B092400040094E1E74768D7F800E047
:108CE0000EF1FF370F4207D00F4B154A1888104B73
:108CF000102400040094D2E7C768B9420CD3046979
:108D00004D1E0EFB0255A54206D8DCF81040A446C5
:108D100003B0BDE8F0406047034B0A4A1888044B93
:108D2000102400040094BAE750220020ECF902005D
:108D3000A7FB0200F1F902001AFA02002DFA020064
:108D400000FB020026FB020070B550B90E4D0F4C1F
:108D50000026641B1423B4FBF3F4B44208D10020B2
:108D600010E00368002BF1D0BDE87040DB691847C4
:108D70002B6813B901361435EFE7DB6928469847AD
:108D80000028F7D070BD00BF6422002078220020A8
:108D900029DF704728DF704770B503689E6886B08A
:108DA00004460D466EB114220021684606F013FCFD
:108DB000A3680593237901952BB1012B0DD068464B
:108DC000B04706B070BD01238DF8003023690293CF
:108DD000E368039363690493F1E702238DF800309D
:108DE000E3681B030293F5E70846704700207047CD
:108DF000024B187A003818BF01207047782B0020EA
:108E0000034B187A0122B0FA80F05A744009704777
:108E1000782B002008B510461A4606F0B3FB002058
:108E200008BD000008B514220021044806F0D3FB59
:108E30000348FFF7FFFA002008BD00BF782B002091
:108E4000B822002010B5094C094B43602046FFF7BB
:108E50003EFC40B906F040F9064920741C23064840
:108E60008C22FFF7D4FA002010BD00BF782B002021
:108E7000C8FB0200EC2A0020B822002070B5244C68
:108E8000244E237A25463BB923492448FFF72EFB7D
:108E9000306008B9606070BD022334682B7223799A
:108EA00073B1012B24D020460321FFF775FF002367
:108EB0002B726B6018491948BDE87040FFF741BB41
:108EC000D4E90523D21AB2F5805FD4E9031028BF94
:108ED0004FF480529208012A38BF012219441844E5
:108EE000FFF756FF50B11128DDD101232B72D2E7D5
:108EF000D4E903031844FFF74DFFF3E72B7C002B65
:108F0000C9D10146BDE87040022000F009B800BF99
:108F1000782B0020902B00208C2B0020B8220020E2
:108F200038B5831E012B45D8234C237A002B41D022
:108F3000022B09D1032830D0204B00221B68E260AD
:108F40001A793AB1012A22D0637C7BBBBDE8384054
:108F5000FFF794BFD3E905128D1AB5F5805F94BF72
:108F6000521902F580529A619142EDD102284FF0D8
:108F7000000308BF19462372104B18BF0D21186853
:108F8000FFF70AFF0E490F48FFF7DBFADCE71A6923
:108F900001321A615B699A42E7E7E3680133082B03
:108FA00001D8E360D0E70023E360DFE7BDE83840A5
:108FB00006F082B838BD00BF782B0020902B00202F
:108FC0008C2B0020B822002000F0FD03012B08D1DB
:108FD000044B00225A74421E504250411874FFF74D
:108FE0004DBF7047782B002010B5064C201DFFF7B1
:108FF0006EFB28B9637C1BB9BDE81040FFF73EBF8C
:1090000010BD00BF782B00202DE9F34180460D46AE
:109010000F4801A916461F46FFF72EFA0446A8B1CD
:109020001C22002106F0D7FA2D0B0123237101A980
:109030000748C4F80080A760E5606661FFF746FA5C
:10904000FFF7D2FF002002B0BDE8F0810420FAE76C
:10905000B82200202DE9F74381468846104801A92F
:1090600017461E46FFF708FA0446B0B11C2200213D
:1090700006F0B1FA00250A9BA36001A9C4E90378B0
:1090800007482571C4F800906661FFF71FFAFFF7E3
:10909000ABFF284603B0BDE8F0830420FAE700BF29
:1090A000B8220020FFF71CBBF8B546790146721EB6
:1090B0000546002393422D6803D30024A64202D81C
:1090C000F8BD0133F6E70F682846FFF744FB01348B
:1090D0003946F3E72DE9F843868ACD1C0746FFF7AA
:1090E00016FB043E35440446B5FBF6F5F0B14FF4EB
:1090F0008073EDB28380C680013D076081464FF0EA
:109100000008A84512D23846FFF701FB064648B1D1
:1091100063790133637108F10108C9F80000076041
:109120008146EEE72046FFF7BFFF34462046BDE804
:10913000F88301210430FFF7B2BA10B501210446CB
:109140000430FFF7B8FA10F0FF0F04D12046BDE855
:109150001040FFF7A9BF10BD2DE9F843B0F8068015
:1091600004330546B3FBF8F40F46164608FB1433E8
:109170003CB9A8EB0309B14528BFB14626B9BDE803
:10918000F8832D68013CF3E70433E818A6EB0906E1
:109190004A46391906F0F6F9B0454C442D68C146E7
:1091A0004FF0000328BFB146E8E72DE9F843B0F8D7
:1091B000068004330546B3FBF8F40F46164608FB59
:1091C00014333CB9A8EB0309B14528BFB14626B911
:1091D000BDE8F8832D68013CF3E70433E918A6EBFA
:1091E00009064A46381906F0CDF9B0454C442D68B9
:1091F000C1464FF0000328BFB146E8E741DF7047A2
:10920000064B10B500241C70054B1C60BFF35F8F2C
:109210000449054800F030F8204610BD9C2B002082
:10922000A02B002000FC0200942B002007B5002397
:109230000DF107008DF80730FEF7A0F9F1EE103AB6
:1092400023F09F03E1EE103ABFF35F8F094B4022FA
:10925000C3F884219DF80700FEF7B4F905F03CFF40
:1092600020B1FFF7CBFF03B05DF804FB20BF40BF88
:1092700020BFF8E700E100E00B684A6843609342D2
:1092800008BF0023016008BF43607047436843B1D3
:109290000268916852680B449342436004BF002304
:1092A0004360704710B50D49A1F59472914201D801
:1092B00000200FE08C1AE30F03EBE4035B1002EBDA
:1092C000C30452F83330834205D802D204F10802B5
:1092D000ECE7606810BD2146E8E700BF0401030029
:1092E00008B5FFF7DFFF024B002808BF184608BD8E
:1092F000C6FF02000C4B1B78062B10D10B4B1B68D2
:109300001A070CD10A4B186800F0F003302B08D074
:1093100000F0E000A0F1400358425841704700209F
:1093200070470120704700BFE00F00F0E40F00F02D
:10933000E80F00F0094B1B78062B0CD1084B1B687B
:109340001A0708D1074B186800F0F000A0F13003AD
:109350005842584170470020704700BFE00F00F0AE
:10936000E40F00F0E80F00F008B5FFF7C3FF28B1E5
:109370007D4B7E4A1B68C3F304231360FFF7DAFFBB
:1093800010B17B4B7B4A1A60FFF7B4FF28B17A4BD0
:109390007A4A1B68C3F342331360FFF7CBFF20B157
:1093A000774AD36823F08073D360FFF7A3FF40B1FF
:1093B0004FF080430022C3F80C21C3F81021C3F8FA
:1093C0003825FFF7B7FF10B16E4B03221A60FFF785
:1093D000B1FF40B16C4B05221A6001229A6700224E
:1093E0009A603F225A60694B1B78062B50D1684B1C
:1093F0001B6819074CD1674B1B6803F0F003502B17
:1094000046D14FF08052644BD2F80414C3F82015B3
:10941000D2F80814C3F82415D2F80C14C3F8281590
:10942000D2F81014C3F82C15D2F81414C3F8301560
:10943000D2F81814C3F83415D2F81C14C3F8401528
:10944000D2F82014C3F84415D2F82414C3F84815F0
:10945000D2F82814C3F84C15D2F82C14C3F85015C0
:10946000D2F83014C3F85415D2F83414C3F8601588
:10947000D2F83814C3F86415D2F83C14C3F8681550
:10948000D2F84014C3F86C15D2F84424C3F8702500
:10949000FFF730FF28B1414B414A1B6803F04F03EF
:1094A0001360FFF727FF48B14FF08043D3F8002443
:1094B000D20744BF6FF00102C3F80024394B1B6888
:1094C000062B08D1384B1B68062B01BF374A13689F
:1094D00043F480631360364AD2F8883043F4700353
:1094E000C2F88830BFF34F8FBFF36F8F4FF0102358
:1094F000D3F80022002A03DBD3F80432002B2FDA42
:109500002C4B0122C3F80425D3F80024002AFBD0F9
:109510004FF010221521C2F80012D3F80024002ABF
:10952000FBD04FF010231522C3F80422214B1A461A
:10953000D3F800140029FBD00021C3F80415D2F899
:109540000034002BFBD0BFF34F8F19491A4BCA6868
:1095500002F4E0621343CB60BFF34F8F00BFFDE71F
:10956000164B174A1A6008BD24030010403501400D
:1095700074C007400DF0ADBA440200103C05004035
:10958000F0ED00E0A005004010560040E00F00F0B4
:10959000E40F00F0E80F00F000C000405802001097
:1095A000E40E004030010010340100103C17004070
:1095B00000ED00E000E001400400FA05CC220020AC
:1095C0000090D003054A4FF0A043105CD3F8043557
:1095D00023FA00F0C04300F00100704708010300C7
:1095E000044B1A5C012393404FF0A042C2F80C35A3
:1095F000704700BF08010300044B1A5C012393402D
:109600004FF0A042C2F80835704700BF08010300C0
:1096100008B50020FFF7F0FF0120FFF7EDFF022063
:10962000FFF7EAFFBDE808400320FFF7E5BF08B5F4
:109630000020FFF7D5FF0120FFF7D2FF0220FFF740
:10964000CFFFBDE808400320FFF7CABF074A4FF02D
:10965000A041105CD1F804350122824022EA0300C7
:109660001340C1F80805C1F80C3570470801030024
:10967000054A4FF0A043105CD3F8103523FA00F0F0
:10968000C04300F001007047040103000D2809D019
:109690000E2809D00F2809D010280CBF03204FF046
:1096A000FF3070470020704701207047022070474C
:1096B000014B185C704700BF04010300C20708B5E6
:1096C00001460CD54FF0A0430322C3F84427C3F84A
:1096D0004827C3F84C27C3F85027FFF799FF8B079B
:1096E0000AD54FF0A0430C22C3F83427C3F838271B
:1096F000C3F83C27C3F8402708BD000038B5074C25
:10970000051E04F1080318BF1C4623682BB11A6814
:1097100022605B6828469847F7E738BDAC2B0020ED
:1097200020B9054B01225A70FFF7E8BF012802D18A
:10973000014A9070F8E77047A42B002020B9034B32
:1097400001225A70FFF7DABF704700BFA42B002038
:1097500038B50B4C237883B90A486360A360236152
:10976000E36000F0D3F8054605F0B6FC08B900F058
:10977000D9F801232370284638BD8525FBE700BFB3
:10978000A42B00202197020037B50B4C00230DF1CC
:1097900007008DF80730FDF7F1FEE368013BE36059
:1097A000E56815B900F0D2F8A5709DF80700FDF73F
:1097B00009FF03B030BD00BFA42B0020012813B562
:1097C00008D003281CD018B9104B0122C3F8802000
:1097D00002B010BD0E4C00230DF107008DF80730CC
:1097E000FDF7CCFE23780BB9FFF7B2FFE3689DF8D5
:1097F00007000133E3600123A370FDF7E3FEE7E711
:1098000000F090F8FFF7C0FFE2E700BF00E100E0E2
:10981000A42B00201FB503788DF800304368019316
:10982000037A8DF80830C368054A0393054B6846F0
:1098300053F8213052F82110984705B05DF804FB29
:10984000B82B0020BC2B00201FB503788DF800300A
:109850004368019383688DF80830C368054A039311
:10986000054B684653F8213052F82110984705B04F
:109870005DF804FBB82B0020BC2B0020F0B5194B81
:1098800090F800C091F81DE043F82C20164B1646C6
:109890000A6943F82C20154B03F80CE00C460746E8
:1098A0000FCC89B06D460FC594E80F0085E80F0016
:1098B000CDF810C0BEF1000F09D0002E0C4A694649
:1098C00008BF3246381D00F06DFD09B0F0BD002E16
:1098D000084A694608BF324607F10C0000F06CFBED
:1098E000F3E700BFBC2B0020B82B0020C02B0020CA
:1098F000159802004998020000F18040002382B0D0
:10990000036003680193019B02B07047044A137916
:1099100023B9012110609180184670478520704757
:10992000C42B0020084B1A68D20706D4E02283F823
:1099300000230122C3F880211A604FF080430122E6
:10994000C3F81825704700BF00E100E0044B012276
:109950001A604FF08042D2F81834DB03FBD4704712
:109960000C000040124B1B6810B573B14FF48070AF
:10997000FFF7C2FF4FF080430122C3F808230D4BCD
:10998000587910B95A711B6898470B4B1B6873B113
:109990004FF48270FFF7B0FF4FF080430222C3F80C
:1099A0000823044BBDE810401B680120184710BD78
:1099B00000010040C42B00200401004000F1804061
:1099C00000F5C040002382B0036003680193019B4F
:1099D00002B07047800000F1A040D0F8002722F4C8
:1099E0004032C0F80027D0F8003743EA0141C0F800
:1099F00000177047054B4FF0FF32072843F820202F
:109A000084BFC01880F84820704700BFCC2B0020CE
:109A100010B5184C94F8583053BB04F13003202192
:109A2000FF22013911F0FF0103F8012BF9D1C8B26F
:109A3000FFF7E0FF01310C29F9D1042200210E4883
:109A400005F0C9FD0D4BE02283F806234022C3F840
:109A500080214FF4BE701A60FFF7B0FF084B4FF043
:109A60000042C3F80423012384F85830002010BDBD
:109A70000820FCE7CC2B0020202C002000E100E097
:109A800000600040034B93F85800003818BF0120D5
:109A9000704700BFCC2B0020F0B5364D2C1894F940
:109AA0003040002C64DA8C78C4F34004002C0BBFE7
:109AB000082300230C260826B34201D10420F0BD60
:109AC00055F8237001373FD12E1845F8232086F82A
:109AD000303014B9EA1882F848008A78540713D451
:109AE000D60733D5820002F1A042D2F8004724F015
:109AF0000204C2F80047204EC20800F00707012404
:109B0000BC40B75C3C43B4548A780C7812F0020233
:109B100025D09B0003F1804303F5C0430202D3F834
:109B2000101521F4473121F44071C3F810152404B5
:109B3000D3F8101502F4F85204F4403422430A43D7
:109B4000C3F810250020BAE70133B5E74C7800F5DB
:109B5000E0724FF0A046A40046F82240CBE7083B55
:109B60002B4493F8501041EA841483F85040E9E7FD
:109B70000820A4E7CC2B0020202C002038B51F4C57
:109B8000251895F93020072A16DD224492F848302E
:109B90009B09032B0BD14FF0A043D3F81015C14004
:109BA00001F001010231BDE83840FFF713BF012B7E
:109BB0000CBF02210321F6E7D3B2072B1CD8930078
:109BC00003F1804303F5C043D3F8100540F00100D2
:109BD000C3F8100502F14000800080B2FFF7EEFEEE
:109BE00051B195F9303054F823302BB1012303FAE9
:109BF00002F2034BC3F8042338BD00BFCC2B002076
:109C0000006000404FF0A043D3F8103523FA00F075
:109C100000F00100704700002DE9F04F87B00024EC
:109C20005A4D03944FF48072012102F1804303F5F1
:109C3000C04390B21B68012B06D1D5F804330B4208
:109C400002D0FFF7BBFE0C430432B2F5907F4FEA1F
:109C50004101EAD14E4B1B68012B0AD14FF4BE7073
:109C6000FFF7ACFE4FF0A04344F00044D3F81035AA
:109C7000039314F0FF0F1AD0464F002501263442FB
:109C800010D0AB0003F1804303F5C043D3F81005B7
:109C9000D3F8101557F8253023B1C1F30141C0F3B3
:109CA000042098470135082D4FEA4606E7D1002CDD
:109CB00065DA00214FF0FF33CDE90413354D01275C
:109CC0004FF0000A344ED1464FF0A04816F9013B40
:109CD0005A1C45D0C3F3C20106AA5018DCB210F8D2
:109CE000042C03F03F0B03F0070307FA03F31A42B7
:109CF00036D005EB0B02A40992F9302055F822204A
:109D000052B9032C2CD10DF1100E1EF801C04CEAF3
:109D1000030C0EF801C001E0032CF4D00BF5E07148
:109D200010F80C0C58F821101842C1F3014105D06D
:109D3000022915D1032C0FD1214604E003290FD1AC
:109D4000032C09D102215846019209F10109FFF7BC
:109D500041FE019A5FFA89F912B1214658469047AF
:109D60000AF1010ABAF1040FB0D1B9F1000F06D01F
:109D70004FF0A043039AD3F81035934202D107B0B5
:109D8000BDE8F08F0393049B059399E700600040C2
:109D90007C610040CC2B00201C2C0020014B1B6858
:109DA000184700BF282C00200E4B984237B50C46B0
:109DB00002D0002003B030BD00230DF107008DF864
:109DC0000730FDF7DBFB084B1D7915B901221C603C
:109DD0001A719DF80700FDF7F5FB002DE9D0112061
:109DE000E8E700BF00200040282C0020034B9842E9
:109DF00001BF034B00221A601A7170470020004017
:109E0000282C00200023435082B043580193019B2B
:109E100002B070470A4610B54FF48E71FFF7F2FF9B
:109E2000136A9168C95C136A01331362C0F81C1588
:109E300010BD8B690A4610B54FF4847123B9FFF742
:109E4000E1FFD0F8183510BDFFF7DCFF536AD16889
:109E5000D0F81805C854536A01335362F3E7000081
:109E60001FB501238DF80030044BCDE90110D3E973
:109E700000126846904705B05DF804FB302C0020C6
:109E800030B54B48D0F8043313F4007F85B0054655
:109E90004DD0D0F82431002B49D04FF49271FFF708
:109EA000B1FF4FF40173C0F80833424B93F82920F7
:109EB0000AB9012242603E4902228DF80020D1F801
:109EC0008024C1F8802403929A690292DA68019290
:109ED0000022C3E906226846D3E9001290473448BD
:109EE000D0F81C315BB133490A6A4B699A420A4681
:109EF0004AD291F82830002B46D1FFF78BFF2C482F
:109F0000D0F844318BB14FF4A271FFF77BFF294B9E
:109F100093F829200AB1012202609A692AB100222D
:109F2000586AD9689A61FFF79BFF05B030BDD5F834
:109F300004335B07D3D5D5F80831002BCFD01D4CA7
:109F40001B482146FFF775FF636AA2699A422346C0
:109F5000C5D1E269E1684AB12369E3600023606A20
:109F6000A261E3616362FFF77BFFB8E794F8292001
:109F70000AB901226A600E4A4FF40170C2F8080360
:109F80000022586A9A61EEE74FF48E710848FFF795
:109F900039FF51690029B2D00023029191688DF8F0
:109FA0000030019153616846D2E900139847A6E753
:109FB00000200040302C00202DE9F8435A4B057951
:109FC00091462C2202FB0532064692F82A200C46C6
:109FD0009846002A40F0A48054490068FFF7E4FE48
:109FE0000746002840F09E8021683368481C0BD04B
:109FF0004FF0A04001228A40C0F8082501F5E07228
:10A000004FF0030C40F822C06068421C1FBF00F5EF
:10A01000E0724FF0A04C4FF0000E4CF822E0A26925
:10A02000C3F8242594F814C0627DBCF1010F4CEAFA
:10A030000202C3F86C25C3F81405C3F80C151DD132
:10A04000A1684A1C1FBF01F5E0724FF0A0404FF01D
:10A05000000C40F822C0E268501C0BD04FF0A04C1E
:10A0600001209040CCF8080502F5E0704FF0030E97
:10A070004CF820E0C3F80825C3F810152C236B43D7
:10A0800008EB0302C2F80490226948F80320B9F1F2
:10A09000000F32D03068227F4FF48E71FFF7B2FE8E
:10A0A00030684FF4A271FFF7ADFE33682049C3F862
:10A0B0000413190B43F30733002BA8BF03F16040CF
:10A0C0004FEA5313BCBF01F00F041A484FEA421283
:10A0D000A8BF00F561404FEA8303D2B203F16043A9
:10A0E000B4BF025580F8002303F5614301F01F015E
:10A0F00001228A40C3F880211A6033680422C3F821
:10A1000000252C2303FB05830022C3E9062283F8E4
:10A1100029205A61012283F82A203846BDE8F883B5
:10A120000827FAE71127F8E7302C0020819E02006B
:10A130008000020014ED00E0F8B5047900682C4DB1
:10A140000023C0F800352C2303FB04535B686BB17C
:10A15000284BC0F8083340F30733C0F304315B09E0
:10A1600001228A402033244941F82320D0F80C658D
:10A17000D0F81415D0F80835D0F810254FF0FF3777
:10A18000BE42C0F8147518BF06F5E076C0F80C752D
:10A19000C0F80875C0F810751EBF4FF0A0474FF00B
:10A1A000020C47F826C04E1C1FBF4FF0A04601F519
:10A1B000E071022746F82170511C1FBF4FF0A041EB
:10A1C00002F5E072022641F822605A1C1FBF03F517
:10A1D000E0734FF0A042022142F82310FFF706FE81
:10A1E0002C2303FB0454002384F82A306360F8BD59
:10A1F000302C00208402020000E100E02DE9F84349
:10A20000204B07794FF02C0909FB07340546666996
:10A210009846002E33D100686261A16026624FF437
:10A220008E7184F82860FFF7EDFD286801238360B4
:10A230002146FFF7EFFD6368A14683B92868226ACB
:10A2400063699A4211D32B68D3F81C21002AFBD0F2
:10A250000122DA602C2303FB078300225A61304677
:10A26000BDE8F88394F828303BB9D0F81C31002BB6
:10A27000F8D04946FFF7CEFDE1E70F26EAE71126C1
:10A28000EDE700BF302C00200023435082B043583C
:10A290000193019B02B070471FB501238DF8003078
:10A2A000054B8DF8080001916846D3E900129047EC
:10A2B00005B05DF804FB00BF5C2C00207FB5374A79
:10A2C000D2F82461002E47D010464FF49271FFF768
:10A2D000DBFF02238DF80030D2F88034C2F88034DE
:10A2E0000393D2F83C358DF808302D4BDA68019293
:10A2F0000022C3E906226846D3E9001290472748A6
:10A30000D0F844316BB14FF4A271FFF7BDFF244B7D
:10A310009A6932B100229A61D0F83C05D968FFF7FA
:10A32000BBFF1E48D0F82031A3B14FF49071FFF766
:10A33000ABFF1B4B5A696AB1D0F84C158DF8081069
:10A34000002299688DF8002001915A616846D3E98E
:10A350000012904704B070BDD2F81031002BCED05F
:10A360004FF488711046FFF78FFF0D4BD2F83C0574
:10A3700099698842C3D1DC69D96864B1D2F80052C6
:10A3800025F02005C2F800521A699C61DA60DE618E
:10A39000FFF782FFB3E79C61FAE700BF00200040AF
:10A3A0005C2C00202DE9F8435E4B0679914624226F
:10A3B00002FB0632044692F820200D469846002AF9
:10A3C00040F0AC8058490068FFF7EEFC07460028D3
:10A3D00040F0A68029682368481C0BD04FF0A040AD
:10A3E00001228A40C0F8082501F5E0724FF0030C05
:10A3F00040F822C06868421C1FBF00F5E0724FF0B1
:10A40000A04C4FF0000E4CF822E0AA69C3F82425B6
:10A4100095F814C06A7DBCF1010F4CEA0202C3F842
:10A420006C25C3F80C15C3F814051DD1A9684A1C86
:10A430001FBF01F5E0724FF0A0404FF0000C40F854
:10A4400022C0EA68501C0BD04FF0A04C0120904075
:10A45000CCF8080502F5E0704FF0030E4CF820E050
:10A46000C3F80825C3F810152423734308EB03022F
:10A47000C2F804902A6948F80320B9F1000F3CD0D3
:10A4800020682A7F4FF48871FFF7FEFE20684FF4A2
:10A490009071FFF7F9FE20684FF49271FFF7F4FE18
:10A4A00020684FF4A271FFF7EFFE23681F49C3F83D
:10A4B0000413190B43F30733002BA8BF03F16040CB
:10A4C0004FEA5313BCBF01F00F0519484FEA42127F
:10A4D000A8BF00F561404FEA8303D2B203F16043A5
:10A4E000B4BF425580F8002303F5614301F01F011A
:10A4F00001228A40C3F880211A6023680822C3F829
:10A500000025242303FB06830022C3E906225A61A7
:10A51000012283F820203846BDE8F8830827FAE7AF
:10A520001127F8E75C2C0020BDA2020010030200F6
:10A5300014ED00E0F8B5047900682C4D0023C0F854
:10A540000035242303FB04535B686BB1284BC0F830
:10A55000083340F30733C0F304315B0901228A401A
:10A560002033244941F82320D0F80C65D0F8141585
:10A57000D0F80835D0F810254FF0FF37BE42C0F8AC
:10A580000C7518BF06F5E076C0F81475C0F80875AC
:10A59000C0F810751EBF4FF0A0474FF0020C47F8EF
:10A5A00026C04E1C1FBF4FF0A04601F5E0710227E8
:10A5B00046F82170511C1FBF4FF0A04102F5E07218
:10A5C000022641F822605A1C1FBF03F5E0734FF0CA
:10A5D000A042022142F82310FFF708FC242303FBCA
:10A5E0000454002384F820306360F8BD5C2C002004
:10A5F0001003020000E100E001F06043B3F1005FEE
:10A600002DE9F041064632D11B4B0779242505FB85
:10A61000073598466C6964BB6A610068A9604FF4AD
:10A620009071FFF731FE4FF4AC713068FFF72CFEEC
:10A6300033686A69A968C3F84415C3F8482501223C
:10A640009A606A6862B9D3F82021D3F8584152B9A8
:10A65000002CF8D00F24242303FB078700237B6101
:10A660002046BDE8F081002C18BF0F24F3E710242A
:10A67000F6E71124F4E700BF5C2C002000F18040D5
:10A6800000F5E040002382B0036003680193019B62
:10A6900002B07047F0B5504B504C1B6885B0002B92
:10A6A0003DD04FF4827094F82E20FFF7E7FF2AB3D5
:10A6B00094F82F3013BB4A4B1B68002B33D04FF458
:10A6C0008070FFF7DBFF638B94F82D108B424FD91E
:10A6D00022895B1A9BB292B26383D31A626802EB3F
:10A6E0004303404AC2F82C36C2F830164FF4827049
:10A6F000FFF7C4FF3C4B01221A6014E06368029329
:10A700002389ADF80C30E36800218DF8041023BBD9
:10A710002374236801A89847002384F82F3094F805
:10A720002E30002BC7D1314B1B685BB14FF48870C2
:10A73000FFF7A4FF0023237402238DF8043001A83F
:10A74000236898472A4B1B68EBB14FF48A70FFF7D8
:10A7500095FF0023237405B0F0BD208B60836360F8
:10A760002081E160002AD4D11E4B01221A60D0E77B
:10A77000BCD1E368012284F82F2013B10022628348
:10A78000AFE76383B2E766694FF000470125002E0B
:10A79000E1D0B6FA86F227FA02F34632920026EAB0
:10A7A000030602F1804303F5E0431B68002BEED063
:10A7B0001046FFF763FFA2F58C72D30882F0040203
:10A7C000C2F380028DF808308DF8045023688DF8AC
:10A7D000092001A89847DAE704710040802C002086
:10A7E0000071004000700040047000401071004093
:10A7F0001471004038B51D4B044693F82C0098BBEB
:10A800001B4A19602178C2F8F0156178C2F8F41576
:10A81000E5781874012183F82C1083F82D00586115
:10A8200083F82F0083F82E506FF00043C2F80833EE
:10A830004FF48270FFF722FF4FF48070FFF71EFF86
:10A84000A3780C485B01DBB280F807338023C0F8A3
:10A85000803103600223C2F804330DB1C2F804133F
:10A86000C2F80015002038BD0820FCE7802C00202D
:10A870000070004000E100E070B52C4B1A7C02F043
:10A88000FF05002A4FD10A79012A9CBF284CC4F841
:10A89000005500F10C0503EB4504247924B993F825
:10A8A0002D40013483F82D4003EB4503CC790D7A1C
:10A8B0008E781C715D714B7836021B0106F4E066E0
:10A8C00003F0300333430E7806F003063343CE78AB
:10A8D000360306F480563343160406F4E026334369
:10A8E0004E798979360506F480160906334301F05E
:10A8F00080710B430E4901EB0016000100F180400E
:10A9000000F5E040012AC6F81835C0F81455C0F823
:10A910001045C0F81455C0F8104502D80123C1F8FD
:10A920000035002000E0112070BD00BF802C002009
:10A930000070004070B5264A264B05461220C2F82A
:10A9400008031C7C022C03D1C2F80403112070BD43
:10A95000187C01281DD1D86818B10223C2F804332D
:10A96000F4E7DD60198393F82E3063B91A4A13684F
:10A97000002BFCD04FF48070FFF780FE144BC3F81F
:10A980002C56C3F83016124B0222C3F804230020C1
:10A99000DDE7022093F82E40C2F8040301260020D0
:10A9A0001E745D601981D8603CB1598393F82D30D5
:10A9B000C2F82C56C2F83036C9E7C2F82C564FF40C
:10A9C0008070C2F83016FFF759FE20461660BEE7C9
:10A9D00000700040802C002000710040084A117C6B
:10A9E0000129CBB209D192F82E0018B1054A0020F6
:10A9F00013607047044A136070470820704700BF17
:10AA0000802C002000700040047000400220FEF7FF
:10AA10001DBE00002DE9F04780460D46FEF736FECC
:10AA20000328044610D8012D10D0022D30D05DB976
:10AA30001A48FCF793FD1A4B04EB440213449E782A
:10AA4000184B1B5DB34219D0BDE8F087144D00EBE5
:10AA50004002A918AE5C4A78470052B1DFF84C902A
:10AA60000E484A464FF40041FCF730FD08B989F81A
:10AA700000803B192B449A780A4B1A55002EE3D0DC
:10AA8000094B1B68002BDFD03046BDE8F047184764
:10AA900000EB4004024804446678EFE7D42C002021
:10AAA000142D00202D2D0020282D0020B02C00205A
:10AAB00000780221FFF7AEBF08B5094B1B7853B1F0
:10AAC0000020FEF799FD0120FEF796FDBDE8084045
:10AAD0000320FEF791BDBDE80840FEF799BD00BF19
:10AAE000B12C0020F8B5794C237805461BB1002322
:10AAF0002370FFF7E1FF172D00F28480DFE805F0F7
:10AB00000C13133F5061727C8489848991969696C8
:10AB10009696C0C5CDD5E0E0FFF7CEFF6C4B002484
:10AB20001C702046F8BD0020FEF74CFDF8B1002057
:10AB3000FEF762FD022D0CBF4FF4E1614FF47A6124
:10AB4000634B1D704FF400404FF4FA740025E0FB96
:10AB500001454FF47A7200232046294604F01AFC7E
:10AB600000220146BDE8F8405A48FCF7AFBCFEF7AA
:10AB700037FD022D0CBFC8214FF4C871E0E700205B
:10AB8000FEF720FD40B10020FEF736FD4FF448717E
:10AB90004F4B03221A70D5E7FEF722FDC821F7E7D5
:10ABA0000020FEF70FFD38B10020FEF725FD4FF421
:10ABB0007A61474B0422EDE7FEF712FD4FF4C871AE
:10ABC000F7E70020FEF7FEFC48B10020FEF714FD79
:10ABD0003F4B05221A7041F69A110022C2E7FEF798
:10ABE000FFFCF5E70020FEF731FD394B06221A7015
:10ABF000002240F6CD41B5E70020FEF7F1FC344BD2
:10AC000007221A7000248CE701202070FEF71EFD39
:10AC1000EEE701202070FEF719FD00224FF480417D
:10AC2000A0E7FEF704FD2A4B0C22EAE72A482B4E48
:10AC3000FCF794FCD5F1110504461CD0D8B9012DC0
:10AC400013D0C8235D434FF400474FF4FA7000213E
:10AC50004FF47A720023C7FB050104F09BFB2246E8
:10AC600001461D48FCF732FC04460220FEF7B8FC02
:10AC70000123337055E70220FEF7BEFC0023F8E7FE
:10AC8000FFF71AFF124B1222BBE7FFF715FF002058
:10AC9000FEF7A6FC0E4B1322B3E7FFF70DFF0120D2
:10ACA000FEF79EFC0A4B1422ABE7FFF705FF0020DE
:10ACB000FEF796FC0120FEF793FC054B1522A0E75A
:10ACC000FEF7B5FC024B1D709CE700BF242D002051
:10ACD0002C2D0020F42C0020B42C0020B12C0020BE
:10ACE000044B1B68DB0703D5034B1878FFF7FABE4C
:10ACF000704700BF202D00202C2D0020032801D8F4
:10AD0000FEF7B6BC00207047044B1B6813F001032C
:10AD100001D0FFF7E7BE1846704700BF202D002086
:10AD200038B51C4B18601C4B10F002040546196026
:10AD30001AD01A4B1A480E221A700F22DA701022FB
:10AD40009A7111225A72042140F26662FCF7BAF835
:10AD5000044648B9FCF70AF9044628B90146114AE5
:10AD60001148FCF7A1FB0446EB0711D50120FEF7C3
:10AD7000A5FC6CB921460D4A0D48FCF795FB04462D
:10AD800030B9BDE838400B4A0B480121FCF78CBBB9
:10AD9000204638BD202D0020282D0020142D002015
:10ADA00034010300B1AA020058010300E1AC020023
:10ADB0005C0103000DAA020054010300032811D80E
:10ADC000012A0AD101290FD100F10E02D2B20D4B96
:10ADD00000EB40001A54002070470129F7D00229E7
:10ADE00004D049B1072070470022F8E7054B00EB7B
:10ADF000400018444270EEE7024B00EB400018445C
:10AE00008270E8E7142D0020032808B512D8FEF759
:10AE10004FFC800000F1A040D0F8003723F440330D
:10AE2000C0F80037D0F8003743F44033C0F800379B
:10AE3000002008BD0620FCE708B501220221002001
:10AE4000FFF7BCFF08B1072810D10722022101201B
:10AE5000FFF7B4FF08B1072808D100210A220846ED
:10AE6000FFF7ACFF10B1072808BF002008BD0000A5
:10AE70000388102B10B502D0112B1ED010BD1A4C18
:10AE80002168B1B901220846FFF798FF08B10728E9
:10AE900024D1072202210120FFF790FF08B10728E3
:10AEA0001CD1042202210020FFF788FF08B10728E7
:10AEB00014D1236801332360E0E70B4A1368013B98
:10AEC0001360002BDAD1FFF7B7FF0028D6D0074B6D
:10AED0001B68002BD2D0BDE810401847034B1B68FD
:10AEE000002BE6D09847E4E7382D0020342D0020D1
:10AEF00008B50020FFF788FF08B1062806D1012019
:10AF0000FFF782FF10B1062808BF002008BD00002F
:10AF10000D4B10B518600C4629B10120FFF7EEFE6D
:10AF200040B102232370094B1B6853B9BDE81040A0
:10AF3000FFF782BFFFF7E2FE08B10B23F2E72070B4
:10AF4000F1E7002010BD00BF342D0020382D002077
:10AF500076DF70477ADF70477CDF70478FDF70479E
:10AF600033DF70474CDF7047FCF716B807B5002396
:10AF700001A80193FFF7F6FF019B0C48002BB8BF17
:10AF800003339B1001A9019300F0C4FB4FF0A042D2
:10AF9000D2F80435D94301F4801103F48013C2F8C8
:10AFA0000815C2F80C3503B05DF804FB502E0020E4
:10AFB00008B50020FFF7A8FE08B1FBF7EDFFFFF78B
:10AFC00097FF08B1FBF7E8FFFFF7CAFF18B1BDE82C
:10AFD0000840FBF7E1BF08BD0388212B13B50446E9
:10AFE00031D005D8102B15D0112B0AD002B010BDCE
:10AFF0003B2B01D0562BF9D1A0881321FFF7A8FFD6
:10B000001CE0154B15491888000440F00300FBF7BD
:10B0100021FDEBE7104B12491888000440F00300B3
:10B02000FBF718FD0720FFF76FFE08B1FBF7B4FF31
:10B030000C4BA1880C48198002F0A6F90028D5D045
:10B04000FBF7AAFFD2E7002301A98088ADF80430FE
:10B05000FFF784FFF2E700BF382200206001030001
:10B060006E010300D4220020642E002008B503786E
:10B070004BB9054B3B211888FFF76AFF18B1BDE8B3
:10B080000840FBF789BF08BDD422002010B5037823
:10B0900023BB4068124CB0F9003023800121FFF738
:10B0A00049FC08B1FBF778FF23880E494FF416726C
:10B0B00013FB02F3002BB8BF03F2FF339B1203EB29
:10B0C00043035A00084B92B21A80084B18880004B8
:10B0D000BDE8104040F00300FBF7C0BC10BD00BF4E
:10B0E0003C2D0020790103003E2D00203822002055
:10B0F000072808B513D00A280DD0042819D10D4B04
:10B1000013211888FFF724FF30F0080311D0BDE8A1
:10B110000840FBF741BFBDE80840FFF749BF054BBA
:10B120001A884FF6FF739A4203D1034801F048F89A
:10B13000EAE708BDD4220020402D002008B588B1E0
:10B14000032813D10A4B0B491888000440F0030070
:10B15000FBF780FC0220FFF7D7FD38B1BDE80840BF
:10B16000FBF71ABFBDE80840FFF722BF08BD00BFCC
:10B17000382200208501030008B50548032100F0AE
:10B18000C0FE18B1BDE80840FBF706BF08BD00BF10
:10B19000402D002030B5037885B004460D2B10D823
:10B1A000DFE803F0070F110F220F2A390F350F398F
:10B1B00032391A4B1A491888000440F00300FBF793
:10B1C00049FC05B030BD154B40881D8801F0F4F9ED
:10B1D0002D04237A009345F0030502466388114944
:10B1E0002846FBF74EFCECE7002340888DF80C3036
:10B1F00003A902F09FFEE4E7FDF7B6F830F008037C
:10B20000DFD0FBF7C9FEDCE7FFF7B6FFD9E700693F
:10B210000028D6D0F5E78068FAE700BF3822002082
:10B2200097010300C0010300FBF7B6BE08B5FFF7A6
:10B23000D5FB4FF0A0420848D2F80435D94301F4B9
:10B24000002103F40023C2F80815C2F80C350349A5
:10B25000BDE8084000F081BA502E00203E2D0020AD
:10B260001FB50F4A10685168127A01AB03C30D492C
:10B270000D481A70FFF7BEFA08B1FBF78DFE01A961
:10B280000020FFF7F9FA08B1FBF786FE0748012115
:10B29000FFF750FB08B1FBF77FFE05B05DF804FB3C
:10B2A000230203008DB002002C020300F82D0020C1
:10B2B00000B54FF40041ADB00020FBF713FA08B120
:10B2C000FBF76AFEFBF732F9FCF7BEF808B1FBF7B3
:10B2D00063FE7D4A7D480121FCF7E6F801217C4AA6
:10B2E0007C48FCF7E1F87C490320FFF719FD08B121
:10B2F000FBF752FE01A90020FFF70AFE08B1FBF799
:10B300004BFE9DF80440FDF77BFF08B1FBF744FEC0
:10B3100003F05CFE08B1FBF73FFE002301A901200A
:10B32000019303F023FF08B1FBF736FE01A803F0F9
:10B33000C7FF08B1FBF730FE112368488DF80030D5
:10B3400004F09EF9654982B26846FFF705FE08B130
:10B35000FBF722FE0021082201A804F03CF9604915
:10B360004FF0C87301A8CDE90113FFF7F3FD08B151
:10B37000FBF712FE5B48002101F004FF08B1FBF768
:10B380000BFE594B5948019301A901F0EBFF08B19D
:10B39000FBF702FE564800F0D9F8AC22002101A8C4
:10B3A00004F019F902238DF8043040F20163514A88
:10B3B000ADF806300123ADF8503015928DF880308D
:10B3C0004FF4967244F25063CDE923234A484B4B25
:10B3D0002A9301A900F023FD08B1FBF7DDFD4648E3
:10B3E000012100F019FD1C22002101A804F0F3F84E
:10B3F00000234FF42032CDE90132ADF812304FF482
:10B4000070228DF814303E4B0392069303223D4B7D
:10B410008DF8102001A8079300F0EEFF08B1FBF7AC
:10B42000BBFD02F033FD08B1FBF7B6FD052200219C
:10B4300001A804F0D0F8019B03F07C42324B134387
:10B4400001939DF8083023F0030343F0030301A8A0
:10B450008DF8083002F064FD08B1FBF79DFD2B4824
:10B4600002F046FD08B1FBF797FD294DFFF7F8FE06
:10B4700028882849000440F00300FBF7EBFA00227B
:10B480004FF400412448FCF721F8244800224FF4EF
:10B490000041FCF71BF8022C12D128882049000437
:10B4A00040F00300FBF7D6FA02F052FD08B1FBF7BB
:10B4B00073FDFBF77BF90028FBD1FDF7B7FEF8E73A
:10B4C000FFF75AFEF5E700BF6DAF02003002030040
:10B4D0002DB2020034020300F1B0020000020300AA
:10B4E0005000A000FC2D002069AF0200642E002057
:10B4F000502E0020D0220020402D00203DB102001F
:10B500006DB0020029B202003107100395B10200AC
:10B510003822002005020300302E0020102E0020CB
:10B5200016020300A8DF7047AADF7047AEDF70473E
:10B5300062DF70470388102B02D0112B03D07047B5
:10B5400083880B8070474FF6FF73FAE7F0B5704BB6
:10B55000A9B008AA03F11007044694463E461868AD
:10B560005968154603C50833BB422A46F7D14FF246
:10B570000D030DF116016046ADF81430FFF7D8FF4A
:10B5800008B1FBF709FD22464FF6FF7322F8023B94
:10B5900005A90120FFF7C6FF08B1FBF7FDFC0CAAC7
:10B5A0005B4B174618685968154603C50833B34204
:10B5B0002A46F7D14BF6EF630DF11A013846ADF884
:10B5C0001830FFF7B5FF08B1FBF7E6FC4BF20B03B1
:10B5D0000DF11E013846ADF81C30FFF7A9FF08B188
:10B5E000FBF7DAFC1C2200211AA803F0F4FF9DF8F7
:10B5F00068301C2243F00203002121A88DF8683036
:10B6000003F0E9FF9DF8843001AE43F0020303220A
:10B61000002130468DF8843003F0DDFF9DF80630C0
:10B620001F96012565F342038DF806309DF86830BA
:10B6300002AE41F2111743F01003032200213046FD
:10B64000ADF804708DF8683003F0C5FF9DF80A303E
:10B65000ADF8087065F342038DF80A309DF8843028
:10B66000269603AF43F010030322002138468DF8DD
:10B67000843003F0B0FF9DF80E3004AE65F3420352
:10B680000322002130468DF80E3003F0A4FF9DF810
:10B69000123065F342038DF8123014221123002179
:10B6A00010A88DF80C308DF8103003F094FF06AB25
:10B6B0001422002115A8CDE9103703F08CFF07AB49
:10B6C000CDE9153600238DF800300223ADF8603047
:10B6D000ADF85C306088ADF84C50231D10AA1AA953
:10B6E000ADF84850CDF850D0CDF864D0FFF71CFF2E
:10B6F00008B1FBF751FC608804F10C0315AA21A9DD
:10B70000FFF712FF08B1FBF747FC29B0F0BD00BFFF
:10B710003802030070B502884FF6FF739A4286B074
:10B7200004460D4617D001260021102202A8ADF8CC
:10B73000066003F050FFA388ADF808300023ADF891
:10B740000C3020888DF80A600DF1060302A9CDE9BE
:10B750000435FFF7EBFE06B070BD30B502884FF63A
:10B76000FF739A4287B004460D4618D00223002189
:10B77000102202A8ADF8063003F02DFFA389ADF822
:10B78000083001238DF80A300023ADF80C302088F2
:10B790000DF1060302A9CDE90435FFF7C7FE07B096
:10B7A00030BD0369C1688B429DBF8268D21802F127
:10B7B000FF3203F1FF3394BF501A581A70472DE936
:10B7C000F843D0E902940546A9EB04084068904587
:10B7D00020440F46144404D903F0D4FEEC60BDE8C5
:10B7E000F8834246A4EB090403F0CCFE68682246C5
:10B7F00007EB0801F0E72DE9F843C56806468946DE
:10B8000017464FF000083469B3687068A54228BF36
:10B81000E418013C621B5C1BBC4228BF3C469442BE
:10B8200028BF144649462844224603F0ABFEB368BD
:10B830002544AB4208BF00253F1BA044A144F5604E
:10B84000E1D14046BDE8F88310B5114C114AA26120
:10B850000223C4E90433104BE361A2644FF4007384
:10B860000E4A0F492362E26400231022E01DA36206
:10B870006362E362A3656365E365226503F0DEFE50
:10B880000849204603F0DAFE2023A37110BD00BF53
:10B89000702E002048020300F82E0020E82E002021
:10B8A0005102030055020300F8B5184C182300FBA1
:10B8B000033503FB00402544C46A012C0F4616469D
:10B8C0000FD0022C1AD0F4B92846FFF76AFF86423F
:10B8D00005D8324639462846FFF771FF34462046E0
:10B8E000F8BD2846FFF75DFF8642344628BF044670
:10B8F000224639462846FFF762FFF0E72846BDE8B2
:10B90000F840FFF778BF0024E9E700BF702E002061
:10B91000FFF79ABF6DDF704779DF70477DDF7047B3
:10B9200064DF70472DE9F04F85B000250E9CBDF80F
:10B930003CB0B4F800A00191074690461E46A946C7
:10B940003A884A450DDC45B12388013BA3EB0A0345
:10B950009BB2FF2B3AD806F80A30002005B0BDE8AC
:10B96000F08F7A6852F82900039000220DF10B0144
:10B9700003A8FFF7D5FF0028F0D19DF80B20424522
:10B9800021D12288002D14BF0020022002EB0801E3
:10B99000014459451ADC3DB9013292B2019B228023
:10B9A000B35422880132228022880DF10B013244E7
:10B9B00003A8FFF7B5FF0028D0D121889DF80B2000
:10B9C0000A442280012509F10109B9E70C20C5E7E5
:10B9D0002DE9F341089FBDF824801546CDE9007894
:10B9E000022204461E46FFF79DFF50B9334610223F
:10B9F00029462046CDE9087802B0BDE8F041FFF7BE
:10BA000091BF02B0BDE8F0812DE9F04F0023178807
:10BA1000138090F82D3085B006460D46144653B37A
:10BA2000082F01D80C2007E102A8FFF773FF0028B8
:10BA300040F0028123880822EA54238801339BB214
:10BA40001B222380EA542088013080B22080062205
:10BA50000DF10901284403F095FD23889DF8082085
:10BA600006339BB212F0FE0218BF01222380EA5473
:10BA7000238801332380B378FBB123880433BB428E
:10BA8000D0D802A8FFF748FF002840F0D5802388CF
:10BA90000322EA54238801339BB219222380EA54FB
:10BAA0002388BDF8082001339BB2E9182380EA54AB
:10BAB000120A4A70238802332380F2789AB12388CD
:10BAC000D91CB942AED80221E954238801339BB274
