:020000022000DC
:1060000000000120396202009162020093620200E6
:10601000956202009762020099620200000000008F
:106020000000000000000000000000009B62020071
:106030009D620200000000009F620200A162020057
:106040004DD80200A7620200ADE50200AB6202007B
:10605000AD620200AF620200CDE20200C90103009E
:10606000B5620200B7620200B9620200BB620200C0
:10607000BD620200BF620200C1620200C362020090
:10608000C562020069870200C9620200CB62020099
:10609000A9870200CF620200D19D0300D3620200F3
:1060A000D5620200D7620200D9620200DB62020000
:1060B000DD620200DF620200A3620200A36202004E
:1060C000E1620200E3620200E5620200E7620200B0
:0C60D000E9620200EB620200ED620200D7
:1060DC00354936480A1A02D0072291438D46344975
:1060EC0034480A1A06D00722914381F30988022208
:1060FC0082F3148830483149314A00F044F8314871
:10610C003149324A00F03FF831483249324A00F006
:10611C003AF832483249334A00F035F832483349BC
:10612C00334A00F030F833483349344A00F02BF846
:10613C0033483449344A00F026F8344834490022B4
:10614C0000F02CF833483449002200F027F833488B
:10615C003349091A082902DB002202604160314AE6
:10616C0090471F481F49884205D00268043003B489
:10617C00904703BCF7E700208646EC460020002140
:10618C00294A9047FEE7884207D0521A05D0037877
:10619C0001300B700131013AF9D17047884202D0BD
:1061AC0002700130FAE770470000012000E0002087
:1061BC00000001200000012074C10300782200209F
:1061CC0034230020F0620200F06202005CA50300A0
:1061DC0074C103007822002078220020DCA6030082
:1061EC00DCA60300DCA60300DCA60300DCA603008F
:1061FC00DCA60300DCA60300DCA6030072C10300CE
:10620C0030C2030034230020342300203423002028
:10621C00CC340020CC340020CC340020CC340020F2
:10622C00CC5400205D620200E51E03000F484FF0C5
:10623C000701884385460E4880470E48016841F4A3
:10624C0070010160BFF34F8FBFF36F8FFFF740BF3B
:10625C0009480A490A4A884207D0521A05D00378DD
:10626C0001300B700131013AF9D170470000012067
:10627C00B5C6020088ED00E084A6030020220020B1
:10628C0078220020FEE7FEE7FEE7FEE7FEE7FEE7EA
:10629C00FEE7FEE7FEE7FEE7FEE7FEE7FEE7FEE7CA
:1062AC00FEE7FEE7FEE7FEE7FEE7FEE7FEE7FEE7BA
:1062BC00FEE7FEE7FEE7FEE7FEE7FEE7FEE7FEE7AA
:1062CC00FEE7FEE7FEE7FEE7FEE7FEE7FEE7FEE79A
:1062DC00FEE7FEE7FEE7FEE7FEE7FEE7FEE7FEE78A
:0462EC00FEE700BF0A
:1062F00000B585B00190019B002B0AD0074B43F0FD
:1063000001030393019B9B010293039B029898470F
:1063100000E000BF05B05DF804FB00BFF0A603007D
:1063200000B583B00190019B002B0AD04FF47A7026
:10633000FFF7DEFF019B013B0193019B002BF5D191
:1063400000E000BF03B05DF804FB08B50CF04EF9A7
:1063500000BF08BD00B589B0039002910192019B76
:10636000002B33D00023079303230693029A079B45
:106370001344019A194600200CF0E8F80590079A9A
:10638000059B13440793019A059BD31A0193059B20
:10639000002B13D10F4B1B7883F00103DBB2002BD2
:1063A00013D10120FFF7BCFF069B013B0693069B20
:1063B000002B03D1074B00221A7007E0054B012286
:1063C0001A70019B002BD1D100E000BF00BF09B0C3
:1063D0005DF804FB3423002000B585B003900291E2
:1063E000054B00934023054A0299039800F012F8E8
:1063F00000BF05B05DF804FB5563020038230020A0
:1064000082B0019000BF02B0704782B0019000BF1F
:1064100002B0704700B5A1B00590049103920293B9
:10642000049805F015FF039B1593029B1693002318
:10643000179300238DF8603000231993229B1A9341
:1064400000231F930FA91F9B0822049805F0BEFF8D
:1064500008231F93119B1293BDF84030ADF84C30C8
:10646000BDF84230ADF84E3000238DF851309DF824
:106470003C3003F00303DBB2012B26D10F9BC3F3A7
:1064800095231C939DF83C30C3F3C203DBB28DF817
:106490005030BDF83C30C3F38313DBB21B931B9B1E
:1064A0009A0009A91F9B049805F090FF1B9B9B0075
:1064B0001F9A13441F9312AA09A915AB0093134600
:1064C0001B9A1C9801F036F82FE09DF83C3003F041
:1064D0000303DBB2022B28D1BDF83E30C3F389138E
:1064E0009BB21E939DF83C30C3F3C203DBB28DF820
:1064F00050301E9B082B28BF08231D9307A91F9B04
:106500001D9A049805F062FF1F9A1D9B13441F9368
:106510001E9A1D9BD31A1E9315AB12AA07A81D998C
:1065200001F0AAF81E9B002BE3D1049805F09FFE12
:1065300000BF21B05DF804FB00B583B00190019B62
:106540001B781A460C4B9B5C002B05D0019B043337
:10655000184609F0CBFA0BE0019B1B781A46064B54
:106560009B5C002B04D1019B0C33184608F06CFC9B
:1065700000BF03B05DF804FB202C002000B587B0FD
:106580000390029113468DF8073000230593039B77
:106590001B781A46114B9B5C002B09D0039B0433DC
:1065A0009DF807200299184609F0CEFA05900FE0F1
:1065B000039B1B781A46094B9B5C002B08D1039B5D
:1065C0000C339DF807200299184608F0B3FC05909B
:1065D000059B184607B05DF804FB00BF202C002087
:1065E00082B001900091034B01221A7000BF02B0EB
:1065F000704700BFB823002030B58DB003468DF83A
:1066000007301A4B02AC1D460FCD0FC495E80F00A2
:1066100084E80F00062302934FF0FF3303934FF0FB
:10662000FF3304934FF0FF3305934FF0EB73089360
:106630009DF80730002B01D00D4A00E0002202AB8C
:1066400019460C4806F01EFF0B900B9B0A930A9B01
:10665000002B04D0084A43210A9801F0D1FA074AD6
:106660009DF80730137000BF0DB030BD44A7030084
:10667000E165020078220020F8A60300B92300207B
:1066800000B583B001238DF807309DF80730184618
:10669000FFF7B2FF00BF03B05DF804FB00B589B09F
:1066A000039002910192019B8DF81F30124B002242
:1066B0001A709DF81F301A4602991048FFF75EFFC6
:1066C0000690069B0593059B002B04D00C4A532192
:1066D000059801F095FA00BF0A4B1B78002B07D0F4
:1066E000054B1B78DBB283F00103DBB2002BF3D147
:1066F00000BF09B05DF804FBB82300207822002019
:10670000F8A60300B923002000B585B003900291DC
:10671000054B00934023054A02990398FFF77AFE40
:1067200000BF05B05DF804FB9D66020078230020E1
:1067300082B0019000BF02B07047000000B583B086
:1067400001900548FFF7F8FE0020FFF755FF00BF56
:1067500003B05DF804FB00BF7822002082B00190F6
:10676000019B01225A7200BF02B0704700B583B08E
:106770004FF0FF330193FFF7E8FD0421114800F0CB
:10678000F9FD0190019B002B03DA0F4941200AF02B
:10679000DDFD0C48FFF7E2FFFFF772FF04210B4815
:1067A00000F0E8FD0190019B002B03DA0649482028
:1067B0000AF0CCFD0548FFF7D1FF00BF03B05DF83C
:1067C00004FB00BF8C22002070A703009822002049
:1067D00000B583B001900091019B1B681B68009974
:1067E0000198984700BF03B05DF804FB00B583B083
:1067F0000190019B1B685B680198984700BF03B03C
:106800005DF804FB00B583B00190019B1B689B6899
:106810000198984700BF03B05DF804FB82B0019077
:106820000B468DF80330019B9DF803201A7200BFC0
:1068300002B0704782B00190019B1B7A184602B0EB
:10684000704782B00190019B01225A7200BF02B0D2
:10685000704782B00190019B5B7A184602B0704786
:1068600000B587B0019000911D4BFF229A601C4B30
:1068700000221A601A4B00225A60194B0022C3F8FA
:106880001824174B0022C3F81424154B002283F858
:106890002024144805F040FC0490049B002B01D0F8
:1068A000049B18E0104A114BD31ADB080393002312
:1068B00005930BE0059B9B000D4A13440293059B37
:1068C0009AB2029B1A80059B01330593059A039B9C
:1068D0009A42EFD30023184607B05DF804FB00BFCF
:1068E0008C24002044A6030044A60300BCA503009A
:1068F00020220020024A034BD31ADB0818467047B7
:1069000044A60300BCA5030000B587B001900B4668
:106910008DF803309DF80330002B1FD0FFF7EAFFFE
:1069200004900023059313E0059B9B000E4A13443B
:106930000393039B5B881A46019B1B689A4204D110
:10694000019B059A1A60002309E0059B013305931A
:10695000059A049B9A42E7D3052300E000231846DA
:1069600007B05DF804FB00BF2022002000B585B011
:1069700001900B468DF803309DF8032001AB1146C2
:106980001846FFF7C1FF0346002B07D1019BDB0030
:10699000054A13440393039B1B6800E00023184639
:1069A00005B05DF804FB00BFBCA5030084B00190F6
:1069B0000B468DF80330019BDB00174A134402930A
:1069C0009DF80330013B032B1CD801A252F823F0A1
:1069D000E1690200E9690200F1690200FB69020055
:1069E00002238DF80F3011E004238DF80F300DE0F5
:1069F000029B1B798DF80F3008E0029B5B798DF8C4
:106A00000F3003E000238DF80F3000BF9DF80F30EA
:106A1000184604B0704700BFBCA5030000B585B0A0
:106A20000190009100238DF80F30019B1B7803F03B
:106A30000303DBB2002B06D0019B1B7803F0040399
:106A4000DBB2002B43D0019B1B7803F00403DBB2C5
:106A5000002B27D0019B1B78C3F30103DBB2012B72
:106A600002D0022B0CD017E0009B1B68019A128801
:106A7000C2F38312D2B213449A1C009B1A6023E023
:106A8000009B1B68019A5288C2F3891292B2134488
:106A90009A1C009B1A6017E010494FF4A4700AF08A
:106AA00055FC11E0009B1A68019B5B88C3F38913B6
:106AB0009BB21946019B1B88C3F389139BB20B44FD
:106AC00013445A1C009B1A6001238DF80F309DF867
:106AD0000F30184605B05DF804FB00BFD8A70300CF
:106AE00000B58BB00023ADF826303E4804F01EF907
:106AF0003D4804F01BF93D4B5B6804933B4B9B689E
:106B00000693049A069B134002339B00374A1344B2
:106B10000433089304AB19460898FFF77FFF034638
:106B2000002B09D0049A069B134002339B002F4A86
:106B3000134404330893EDE700BF0023079311E0EB
:106B4000049B5A1C0492069A1340079A920001A9CA
:106B50000A44264902339B000B445B681360079B81
:106B600001330793079B012BEAD99DF80430C3F347
:106B70000103DBB2012B10D0022B1CD1BDF80A306F
:106B8000ADF82630BDF80630C3F389139BB203334A
:106B90009A08049B1344049313E0BDF80A30ADF83F
:106BA0002630BDF80430C3F38313DBB21A46049BCE
:106BB0001344049305E00E494FF4C2700AF0C6FB7B
:106BC00000BF094804F0BEF80590059B002B02D0D9
:106BD000049B064A5360BDF8263018460BB05DF89A
:106BE00004FB00BFA4280020A02800208C24002043
:106BF000D8A7030000B585B00021074803F0CBFFFC
:106C00000390039B0293029B83F310030193019B68
:106C1000184605B05DF804FBA828002000B589B02F
:106C20000390029101920093039B1B0C0793FFF7C3
:106C3000E1FF0690FFF75EFE0246079B934204D3F6
:106C4000214940F2A9100AF081FB069B1904009B20
:106C50005A1C0A9B1340079A0A431C4902339B00A3
:106C60000B445A60009A0A9B134002339B00174A58
:106C7000134404330593039B03F00703D9B2059A29
:106C8000137861F3C5031370019B03F00F03D9B2AE
:106C9000059A138861F389131380029BC3F31501CE
:106CA000059A136861F39F231360059A13780121F5
:106CB00061F301031370059A13786FF38203137065
:106CC00000BF09B05DF804FBD8A703008C240020A6
:106CD00000B58DB00390029113468DF80730039BE9
:106CE00002330A9301238DF8273000238DF81B30DF
:106CF0000DF11B03184601F089FE404B1A68029BF8
:106D00001A603E4B9A683D4B59683C4B1B68CB1A46
:106D1000134401330B9314E00121394803F0CAFFF7
:106D2000FFF7DEFE07900799354803F0C3FF334BAA
:106D30009A68324B5968314B1B68CB1A13440133A4
:106D40000B930A9A0B9B9A42E6D89DF82730002BAA
:106D500048D0002305939DF80730002B17D09DF8ED
:106D60001430012262F301038DF814309DF81430C1
:106D700043F004038DF81430039B03F00F03DAB2E1
:106D8000BDF8143062F38913ADF8143016E09DF8A5
:106D90001430022262F301038DF814309DF8143090
:106DA00043F004038DF81430039BC3F309039AB234
:106DB000BDF8163062F38F13ADF816300F4B1A681A
:106DC0000E4B9B68134002339B000C4A1344043360
:106DD0000893059A089B1A60084B1A680A9B13448B
:106DE000064A13609DF81B30184601F025FE9DF8F9
:106DF000273018460DB05DF804FB00BF8C2400203E
:106E0000A828002000B58BB005900491039202934E
:106E10001F4B9B68079306AB012219460298FFF7A8
:106E200057FF0346002B24D0069B0233099300230F
:106E3000089311E0089B9B00039A1A44099B591C74
:106E4000099107990B401268114902339B000B44CA
:106E50005A60089B01330893089A029B9A42E9D32F
:106E6000069A079B00931346029A04990598FFF728
:106E7000D5FE074B93F82034002B05D000BF00F05F
:106E80007BF80346002BFAD100BF0BB05DF804FB82
:106E90008C24002000B583B00190009100230022D3
:106EA00000990198FFF7AEFF00BF03B05DF804FB47
:106EB00000B587B0039002910192019B059305AA4A
:106EC000012302990398FFF79DFF00BF07B05DF80B
:106ED00004FB00B587B00390029101920093019BDF
:106EE0000493009B059304AA022302990398FFF7D9
:106EF00089FF00BF07B05DF804FB00B589B00390BF
:106F0000029101920093019B0593009B06930A9BBB
:106F1000079305AA032302990398FFF773FF00BFA5
:106F200009B05DF804FB00B58BB0039002910192AB
:106F30000093019B0593009B06930C9B07930D9B6D
:106F400008930E9B099305AA052302990398FFF75E
:106F500059FF00BF0BB05DF804FB0000054B5A68F9
:106F6000044B1B689A420CBF01230023DBB2184676
:106F7000704700BF8C24002000B599B0FFF7EEFFEA
:106F80000346002B01D00023B6E1994B0022C3F841
:106F90001824BFF34F8F00BF954B5B680493944B4D
:106FA0009B681093049A109B134002339B00904AF5
:106FB00013440433129300231793002316930023E2
:106FC0000F9304AB19461298FFF728FD0346002BD8
:106FD00014D0874B1A68049B9A4205D8844B1B68CF
:106FE000834A5360002387E1049A109B13400233C5
:106FF0009B007F4A134404331293E2E700BF00234F
:10700000159311E0049B5A1C0492109A1340159A90
:10701000920001A90A44764902339B000B445B6845
:107020001360159B01331593159B012BEAD99DF82D
:10703000043003F00303DBB2022B40F09C80BDF868
:107040000630C3F389139BB20D93BDF80630C3F32A
:1070500089139BB2502B28BF50239BB20C930C9BDF
:10706000C3F309039AB2BDF8063062F38F13ADF88B
:1070700006300C9B08330B939DF80430C3F3C20316
:10708000DBB20F930B995B4805F051F81790179BF3
:10709000002B00F0D180179805F0DAF801A9169BB3
:1070A0000822179805F080F9169B08331693049B65
:1070B000DA43109B134001339B000A930C9A0A9BFE
:1070C0009A4242D90A9B002B08D0049A109B134085
:1070D00002339B00464A1344043300E0464B0893B6
:1070E0000A9B002B02D00A9BDBB201E00C9BDBB2B7
:1070F0008DF81F300A9B002B01D03F4B00E000238E
:1071000006930A9B002B06D00C9BDAB20A9BDBB2DB
:10711000D31ADBB200E000238DF817309DF81F2052
:10712000169B0899179805F03FF99DF81F30169A9D
:1071300013441693069B002B16D09DF81720169B20
:107140000699179805F030F90EE0049A109B134049
:1071500002339B00264A134404330993169B0C9A6E
:107160000999179805F020F90D9B03339A08049BA1
:107170001344049360E09DF8043003F00303DBB292
:10718000012B59D1BDF80430C3F38313DBB2062BB6
:1071900028BF0623DAB2BDF8043062F38913ADF8D4
:1071A0000430BDF80430C3F38313DBB202330E9313
:1071B0009DF80430C3F3C203DBB20F930E9B9B0018
:1071C00019460C4804F0B3FF1790179B002B33D0DF
:1071D000179805F03DF801A9169B0822179805F0AD
:1071E000E3F8169B08331693002315931BE000BFAA
:1071F0008C24002044A6030098240020049B5A1CE1
:107200000492109A134002339B003D4A1344191D07
:10721000169B0422179805F0C7F8169B04331693A3
:10722000159B01331593BDF80430C3F38313DBB210
:107230001A46159B9342E1D3179B002B3FD0304B4E
:10724000D3F8103414932E4BD3F81834002B1AD0E3
:10725000179805F00CF849E000238DF84F3014988A
:10726000FFF7F7FA0346002B02D001238DF84F30C9
:107270009DF84F30002B03D017991498FFF7A8FA08
:10728000149B5B681493149B002BE5D1179804F0B2
:10729000EEFF00238DF803300DF10303184601F0D3
:1072A000B5FB174BD3F81834002B02D1049B144ABA
:1072B00053609DF80330184601F0BEFB16E0104BFA
:1072C000D3F81034119305E01198FFF79BFA119B46
:1072D0005B681193119B002BF6D10A4B1B881B0492
:1072E00043F0020308491846FFF7D4FDFFF736FEC6
:1072F000034683F00103DBB2184619B05DF804FBC6
:107300008C2400203822002020A8030000B585B07E
:107310000023039322E0164BD3F810340293012389
:107320008DF807300EE00298FFF784FA03461A46FC
:10733000039B934203D100238DF8073005E0029BA5
:107340005B680293029B002BEDD19DF80730002B68
:1073500001D0039B07E0039B01330393039B092B9D
:10736000D9DD4FF0FF33184605B05DF804FB00BFD0
:107370008C24002000B585B001900B468DF80330B9
:10738000FFF7C4FF0390039BB3F1FF3F01D1039BC1
:107390001EE0039BDBB219460198FFF73FFA0E4B44
:1073A000D3F81034002B07D10B4A019BC2F81034DC
:1073B000019B00225A600AE0074BD3F810345A6848
:1073C000019B5A60044BD3F81034019A5A60039B16
:1073D000184605B05DF804FB8C24002000B583B08E
:1073E0000C4BD3F8103401930A4B012283F820246C
:1073F00008E00198FFF725FA0198FFF7F7F9019BDC
:107400005B680193019B002BF3D100BF00BF03B069
:107410005DF804FB8C24002082B00190009100BF35
:1074200002B0704710B584B003900291039BDB88D3
:10743000002B0AD0039BDB881A461F4B0093134690
:107440001E4A1F49029803F0B9FD039B1B7A052BC6
:107450002ED0039B5B7A002B12D0039B9B881A468D
:10746000039B1B7A19461046FFF7A0FA03461A46FB
:10747000144B53F822301A461349029803F09EFD2C
:10748000039B1B6819460298FFF7C6FF039B1B7AF4
:107490001A460E4B53F82240039B9B880021184646
:1074A000FFF764FA034622460949029803F086FD75
:1074B00000BF04B010BD00BF54A8030064A80300BF
:1074C0009CA80300B8220020B4A80300A422002036
:1074D000B8A8030000B585B00390029113468DF85B
:1074E0000730039B1B7A052B0FD0039B5B7A002B85
:1074F00006D00D4B1B681A460C49029803F05EFD3E
:107500000B49029803F05AFD07E09DF80730002B65
:1075100003D00749029803F051FD029803F02CFDB7
:1075200000BF05B05DF804FBB8220020B4A803003A
:10753000C4A8030030B58BB0079006910592049360
:107540000E9B1B7B8DF827300E9B00221A730E9921
:107550000498FFF767FF059B062B7FD801A252F81E
:1075600023F000BF817502008B7502009B7502003D
:10757000AF750200CD750200F57502002576020098
:1075800007990E9803F01AFD69E0069B1B681A46DE
:1075900007990E9803F012FD61E0069B1A68069B9E
:1075A00004331B6807990E9803F008FD57E0069B0B
:1075B0001A68069B04331968069B08331B680093FE
:1075C0000B4607990E9803F0F9FC48E0069B1968F2
:1075D000069B04331868069B08331B68069A0C3216
:1075E00012680192009303460A4607990E9803F029
:1075F000E5FC34E0069B1868069B04331C68069B78
:1076000008331B68069A0C32126806991031096813
:107610000291019200932346024607990E9803F0C7
:10762000CDFC1CE0069B1C68069B04331D68069B72
:1076300008331B68069A0C321268069910310968E3
:1076400006981430006803900291019200932B4633
:10765000224607990E9803F0B1FC00E000BF00221B
:107660000E990498FFF736FF0E9B9DF827201A739A
:1076700000BF0BB030BD00BF00B587B003900291D2
:1076800001920093029B082B5CD8009B1B7B8DF81A
:107690001330009B00221A7300990198FFF7C2FE75
:1076A0000023059314E0059A029B9A4209D2039A9B
:1076B000059B13441B781A462449009803F07EFC6E
:1076C00003E02349009803F079FC059B01330593FF
:1076D000059B072BE7D91F49009803F06FFC002397
:1076E000059322E0059A029B9A4217D2039A059BC2
:1076F00013441B788DF812309DF81230184612F0A2
:1077000047FE0346002B02D09DF8123000E02E23E6
:107710001A461149009803F051FC03E00F49009804
:1077200003F04CFC059B01330593059B072BD9D92E
:10773000012200990198FFF7CDFE009B9DF81320D0
:107740001A7300E000BF07B05DF804FBC8A803008F
:10775000D0A80300D4A80300D8A80300DCA8030025
:107760002DE9F04F91B0099000238DF83F30A6E04D
:10777000594B1A689DF83F30DB0013440E930E9B63
:107780001B781C464FF001024FF00003A4F12001CA
:10779000C4F1200003FA04FB02FA01F14BEA010BE9
:1077A00022FA00F04BEA000B02FA04FACDE90CAB26
:1077B0004A4BD3E90001DDE90C2300EA02040094FE
:1077C0000B400193DDE90034234373D0DDE90C2342
:1077D000D1430291DB430393404BD3E90023DDE91E
:1077E000024521461140049129460B4005933B4B2D
:1077F000DDE90412C3E900120E9B1B78184606F05F
:107800004BFD03468DF82F300E9B1B781C464FF026
:1078100001024FF00003A4F12001C4F1200003FA9B
:1078200004F702FA01F10F4322FA00F0074302FACB
:1078300004F62B4BD3E9002306EA020106913B40F4
:1078400007939DF82F004FF000010E9B1B781C46FC
:10785000A4F12003C4F1200201FA04F900FA03F3B1
:1078600049EA030920FA02F249EA020900FA04F897
:10787000DDE906344C4508BF43451BD19DF82F2058
:107880000E9B5B78012B0CBF01230023DBB29A42D5
:107890000CBF01230023DBB20A930E9B5B68002B15
:1078A00008D00E9B5C680E9B1A780A9BDBB21946C7
:1078B0001046A0479DF83F3001338DF83F30094B0B
:1078C0001A789DF83F309342FFF452AF00BF00BFDB
:1078D00011B0BDE8F08F00BFB0280020E8280020DC
:1078E000E0280020B42800202DE9704F90B00B90C4
:1078F0000B468DF82B304FF001024FF000030B9E2A
:10790000A6F12001C6F1200003FA06F502FA01F102
:107910000D4322FA00F0054302FA06F4CDE90E45C4
:10792000384B184600F0DCFF0D900D9B002B64D106
:10793000354BD3E90001DDE90E2300EA020400948F
:107940000B400193DDE90034234341D10B9806F04D
:10795000A3FC0346002B0FD02C4BD3E90001DDE93B
:107960000E2340EA020402940B430393274BDDE904
:107970000212C3E9001213E0DDE90E236FEA020AE6
:107980006FEA030B214BD3E900230AEA02010491B9
:107990000BEA030305931D4BDDE90412C3E9001252
:1079A000194BD3E90001DDE90E2340EA02040694F5
:1079B0000B430793144BDDE90612C3E9001211488B
:1079C000134B1B680022194600F058FF0D9015E07C
:1079D000DDE90E236FEA02086FEA03090A4BD3E9D7
:1079E000002308EA0201089109EA03030993064B00
:1079F000DDE90812C3E9001200E000BF10B0BDE8E5
:107A0000708F00BFBC280020E8280020E02800205C
:107A1000B828002000B58BB003900B4601928DF87A
:107A20000B30019B042B01D807235AE006F026FBFC
:107A3000034683F00103DBB2002B09D006F0CCFA39
:107A40000990099B0893089B002B01D0089B48E0F4
:107A5000264A039B1360264A9DF80B301370254A73
:107A6000019B136024494FF000024FF00003C1E96D
:107A7000002322494FF000024FF00003C1E9002328
:107A800022E09DF80B30DB00039A1344079305AB0B
:107A900000210A461A800A469A7003238DF8143092
:107AA000079B9B788DF81530079B1B78184605AB14
:107AB000134A194606F0EEFA0990099B0693069BB5
:107AC000002B01D0069B0CE09DF80B305A1E8DF860
:107AD0000B20002BD5D10B4A00210B4800F09EFE55
:107AE000034618460BB05DF804FB00BFB028002029
:107AF000B4280020B8280020E0280020E828002032
:107B0000E978020061770200E0A8030000B583B0C5
:107B1000114B1B68002B03D11049BA2009F016FC49
:107B2000002301930CE00C4B1A68019BDB0013440B
:107B30001B780121184606F027FB019B01330193B6
:107B4000074B1B781A46019B9342ECD3002318463F
:107B500003B05DF804FB00BFB0280020E4A80300D8
:107B6000B428002086B003900291019201238DF881
:107B700017309DF81730214A039B13601F4A029B60
:107B800053601E4A019B9360039B44F2010293429F
:107B900013D0039B44F20202934221D1019B174A66
:107BA000D360164BDB681B881A46144B9A61134B43
:107BB000DB685B68114AD36112E0019B0F4A1361D5
:107BC0000E4B1B699B680D4A53610C4B1B691B686C
:107BD0000A4A9361094B1B695B68084AD36100BF7D
:107BE00072B600BF00BF9DF81730DBB2002BFAD190
:107BF00062B600BF00BF06B0704700BFF02800208B
:107C000000B583B002900091019244F201007146E8
:107C10006A4600F003F803B000BD00BF30B58BB07A
:107C200007900691059272B600BFFFF7D7FB00BF21
:107C3000FFF7A2F90346002BFAD1079B44F2020298
:107C400093422BD0079B44F20202934261D8079BD8
:107C500044F20102934232D0079B44F20102934264
:107C600057D8079B012B05D0079B41F20102934295
:107C70000AD04EE0344B1B881B0443F00103334908
:107C80001846FFF707F94FE02F4B1B881B0443F002
:107C900001032F491846FFF7FDF845E0059B0993BE
:107CA000294B1B881B0443F001031846099B5B68A2
:107CB0001A46099B1B882749FFF70BF934E0059BFF
:107CC0000893214B1B881B0443F001031D46089BAE
:107CD0009C68089B9B68184604F084FC0346184681
:107CE000089B5B681946089B1B68069A02920193E1
:107CF00000910346224618492846FFF714F9124B13
:107D00001B881B0443F0010314491846FFF7C2F80F
:107D10000AE00D4B1B881B0443F00103069A10492F
:107D20001846FFF7C5F800BF0E4B1B6803F00103B0
:107D3000002B00D000BE059A06990798FFF712FFA6
:107D400000BF0BB030BD00BF3822002018A90300CF
:107D500038A903005CA9030078A90300A0A90300C7
:107D6000B4A90300F0ED00E082B003468DF80730BF
:107D70009DF8073003F01F0205499DF907305B09A4
:107D8000012000FA02F241F8232000BF02B0704740
:107D900000E100E082B003468DF807309DF807301F
:107DA00003F01F0206499DF907305B09012000FA24
:107DB00002F2203341F8232000BF02B0704700BF19
:107DC00000E100E082B003468DF807309DF80730EF
:107DD00003F01F0206499DF907305B09012000FAF4
:107DE00002F2403341F8232000BF02B0704700BFC9
:107DF00000E100E082B003468DF807309DF80730BF
:107E000003F01F0206499DF907305B09012000FAC3
:107E100002F2603341F8232000BF02B0704700BF78
:107E200000E100E082B0034600918DF807309DF933
:107E30000730002B0CDA009BDAB20C499DF80730B2
:107E400003F00F03043B5201D2B20B441A7609E04F
:107E5000009BDAB206499DF907305201D2B20B44B9
:107E600083F8002300BF02B0704700BF00ED00E0C0
:107E700000E100E000B585B00190019B002B0AD025
:107E8000074B43F001030393019B9B010293039B68
:107E90000298984700E000BF05B05DF804FB00BF02
:107EA000D0A9030000B583B00190064A019BC2F837
:107EB000083507211120FFF7B5FF00BF03B05DF8BB
:107EC00004FB00BF0010014008B50D4B4FF4803299
:107ED000C3F844230A4B4FF48032C3F80423112023
:107EE000FFF788FF1120FFF73FFF054B01221A60C3
:107EF0002F20FFF7BFFF034B01221A7000BF08BD00
:107F0000001001402E2A002008B51120FFF742FF83
:107F10000E4B4FF48032C3F848230C4B4FF48032A1
:107F2000C3F80823094B01225A602F20FFF7A2FF54
:107F3000064B01229A60064B00221A602F20FFF7A1
:107F400099FF044B00221A7000BF08BD00100140C9
:107F5000202A00202E2A0020024BD3F80435184690
:107F6000704700BF0010014082B001900091019A5B
:107F7000009BD31A23F07F43184602B070470000DD
:107F800082B00190034A019BC2F8403500BF02B0A5
:107F9000704700BF0010014086B00190284B1B685D
:107FA000002B03D1264A019B136045E0019B1A6810
:107FB000234B1B681B689A4210D8214B1B68196819
:107FC000019B1A681E4B1B688A1A1A601C4B1A68A0
:107FD000019BDA611A4A019B13602DE0019B1B682B
:107FE0000393174B1B680593154B1B68049309E01B
:107FF000049B1B68039AD31A0393049B0593049B69
:10800000DB690493049B002B04D0049B1B68039A38
:108010009A42EDD8049B002B05D0049B1A68039B61
:10802000D21A049B1A60019B039A1A60019B049A5E
:10803000DA61059B019ADA6100BF06B0704700BFA4
:108040001C2A002000B587B001902A4B1B680393BF
:10805000284B1B680593059B049308E0049A019B39
:108060009A4208D0049B0593049BDB690493049B0C
:10807000002BF3D100E000BF049B002B01D10023B3
:1080800033E0059A049B9A4214D11A4B1B68DB69B2
:10809000184A1360174B1B68002B0BD1164B01229B
:1080A0009A60164B00221A60154B01221A702F207D
:1080B000FFF7E0FE049B1B680293049BDA69059BB3
:1080C000DA61059BDB690493049B002B05D0049BBC
:1080D0001A68029B1A44049B1A60064B1B68039A99
:1080E0009A4214BF01230023DBB2184607B05DF8A3
:1080F00004FB00BF1C2A002000100140202A0020A1
:108100002F2A002008B51120FFF75CFE00BF08BD34
:1081100008B51420FFF756FE00BF08BD00B583B0B8
:108120000190019B5B69019A92691046984700BFD4
:1081300003B05DF804FB000000B585B02B4B1B6855
:10814000002B4ED000230193FFF706FF0246284B79
:108150001B6819461046FFF707FF0290234B1B6868
:1081600003931DE0039B1B68029A9A421CD3039B56
:108170001B68029AD31A0293039B1B68019A13444B
:108180000193039B0093039BDB690393009B1B7C80
:10819000002B05D0009B00221A740098FFF7BEFF49
:1081A000039B002BDED100E000BF124B1A78124B6C
:1081B0001B789A420CD1104B1B780133DAB20E4B6C
:1081C0001A700D4B1B78022B02D10B4B00221A7038
:1081D000094B1B781946094A019B42F82130FFF7E9
:1081E00097FF00BF05B05DF804FB00BF1C2A00200C
:1081F000202A00202C2A00202D2A0020242A0020BA
:1082000082B00190184B1A78184B1B789A4223D0F1
:10821000154B1B780133DAB2134B1A70124B1B78D3
:10822000022B02D1104B00221A700F4B1B781A46FA
:108230000F4B53F82220019B1A60019B1A680D4BCB
:108240001B6813440B4A13600A4B1B6823F07F43DF
:10825000084A1360012303E0019B00221A600023F7
:10826000184602B0704700BF2C2A00202D2A00209B
:10827000242A0020202A002088B003900291019235
:108280000023079338E0204B1B680693069B1B686E
:10829000039A9A4206D2069B1A68039BD21A069B3F
:1082A0001A602EE0069B1B68039AD31A0393069B61
:1082B0001B68079A13440793069B00221A60124B0F
:1082C0001B680593069BDB690F4A1360069BDB68FE
:1082D000002B11D0029A079B134423F07F42069B88
:1082E0005A60069BDA68069B9A60019B1A68069B97
:1082F000DA61019B059A1A60034B1B68002BC2D1FF
:1083000000BF00BF08B070471C2A002000B589B02C
:10831000019000238DF81F30664B1B680593AAE07F
:10832000019B002B05D0019B0693069BDB69019303
:1083300061E0614B1B781A4613465B001344DB0077
:108340005D4A1344043304935B4B1B780133DAB268
:10835000594B1A70584B1A78574B9B789A4202D156
:10836000554B00221A70049B5B680693049B1B7894
:10837000032B1ED0032B7EDC012B1FD0022B7AD1C6
:10838000049B5B681846FFF75DFE0346002B02D096
:1083900001238DF81F30069B00221A746BE0454BB9
:1083A0001B680393039B00221A74039BDB69414AF9
:1083B0001360404B1B68002BF1D15CE000BF069BB3
:1083C0001B7C002B00D056E0049B9A68069B5A60E9
:1083D000049BDA68069B9A60049B1A69069BDA6024
:1083E000049B5A69069B9A61344B1B78002B02D080
:1083F000069B00225A60069B5A68314B1B68D31AB1
:1084000023F07F432F4A93420ED8069B5B682C4A89
:10841000126811461846FFF7A7FD0246069B9B68A7
:108420001A44069B1A6017E0254B1A68069B5B6886
:1084300019461046FFF798FD0290069B9B68029A2A
:108440009A4206D2069B9A68029BD21A069B1A6031
:1084500002E0069B00221A60069B00225A60069BDF
:1084600000229A60069B01221A74069B0022DA61A0
:108470000698FFF791FD019B002B7FF451AF0E4B47
:108480001A780D4B5B789A427FF44AAF9DF81F3003
:10849000002B04D1074B1B68059A9A4201D0012397
:1084A00000E0002303F00103DBB2184609B05DF8D9
:1084B00004FB00BF1C2A0020102900202F2A0020C6
:1084C000202A0020FEFF7F0010B588B00190274BC6
:1084D0001B68002B44D0254B1B681B680793FFF7D4
:1084E0003BFD0690224B1B68059305990698FFF704
:1084F0003BFD0346033304931E4B1B7883F00103BB
:10850000DBB2002B01D0FFF7DFFC049A079B9342FC
:1085100038BF1346059A13440593059B23F07F4308
:1085200005930598FFF72CFDFFF716FD03900699BC
:108530000398FFF719FD0346DC1C06990598FFF721
:1085400013FD03469C420DD9FFF706FD034618466E
:10855000FFF716FD2F20FFF78DFCFFF7D3FD01E09D
:10856000FFF7D2FC00BF08B010BD00BF1C2A0020DE
:10857000202A00202E2A002000B587B00023019376
:1085800000238DF81730194B1B680493184B1B6898
:1085900003936B461846FFF733FE03468DF80B3006
:1085A0009DF80B30002B08D0009B01AA04991846B7
:1085B000FFF762FE01238DF81730019B1846FFF785
:1085C000A5FE0346002B02D001238DF817309DF83D
:1085D0001730002B02D00398FFF776FF054B0022DF
:1085E0001A7000BF07B05DF804FB00BF202A00200E
:1085F0001C2A00202F2A002082B003468DF8073065
:10860000034A9DF80730537000BF02B0704700BFA7
:108610001029002084B00190144B5B7801338DF851
:108620000F30124B9B789DF80F209A4202D1002305
:108630008DF80F300D4B1B789DF80F209A4201D119
:1086400000230FE0019B9DF80F201A70074B5B7809
:108650001A4613465B001344DB00044A13440433F8
:108660000293029B184604B0704700BF10290020F7
:1086700000B589B003900291019200930023079303
:1086800000238DF816300DF11603184600F0BEF9E0
:108690000DF117031846FFF7BDFF0690069B002B50
:1086A00002D10423079318E0069B01221A70069B4F
:1086B000039A5A60FFF750FC0246069B9A60069B9D
:1086C000029ADA60069B019A1A61069B009A5A6127
:1086D0009DF817301846FFF78FFF9DF816301846A3
:1086E00000F0AAF9079B002B01D1FFF711FD079BB2
:1086F000184609B05DF804FB00B587B001900B4641
:108700008DF803300023059300238DF80E300DF112
:108710000E03184600F07AF90DF10F031846FFF723
:1087200079FF0490049B002B02D1042305930BE0F6
:10873000049B9DF803201A70049B019A5A609DF8CF
:108740000F301846FFF758FF9DF80E30184600F01E
:1087500073F9059B002B01D1FFF7DAFC059B184646
:1087600007B05DF804FB000008B50E4B0022C3F80B
:1087700040210C4B0022C3F844210A4B0022C3F8CD
:108780004821084B0022C3F84C21064B0022C3F8B5
:108790000021044B0022C3F80421FFF7CDFC00BFE9
:1087A00008BD00BF0010014008B5FFF7E5FE00BF9F
:1087B00008BD000008B5FFF7A7FB134B00221A7095
:1087C000114B00225A70104B0B229A700F4B002253
:1087D0001A600F4B00221A700E4B00221A701420E0
:1087E000FFF708FB07211420FFF71CFB1420FFF7FD
:1087F000BBFA0020FFF756FBFFF7AEFB0346064A25
:1088000013600023184608BD102900201C2A0020F0
:108810002C2A00202D2A0020202A002086B0039038
:108820000B4601928DF80B30134B9B78002B01D136
:1088300008231EE0019B002B01D1072319E0039BB5
:10884000002B01D1072314E0039B1B681B7C002B2A
:1088500001D008230DE0039B1B680593059B0022B4
:108860001A74059B9DF80B205A74059B019A5A6156
:108870000023184606B070471029002000B587B0C5
:10888000039002910192039B0593144B9B78002B5C
:1088900001D108231EE0039B002B01D1082319E01E
:1088A000029B042B01D8072314E0059B5B69002B76
:1088B00001D108230EE0059B5B7C012B01D1029BBB
:1088C00000E000230493019B049A02990598FFF7A6
:1088D000CFFE0346184607B05DF804FB10290020C0
:1088E00000B585B00190019B03930D4B9B78002B45
:1088F00001D1082310E0019B002B03D0039B5B698F
:10890000002B01D1082307E0039B00221A740221E7
:108910000398FFF7F1FE0346184605B05DF804FB27
:108920001029002082B0EFF310830093009B019385
:1089300072B600BF019B184602B0704762B600BF16
:1089400000BF704700B585B00190FFF7EBFF0390C3
:10895000164B9B68002B1BD1144B01229A60144BC1
:10896000D3F88020134B1340104A1360104B114A68
:10897000C3F880200E4BD3F884300C4A53600C4B64
:108980004FF0FF32C3F88420019B00221A7002E0EE
:10899000019B01221A70039B002B01D1FFF7CEFF30
:1089A0000023184605B05DF804FB00BF302A002004
:1089B00000E100E0FC06FFBD00B585B003468DF880
:1089C0000730104B9B68002B16D09DF80730002B0A
:1089D00012D1FFF7A7FF03900B4A0A4B1B681360E5
:1089E000094A084B5B685360064B00229A60039B60
:1089F000002B01D1FFF7A2FF0023184605B05DF858
:108A000004FB00BF302A002000E100E000B583B085
:108A1000019000F02BF80346012B03D005494320B9
:108A200008F094FC0198FFF78DFF00BF03B05DF8DC
:108A300004FB00BFD8A9030000B583B003468DF83E
:108A4000073000F013F80346012B03D006495120EC
:108A500008F07CFC9DF807301846FFF7ADFF00BF1B
:108A600003B05DF804FB00BFD8A9030084B0EFF3A6
:108A700005830193019BC3F308030393039B002B1E
:108A80000DD1EFF314830093009B0293029B03F03C
:108A90000103002B0CBF01230023DBB200E0012304
:108AA000184604B0704782B00190019B03F00303A5
:108AB000002B0CBF01230023DBB2184602B0704725
:108AC00000B585B00190002303930EE00B4A039B91
:108AD00052F82330002B05D0084A039B52F823306C
:108AE00001989847039B01330393039B032BEDD914
:108AF00000BF00BF05B05DF804FB00BF4C2A00209A
:108B000082B001900091019B1B78013B052B61D83D
:108B100001A252F823F000BF318B0200398B020012
:108B20005F8B0200918B0200B18B0200CD8B0200A3
:108B3000009B00221A704EE0009B01221A70019BDC
:108B40001A89009B9A81019B9A88009BDA81019B7C
:108B5000DA68009B9A60009B00221A743BE0009B3D
:108B600002221A70019B1A89009B9A81019B9A88A4
:108B7000009BDA81019BDA68009B9A60019B9B7DD8
:108B8000062B0CBF01230023DAB2009B1A7422E0EB
:108B9000009B03221A70019BDA88009B9A81019B3B
:108BA0001A89009BDA81019BDA68009B9A6012E0C7
:108BB000009B04221A70019BDA88009B9A81009B1B
:108BC0000022DA81009B00229A6004E0009B0522CB
:108BD0001A7000E000BF00BF02B0704784B001907F
:108BE0000091019B0393039A009B9A4206D2039B38
:108BF0001B68B3F1FF3F01D0012300E0002303F025
:108C00000103DBB2184604B0704782B00190019BAB
:108C10005B8803339B00019A1344184602B07047E7
:108C200000B583B0019000910198FFF7EEFF024676
:108C3000009B934201D202230CE0019B9B884FF6DC
:108C4000FF72934203D0019B1B88002B01D10123AB
:108C500000E00023184603B05DF804FB00B583B0C4
:108C60000190019B002B13D00D4BDB681A46019B32
:108C700093420DD30A4B1B691A46019B934207D8B6
:108C80000198FFF710FF0346002B01D0012300E0FD
:108C9000002303F00103DBB2184603B05DF804FBC8
:108CA0006422002082B00190019B002B04D0019B24
:108CB0001B680B4A934201D003230DE0019B043350
:108CC0001B68084A934204D0074A934203D1012308
:108CD00002E0002300E00323184602B0704700BF03
:108CE000DEC0ADDEFE011EF1FF011EF184B0019079
:108CF000002303930CE0039B9B00019A13441B6821
:108D0000B3F1FF3F01D0002307E0039B013303933E
:108D1000039BB3F5806FEED30123184604B0704770
:108D200082B003460A46ADF806301346ADF804306B
:108D3000BDF80620134913469B0013449B000B44C7
:108D400008331A88BDF804301344ADF80430BDF878
:108D500006200C4913469B0013449B000B440A3326
:108D60001A88BDF804301344ADF80430BDF804305F
:108D700040F2FF32934294BF01230023DBB2184636
:108D800002B07047EC2A002084B0019000910A23C1
:108D900003930023ADF80A3027E0BDF80A201749F5
:108DA00013469B0013449B000B4404331B68009A3A
:108DB0009A4215D9BDF80A20104913469B00134466
:108DC0009B000B4404331B6803F58053009A9A42BE
:108DD00006D200230393019BBDF80A201A8008E005
:108DE000BDF80A300133ADF80A30BDF80A30012B66
:108DF000D3D9039B184604B0704700BFEC2A00206B
:108E000000B589B0039002910192039B03F5805352
:108E10000693039B08330393029B02221A80039B51
:108E2000079332E006990798FFF7FAFE03468DF89C
:108E300017309DF81730002B0AD1079B9A68184B02
:108E40001B689A4213D9079B9B68154A13600EE072
:108E5000019B002B02D0019B01221A709DF8173054
:108E6000022B04D1029B4FF480621A8014E0029B13
:108E70001A88079B5B8813449BB203339AB2029B08
:108E80001A800798FFF7C1FE079006990798FFF729
:108E9000A5FE0346002BC5D109B05DF804FB00BF59
:108EA0005C2A002082B001900091009B9B7D022BE8
:108EB00009D9019B1A89009BDB8813449BB20333B9
:108EC0009AB2019B1A81019B5A89009BDB88D31AB5
:108ED0009BB2033B9AB2019B5A8100BF02B070471C
:108EE00000B583B0074B1B68194600230093082385
:108EF000054A064802F04AFC0346184603B05DF8EE
:108F000004FB00BF142B002048AA030064220020A9
:108F100000B585B003900399002300930823044A09
:108F2000044802F033FC0346184605B05DF804FB24
:108F300050AA03006422002000B585B003460091CA
:108F4000ADF8063000238DF80F30BDF8063003333E
:108F5000ADF80A30BDF80A3040F2FD32934201D933
:108F600009234AE00023ADF80C303BE0BDF80C20AB
:108F7000244913469B0013449B000B441B78002B91
:108F80002BD1BDF80A20BDF80C3011461846FFF76A
:108F9000C7FE0346002B20D001238DF80F30009B25
:108FA000BDF80C201A80BDF80C20164913469B0012
:108FB00013449B000B440A331988BDF80C20BDF8FC
:108FC0000A300B4498B20F4913469B0013449B0090
:108FD0000B440A3302461A8008E0BDF80C30013316
:108FE000ADF80C30BDF80C30012BBFD99DF80F3017
:108FF000002B01D0002300E00723184605B05DF8E0
:1090000004FB00BFEC2A002082B003460A46ADF8FC
:1090100006301346ADF80430BDF804200D49134660
:109020009B0013449B000B440A331A88BDF806309A
:10903000D31A9BB2BDF80420033B98B205491346EE
:109040009B0013449B000B440A3302461A8000BF66
:1090500002B07047EC2A002008B50121024801F057
:1090600029FE0346184608BD5C2A002000B585B0DD
:1090700003460091ADF80630BDF80620244913469A
:109080009B0013449B000B4404331B6803F580537F
:109090000293009B1B680393039B002B04D003984F
:1090A000FFF7B3FD039026E0BDF8062018491346EC
:1090B0009B0013449B000B4404331B680833039349
:1090C00019E002990398FFF7ABFD0346022B10D07D
:1090D000022B10DC002B02D0012B05D00BE0009BF3
:1090E000039A1A6001230EE00398FFF78EFD0390A8
:1090F00001E0002307E002990398FFF76FFD0346A4
:10910000002BDED10023184605B05DF804FB00BF3C
:10911000EC2A002000B585B001900091019B5B68AE
:109120001846FFF79BFD0346002B19D0019B1A89B7
:10913000244B1B899A4213D1019B1A68019B5B68DF
:109140009B689A420CD1019B5B6819460098FFF717
:109150001BFE0346002B0CBF01230023DBB22CE0D7
:10916000009B00221A8023E00023029310E0029B60
:109170000393039B9A68019B1B689A4208D1029A49
:10918000019B5A600F4B1A89019B1A81012314E03D
:10919000009B1B8802AA11461846FFF767FF03468B
:1091A000002BE4D1009B1B8801339AB2009B1A80EC
:1091B000009B1B88012BD7D90023184605B05DF80A
:1091C00004FB00BF1C2B002000B587B00390029168
:1091D00001920093304B1B78DBB283F00103DBB2CA
:1091E000002B01D0022353E0019B002B02D0009BF7
:1091F000002B48D105234BE0009B9B881946274A4A
:109200000B469B000B449B0013441B78002B33D16F
:1092100024E0009B1B680593039B002B06D0059B55
:109220009A88039B1B889A4200D017E0029B002B70
:1092300006D0059B1A88029B1B889A4200D00DE03D
:10924000059B9A68019B1A60009B1A68019B5A60F3
:10925000134B1A89019B1A81002319E0009B9B88FC
:10926000009A11461846FFF701FF0346002BD0D1A4
:10927000009B00221A6000E000BF009B9B88013326
:109280009AB2009B9A80009B9B88012BB4D90A2339
:10929000184607B05DF804FB3C2A0020EC2A0020A9
:1092A0001C2B002000B585B00190084B0199184691
:1092B00001F05BFB03901C220021039811F0C9F818
:1092C000039B184605B05DF804FB00BFDC220020BC
:1092D00000B583B00190044B0199184601F05EFB84
:1092E00000BF03B05DF804FBDC22002000B583B0B2
:1092F0000190054B0199184601F064FB034618469E
:1093000003B05DF804FB00BFDC22002000B583B091
:109310000190044B0199184601F06DFB00BF03B0AA
:109320005DF804FBDC22002008B50A4B1B68002B0B
:1093300004D1094940F27A2008F008F801210548D3
:1093400001F0D0FC0346002B14BF01230023DBB245
:10935000184608BD442A002020AA030000B587B0A3
:10936000002305930023ADF812300323ADF810302D
:1093700000238DF80F300023ADF80C30F3E0BDF87A
:109380000C301A03804BDB68134402930298FFF7FA
:1093900089FC03468DF807309DF80730032B08D071
:1093A000032B00F3DA80002B65D0012B00F09880AE
:1093B000D3E00298FFF79AFC0346002B3BD0734B97
:1093C0001B68002B29D0BDF81220714913469B0061
:1093D00013449B000B4402221A70BDF812206C4902
:1093E00013469B0013449B000B440433029A1A60FB
:1093F000BDF81220664913469B0013449B000B44A2
:10940000083302221A80634ABDF812305380BDF837
:1094100012300133ADF8123008E05C4A029B136051
:109420005A4B02229A8001238DF80F30059B43F09E
:109430000103059392E0BDF81030013BADF8103008
:10944000BDF81220524913469B0013449B000B4465
:109450000433029A1A60BDF812204D4913469B004E
:1094600013449B000B4403221A70BDF812300133E1
:10947000ADF8123072E0BDF81220454913469B004A
:1094800013449B000B4400221A70BDF8122040497F
:1094900013469B0013449B000B440433029A1A604A
:1094A000BDF8122013469B0013449B000833384A32
:1094B0009918BDF8122013469B0013449B001033EB
:1094C000334A13441A460298FFF79AFC059B43F06F
:1094D00002030593BDF812300133ADF812303DE0C0
:1094E0009DF80F30002B25D0BDF8122028491346D7
:1094F0009B0013449B000B4402221A70BDF81220FB
:10950000224B1968224813469B0013449B000344D6
:1095100004331960BDF812201D4913469B00134403
:109520009B000B44083302221A80BDF8123001332D
:10953000ADF81230154A029B1360002216490298BA
:10954000FFF75EFC114B9B88022B01D1042300E046
:109550000823059A1343059300E000BFBDF80C30C3
:109560000133ADF80C30BDF80C30022B7FF607AF9D
:10957000BDF81030012B01D800230593059BDBB209
:10958000184607B05DF804FB64220020142B00206D
:10959000EC2A00201C2B0020182B002000B587B0DF
:1095A00003900291039B02229A750299039B1A1D54
:1095B000002300930423074802F0E8F80590059B78
:1095C000002B01D1002300E00E23184607B05DF800
:1095D00004FB00BF6422002000B587B00390029115
:1095E000039B1B69002B01D0032200E00122039B97
:1095F0009A75029B08331946039B03F10C02002362
:1096000000930423064802F0C1F80590059B002B47
:1096100001D1002300E00E23184607B05DF804FBDB
:109620006422002000B587B003900291039B1B7851
:10963000032B01D1052200E00622039B9A75029BB1
:1096400004331946039B03F108020023009304230B
:10965000064802F09BF80590059B002B01D10023E2
:1096600000E00E23184607B05DF804FB64220020DA
:1096700000B587B003900B46ADF80A30039900237C
:10968000009304230C4A0D4802F080F80590059BD6
:10969000002B01D00E230BE0BDF80A200849134629
:1096A0009B0013449B000B44103301221A700023CB
:1096B000184607B05DF804FB58AA03006422002096
:1096C000EC2A002000B589B0019002AB00221A609C
:1096D0005A609A60019BDB6802930DF1160202AB9F
:1096E00011461846FFF716FD0346002B12D0039BC8
:1096F0000693069B9A88019BDA80069B1A88019B39
:109700001A81039BBDF8162011461846FFF7B0FFDB
:10971000079001E00A230793079B184609B05DF8FC
:1097200004FB000000B587B00190019B981D02AAC0
:109730000D4B0021FFF748FD0590059B002B08D13C
:10974000039B094A928811461846FFF791FF05903E
:1097500004E008220021044810F07BFE059B184617
:1097600007B05DF804FB00BF2C2B002000B587B0CC
:1097700003900291039B01229A75029B0C331846B9
:10978000039B1A69039BDB889B0000210091014623
:10979000064801F0FBFF0590059B002B01D100233B
:1097A00000E00E23184607B05DF804FB6422002099
:1097B00082B0184B1B8901339AB2164B1A81154B94
:1097C00000225A80134B00221A730023ADF8063092
:1097D00018E0BDF80620104913469B0013449B0077
:1097E0000B441A78BDF80630002A0CBF0122002273
:1097F000D1B2084A13440A469A72BDF806300133C2
:10980000ADF80630BDF80630012BE2D900BF00BF2D
:1098100002B070471C2B0020EC2A002084B001907D
:1098200000238DF80F300023ADF80C3031E0BDF887
:109830000C301C4A13449B7A002B25D0BDF80C3009
:10984000184A134400229A72BDF80C201649134698
:109850009B0013449B000B440C331B68002B13D15B
:10986000BDF80C20104913469B0013449B000B4489
:1098700010331B78002B07D0019BBDF80C201A80F9
:1098800001238DF80F3008E0BDF80C300133ADF83E
:109890000C30BDF80C30012BC9D99DF80F3018469B
:1098A00004B070471C2B0020EC2A002008B5084BA0
:1098B00005221A70074B02229A80064B1B68194634
:1098C00000230122044802F039F80346184608BD77
:1098D0001C2B0020142B00206422002000B583B034
:1098E000164B5B88ADF80230BDF8022014491346D0
:1098F0009B0013449B000B440C331B68002B14D1BA
:109900000E4B04221A70BDF802200D4913469B002D
:1099100013449B000B4404331B68194600230122A7
:10992000084802F00BF8019002E0FFF7BFFF01903A
:10993000019B184603B05DF804FB00BF1C2B002000
:10994000EC2A00206422002000B587B0104B5B6831
:109950000593104B1A680F4B9B889B00134404938C
:10996000059B5B880333ADF80E30094B03221A7058
:109970000499074B5A68BDF80E309B0000200090F8
:10998000054801F003FF0346184607B05DF804FBE5
:109990001C2B0020142B00206422002000B583B073
:1099A0000A4B5B880A491846FFF760FB0346002B09
:1099B00003D0FFF7C9FF019002E0FFF78FFF01908E
:1099C000019B184603B05DF804FB00BF1C2B002070
:1099D000202B002008B50A4B06221A70084B5B8822
:1099E0001946084A0B469B000B449B001344043362
:1099F0001B681846FFF78CFA0346184608BD00BFDF
:109A00001C2B0020EC2A002008B5054B07221A70F9
:109A1000034B00225A60FFF763FA0346184608BD5D
:109A20001C2B002008B50D48FFF7F8FE034683F015
:109A30000103DBB2002B0BD0094B00221A70084B3C
:109A400000225A80064B00225A6041F61D5302E064
:109A5000FFF7A4FF0346184608BD00BF1E2B0020D9
:109A60001C2B002082B0094B5B680193019B5B8833
:109A70000333ADF80230064B9A88BDF80230134428
:109A80009AB2034B9A8000BF02B070471C2B002093
:109A9000142B002082B0184B1B680193174B5B8876
:109AA0001946174A0B469B000B449B001344043392
:109AB0001B68114A1360114B5B881946104A0B460C
:109AC0009B000B449B0013440433019A1A600B4B18
:109AD0005B881946084B9888094A0B469B000B4443
:109AE0009B001344083302461A80034B02229A80DB
:109AF00000BF02B0704700BF142B00201C2B0020B9
:109B0000EC2A002008B51A4B1B78072B2CD801A291
:109B100052F823F0359B0200699B0200699B02000A
:109B2000419B02004D9B0200599B0200599B020081
:109B3000619B0200FFF73CFE0D4B01221A7014E0FE
:109B4000FFF790FF0A4B02221A700EE0FFF7A2FF08
:109B5000074B06221A7008E0054B07221A7004E032
:109B6000034B01221A7000E000BF00BF08BD00BF18
:109B70001C2B002000B587B0019000910F230593A6
:109B8000019B002B04D0624B00225A600123BBE0F2
:109B9000009B1B79032B00F2AB8001A252F823F04B
:109BA000B19B0200BF9B02004D9C02006D9C020015
:109BB000009B01221A71FFF793F905909BE00023A7
:109BC0008DF813300023ADF810302BE0BDF81020D5
:109BD000504913469B0013449B000B441B78022BF7
:109BE0001BD1BDF810204B4913469B0013449B002A
:109BF0000B4400221A7001238DF81330BDF8102099
:109C0000444913469B0013449B000B4404331B68D8
:109C10001846FFF77DF9059008E0BDF810300133D4
:109C2000ADF81030BDF81030012BCFD99DF81330AE
:109C300083F00103DBB2002B5CD0354B01221A709C
:109C4000334B00225A6041F61D535DE0009B002219
:109C50001A71314B02229A802F4B1B681946002340
:109C600001222E4801F06AFE059044E0009B00228C
:109C70001A71294B1B681846FFF74AF90590284BC3
:109C80005B88ADF80E30244B1B680293BDF80E20A4
:109C9000204913469B0013449B000B4404331B686C
:109CA0001D4A1360BDF80E201A4913469B00134449
:109CB0009B000B440433029A1A60BDF80E20164B29
:109CC0009888144913469B0013449B000B440833A7
:109CD00002461A80104B02229A80BDF80E200D49D0
:109CE00013469B0013449B000B4400221A7002E0B1
:109CF00000BF00E000BF059B002B04D0044B0022F6
:109D00005A600E2300E00023184607B05DF804FBFC
:109D10003C2A0020EC2A0020142B00206422002082
:109D20001C2B002000B587B001900091009B9B8AFE
:109D30001A4613469B0013449B003A4A134404936B
:109D4000019B002B05D000990498FFF7ABF8012385
:109D500063E0049B5A68049B1B899B001344039394
:109D6000009B9B7D062B4DD801A252F823F000BF2B
:109D7000B39D0200D79D0200BF9D0200CB9D020053
:109D80008D9D0200E39D0200FD9D0200264B0022F6
:109D90005A60009B9B69244A136024492248FFF7BC
:109DA000B9F9034683F00103DBB2002B01D00A238B
:109DB00033E003990098FFF7F1FB059025E0039944
:109DC0000098FFF709FC05901FE003990098FFF742
:109DD000CDFC059019E003990098FFF723FC05904E
:109DE00013E0009B06229A750F4B5B680F4A12889E
:109DF00011461846FFF73CFC059006E041F61D535E
:109E0000059302E00F23059300BF059B002B03D0B1
:109E100000990498FFF746F8059B184607B05DF8CF
:109E200004FB00BFEC2A0020342B0020402B002034
:109E300000B585B001900091019B002B01D001235A
:109E400026E0009B1B79022B19D0022B1BDC002B78
:109E500002D0012B08D016E0009B02221A71009854
:109E6000FFF730FC039012E00098FFF75BFC0390D3
:109E7000039B0A2B0AD141F61D53039306E041F6DA
:109E80001D53039303E00F23039300E000BF039BE4
:109E9000184605B05DF804FB00B585B00190019B44
:109EA000002B01D001233BE01F4B1B7B002B03D079
:109EB0001D4B00221A7301E0FFF724FE1A4B1B789A
:109EC000013B062B28D801A252F823F0E99E02009C
:109ED000F19E0200F99E0200019F0200199F0200FC
:109EE000099F0200119F0200FFF79CFD039016E0FE
:109EF000FFF754FD039012E0FFF726FD03900EE0FC
:109F0000FFF7ECFC03900AE0FFF764FD039006E026
:109F1000FFF77AFD039002E00F23039300BF039B3A
:109F2000184605B05DF804FB1C2B002000B589B075
:109F300001903F4B1B68002B05D13E48FFF7D6F937
:109F400003463B4A13603A4B1B68002B04D13A4945
:109F500040F2825007F0FAF9354B1B681B78013B41
:109F6000052B2CD801A252F823F000BF859F0200D8
:109F7000959F0200959F0200A59F0200A59F0200E9
:109F8000B59F02002A4B1B6819460198FFF7F2FDA6
:109F9000019017E0264B1B6819460198FFF7C2FE97
:109FA00001900FE0224B1B6819460198FFF740FF14
:109FB000019007E00198FFF76FFF019002E00F2387
:109FC000019300BF019B002B2BD003AB00221A6032
:109FD0005A609A60DA601A61019B41F61D52934201
:109FE00001D0019B00E000230493114B1B6803AADE
:109FF00011461846FEF784FD03AB1846FEF760FDD8
:10A000000B4B00221A60002301930A48FFF77EF9E8
:10A01000FFF78AF9034683F00103DBB2002B02D17C
:10A0200087E700BF00E000BF00BF09B05DF804FB98
:10A03000442B0020482B002020AA030008B5012152
:10A04000054800F01FFE0346002B02D10020FFF759
:10A050006DFF00BF08BD00BF442A002000B583B0DB
:10A060000190019B5B681846FFF760FF00BF03B0DB
:10A070005DF804FB00B58BB00390029101928DF85E
:10A0800003300023ADF824300023ADF82630514BC7
:10A090001B78DBB283F00103DBB2002B01D002237B
:10A0A00093E0029B002B01D105238EE0029B1B88CD
:10A0B0004FF6FF72934203D0029B5B88002B01D1C5
:10A0C000042382E0029B5B681846FEF7ECFC034623
:10A0D00083F00103DBB2002B01D0032375E0019B69
:10A0E000002B11D1029B9B68ADF826300DF11A02AE
:10A0F000BDF8263011461846FEF71EFF0890089B53
:10A10000002B09D0089B60E0019B1B88ADF81A303A
:10A11000019B5B88ADF8263005AB1846FFF7C2F807
:10A120000790079B002B09D1BDF81A20BDF82630F7
:10A1300011461846FEF768FF082346E0079B9DF886
:10A1400003201A70079B00229A75BDF81A20079BFE
:10A150009A82029B5A68079B1A61FEF77DFF0246AE
:10A16000079BDA60029B1A88079B1A81029B5A8818
:10A17000079B9A80079BBDF82620DA809DF8033064
:10A18000032B06D1079B04229A75039B1A68079B31
:10A190009A61079BBDF824205A8105AB1846FFF74A
:10A1A00097F8039B002B0DD0039B00225A60079B5E
:10A1B000DA68039B1A60039B00229A72064B1A8985
:10A1C000039B1A81FFF73AFF002318460BB05DF896
:10A1D00004FB00BF3C2A00201C2B002000B585B0EA
:10A1E00001900C4B1B68042B02D10C2303930BE052
:10A1F000084B1B680849019A41F8232001210548B2
:10A2000000F058FD00230393039B184605B05DF84A
:10A2100004FB00BF482A00204C2A002084B04FF0E5
:10A2200010235B6903934FF080531B6902934FF037
:10A2300080535B690193039BB3F1FF3F04D1019B02
:10A24000029A02FB03F300E0039B184604B0704738
:10A2500000B583B04FF440530193FFF7DFFF03468F
:10A26000054A1361044B1A69019BD31A024AD36051
:10A2700000BF03B05DF804FB6422002008B5FFF7BF
:10A28000E7FF00220349044801F03CFA0346184660
:10A2900008BD00BF04AD03006422002008B50448D7
:10A2A0001C238C22034900F019FB00BF08BD00BF2E
:10A2B000DC220020602A002000B58BB002AB002217
:10A2C0001A605A609A60DA601A61414B1B78DBB2FF
:10A2D000002B05D002AB1846FEF7F2FB002373E01B
:10A2E0003C4800F017FD0346002B01D000236BE033
:10A2F000FFF7C4FF0990099B002B01D0099B63E085
:10A30000FFF7CCFFFFF72AF803468DF823309DF8BE
:10A310002330062B07D0062B11DC002B01D0022B9B
:10A320000DD10B2350E02A4B01221A70284B00223A
:10A330005A6002AB1846FEF7C3FB002344E000BF9F
:10A3400001AB1846FEF7AEFF0790079B002B01D12B
:10A35000082339E0079B01221A709DF82330013B46
:10A360000A2B29D801A252F823F000BF99A30200BA
:10A37000B9A3020099A30200B9A30200B1A302008D
:10A38000B9A30200B1A30200B9A30200A1A3020075
:10A39000A9A30200A1A30200079B00221A710CE0EE
:10A3A000079B03221A7108E0079B02221A7104E03E
:10A3B000079B01221A7100E000BF01AB1846FEF7AF
:10A3C00087FFFFF73BFE002318460BB05DF804FB48
:10A3D0003C2A0020402A002000B585B00190009161
:10A3E000019B002B02D0009B002B01D1052329E00B
:10A3F0000DF10A0319460198FEF78CFE0346002B67
:10A400001FD0019B5B680393BDF80A301A461346C0
:10A410009B0013449B0008330C4A1344043301216E
:10A42000184600F047FC009B039A1A60019B5B688A
:10A4300003F10C02009B5A60019B01229A720023D7
:10A4400000E00A23184605B05DF804FBEC2A002062
:10A4500000B585B00190019B002B01D1052339E0A7
:10A460000DF10A0319460198FEF754FE0346002B2E
:10A470002DD0BDF80A301946184A0B469B000B44F4
:10A480009B0013440C331B68002B1DD0019B9B7A4F
:10A49000002B19D0BDF80A301A46104913469B000C
:10A4A00013449B000B440C331B68591E0B48134686
:10A4B0009B0013449B0003440C331960019B002252
:10A4C0009A720023039304E00623039301E00A2316
:10A4D0000393039B184605B05DF804FBEC2A0020AB
:10A4E00000B585B001900B46ADF80230134B1B78D8
:10A4F000DBB283F00103DBB2002B01D0022319E0B1
:10A50000019B002B01D1052314E00DF10A02BDF8D7
:10A51000023011461846FEF70FFD0390039B002BF7
:10A5200007D1BDF80A20019B1A80019BBDF80220CB
:10A530005A80039B184605B05DF804FB3C2A0020B6
:10A5400000B585B001901F4B1B78DBB283F001038F
:10A55000DBB2002B01D002232FE0019B002B01D1A5
:10A5600005232AE0019B1B88022B01D9042324E048
:10A57000019B1B881A4613469B0013449B00124AFA
:10A5800013440293019B5B880233029A52899342DF
:10A5900010DA019B5A88019B1B8819461046FEF76A
:10A5A00033FD019B00221A80019B00225A80002368
:10A5B000039301E004230393039B184605B05DF861
:10A5C00004FB00BF3C2A0020EC2A002000B583B029
:10A5D000019000910223002200990198FFF74AFDA3
:10A5E0000346184603B05DF804FB00B585B0039040
:10A5F00002910192019B002B01D1052306E0022369
:10A60000019A02990398FFF735FD0346184605B0F5
:10A610005DF804FB00B583B001900091019B002B15
:10A6200001D1052306E00323002200990198FFF7DA
:10A6300021FD0346184603B05DF804FB00B585B064
:10A640000346ADF80630184B1B78DBB283F00103EC
:10A65000DBB2002B01D0022322E0BDF806304FF61A
:10A66000FF72934201D104231AE002AB1846FEF7B1
:10A6700019FE0390039B002B01D1082310E0039BDC
:10A6800005221A70039B01221A71039BBDF8062054
:10A69000DA8002AB1846FEF71BFEFFF7CFFC002363
:10A6A000184605B05DF804FB3C2A002000B583B0D5
:10A6B000144B1B78DBB283F00103DBB2002B01D01B
:10A6C00002231AE06B461846FEF7ECFD0190019B51
:10A6D000002B01D1082310E0019B06221A706B4663
:10A6E0001846FEF7F5FD084B1B78002B02D0064BF1
:10A6F00001221A73FFF7A2FC0023184603B05DF88D
:10A7000004FB00BF3C2A00201C2B002000B585B0B4
:10A71000029201930346ADF80E300B46ADF80C30B3
:10A7200003A90DF10E00019B029AFEF74DFD0346B1
:10A73000184605B05DF804FB00B585B003460291EC
:10A740000192ADF80E300DF10E01019B029A00202E
:10A75000FEF73AFD0346184605B05DF804FB00B568
:10A7600085B0034602910192ADF80E300DF10E0056
:10A77000019B029A0021FEF727FD0346184605B00B
:10A780005DF804FB82B001900091019B002B02D088
:10A79000009B002B01D1052304E0019B1A68009B5C
:10A7A0001A600023184602B0704786B001900091ED
:10A7B000019B53E8011F8AB2D889024498898242DA
:10A7C00028BF121A1889824202BFBFF32F8F0023BD
:10A7D00007E0C2EA010243E801200028E9D14FF076
:10A7E00001038DF80F30059002910492029A009BAC
:10A7F0001A609DF80F30DBB2184606B0704784B07F
:10A800000190019951E8013FC3EA034341E8013255
:10A81000002AF7D10392029300BF04B0704786B0BC
:10A8200001900091019B53E8021F1FFAA1F2D88802
:10A83000824202BFBFF32F8F00230DE0D88902446C
:10A840009889824228BF121AC1EA024243E80220D4
:10A850000028E8D14FF001038DF80F3005900291E8
:10A860000492029A009B1A609DF80F30DBB21846E2
:10A8700006B0704784B00190019951E8023FC3EAE5
:10A88000234341E80232002AF7D10392029300BF2A
:10A8900004B0704786B00190019B53E8021FDA882C
:10A8A000B1EB314F4FF0000017BF89B242EA0242CC
:10A8B00041EA024204E05968B1EB314F08BF012080
:10A8C00043E802210029E8D18DF80F000591049298
:10A8D0009DF80F30DBB2184606B0704784B0039085
:10A8E000029111461A460B46ADF806301346ADF8F4
:10A8F0000430029B002B01D10E231FE0BDF806306F
:10A90000BDF80420B3FBF2F102FB01F29B1A9BB2EB
:10A91000002B01D0092311E0039B029A1A60039BCC
:10A9200000225A60039B00229A60039BBDF8062018
:10A930009A81039BBDF80420DA810023184604B0F5
:10A94000704700B585B001900198FFF7A3FF03465B
:10A950008DF80F309DF80F30002B01D0002300E060
:10A960001123184605B05DF804FB00B585B00190D1
:10A970000091009B19460198FFF717FF0346002B33
:10A9800007D0019B1B68009A128813440393039B12
:10A9900000E00023184605B05DF804FB00B583B065
:10A9A00001900091009B1A88009B5B889A4204D119
:10A9B0000198FFF724FF012300E00023184603B0AD
:10A9C0005DF804FB00B585B001900091009B19462D
:10A9D0000198FFF724FF0346002B07D0019B1B685B
:10A9E000009A528813440393039B00E00023184607
:10A9F00005B05DF804FB00B583B001900091009BA9
:10AA00001A88009B5B889A4204D10198FFF732FFB5
:10AA1000012300E00023184603B05DF804FB00B5F5
:10AA200085B001900091009B5B099B00019A1A443C
:10AA3000009B03F01F03012101FA03F3194610469E
:10AA400000F0D8F8039000BF05B05DF804FB00B536
:10AA500083B001900091009B5B099B00019A1A440E
:10AA6000009B03F01F03012101FA03F3194610466E
:10AA700000F0A8F80246009B03F01F0322FA03F33C
:10AA800003F00103002B14BF01230023DBB218469F
:10AA900003B05DF804FB00B585B001900091009B08
:10AAA0005B099B00019A1A44009B03F01F030121DC
:10AAB00001FA03F3DB431946104600F0CBF803908C
:10AAC00000BF05B05DF804FB82B001900091009BCF
:10AAD0005B099B00019A13441A68009B03F01F0353
:10AAE00022FA03F303F00103002B14BF0123002318
:10AAF000DBB2184602B0704700B58BB001900091F0
:10AB0000002309933BE0099B9B00019A13441B68B7
:10AB1000DB430693069B93FAA3F30593059BB3FAD5
:10AB200083F3089323E0099B5B01089A134407937E
:10AB3000079A009B9A421ED207990198FFF787FF58
:10AB4000034683F00103DBB2002B01D0079B1EE01C
:10AB5000099B9B00019A13441B68DB430493049BED
:10AB600093FAA3F30393039BB3FA83F30893089B2D
:10AB70001F2BD8D900E000BF099B01330993009B2C
:10AB8000013B5B090133099A9A42BCD3009B1846EA
:10AB90000BB05DF804FB10B487B001900091019BED
:10ABA000009A53E8004F104643E8000191F0000F6F
:10ABB000F7D1059404900391059B184607B05DF802
:10ABC000044B704710B487B001900091019B009A2C
:10ABD00053E8004F44EA020043E8000191F0000FFF
:10ABE000F6D1059404900391059B184607B05DF8D3
:10ABF000044B704710B487B001900091019B009AFC
:10AC000053E8004F44EA020043E8000191F0000FCE
:10AC1000F6D1059404900391049B184607B05DF8A3
:10AC2000044B704710B487B001900091019B009ACB
:10AC300053E8004F04EA020043E8000191F0000FDE
:10AC4000F6D1059404900391059B184607B05DF872
:10AC5000044B704710B487B001900091019B009A9B
:10AC600053E8004F04EA020043E8000191F0000FAE
:10AC7000F6D1059404900391049B184607B05DF843
:10AC8000044B704710B487B001900091019B009A6B
:10AC900053E8004F04EB020043E8000191F0000F7D
:10ACA000F6D1059404900391059B184607B05DF812
:10ACB000044B704710B487B001900091019B009A3B
:10ACC00053E8004F04EB020043E8000191F0000F4D
:10ACD000F6D1059404900391049B184607B05DF8E3
:10ACE000044B704710B487B001900091019B009A0B
:10ACF00053E8004FA4EB020043E8000191F0000F7D
:10AD0000F6D1059404900391049B184607B05DF8B2
:10AD1000044B704700B583B0019001210198FFF703
:10AD200051FF0346184603B05DF804FB00B583B03D
:10AD3000019001210198FFF75DFF0346184603B01B
:10AD40005DF804FB00B583B0019000210198FFF786
:10AD500069FF0346184603B05DF804FB00B583B0F5
:10AD600001900B468DF80330019B002B03D108495D
:10AD7000E82006F0EBFA019BDA689DF803300199B0
:10AD8000898A01FB03F31344184603B05DF804FB02
:10AD90005CAA030000B583B001900091019B002BD9
:10ADA00003D10849F52006F0D1FA009B019AD26838
:10ADB0009B1A019A928AB3FBF2F3DBB2184603B0F6
:10ADC0005DF804FB5CAA030000B585B00190019B0F
:10ADD000002B01D10E234CE0019B1B68002B03D1FB
:10ADE0002649FF2006F0B2FA019B5B68002B04D1D4
:10ADF00022494FF4807006F0A9FA019B9B68002B52
:10AE000004D11E4940F2011006F0A0FA019BDB6854
:10AE1000002B04D119494FF4817006F097FA019B79
:10AE20009B8A002B04D1154940F2031006F08EFADC
:10AE3000019B9A68019B5B68D31A8DF80F30019BC8
:10AE40001B68019A52681A6007E0019B1A68136830
:10AE5000591C11609DF80F201A709DF80F305A1E72
:10AE60008DF80F20002BF0D1019B1B6800221A7176
:10AE70000023184605B05DF804FB00BF5CAA030080
:10AE800000B585B00190019B002B04D11F494FF400
:10AE9000927006F05BFA0023039300238DF80A30CA
:10AEA0000DF10A031846FDF7B1FD019B1B681A68F6
:10AEB000019B5B689A421FD9019B1B681A68013A83
:10AEC0001A601B681B7819460198FFF747FF03902B
:10AED000019B9A68019B1B681B68D31A8DF80B3085
:10AEE000019B1B681B799DF80B209A4204D9019B9A
:10AEF0001B689DF80B201A719DF80A301846FDF763
:10AF00009BFD039B184605B05DF804FB5CAA03009B
:10AF100010B584B001900091019B002B04D115491C
:10AF200040F2471006F012FA009B002B04D11149A1
:10AF30004FF4A47006F00AFA009B039300238DF8E7
:10AF40000B300DF10B031846FDF760FD019B1B68EC
:10AF50001C68621C1A6003990198FFF71BFF0346E7
:10AF600023709DF80B301846FDF766FD00BF04B056
:10AF700010BD00BF5CAA030000B583B00190019B27
:10AF8000002B03D10C49312006F0E0F9019B9B68AE
:10AF9000002B0CD0019B5B69019A1069019A116822
:10AFA000019A92689847019B00229A6000E000BFD6
:10AFB00003B05DF804FB00BF90AA03000EB400B517
:10AFC00084B00190019B002B03D11849422006F068
:10AFD000BDF9019B5B69002B03D11449432006F0A6
:10AFE000B5F9019B1B68002B03D11049442006F0E2
:10AFF000ADF9019B5B68002B03D10C49452006F09D
:10B00000A5F9059B002B0AD00023039306AB0393FD
:10B0100003AB1A460599019800F0B0F900E000BFB3
:10B0200004B05DF804EB03B0704700BF90AA0300C2
:10B0300000B583B001900B468DF80330019B1A6870
:10B04000019B9B68581C0199886013449DF803205C
:10B050001A70019B9A68019B5B689A4202D301981F
:10B06000FFF78AFF00BF03B05DF804FB00B587B0AF
:10B07000039002910192009300230593009B03F03B
:10B080000103002B24D00BE0029B01330293059BAC
:10B09000013305939DF8133019460398FFF7C8FF55
:10B0A000029B1B788DF813309DF81330002BEBD1E9
:10B0B00006E0019B013B019320210398FFF7B8FFB5
:10B0C000019A059B9A422ED9019B002BF1D12AE0CF
:10B0D000029B002B0BD002980FF010FA059006E0AF
:10B0E000019B013B019320210398FFF7A1FF019AE7
:10B0F000059B9A420FD9019B002BF1D10BE0029BDB
:10B1000001330293059B013305939DF813301946D3
:10B110000398FFF78DFF029B1B788DF813309DF885
:10B120001330002BEBD100BF07B05DF804FB00002B
:10B1300000B589B00390029101920093029B07939E
:10B140000123069307E0079A019BB2FBF3F30793F1
:10B15000069B01330693079A019B9A42F3D2009A09
:10B16000069B9A4201D9009B06930B9B03F00103B7
:10B17000002B22D10A9B002B1FD00B9B03F0020354
:10B18000002B06D0009B002B03D130238DF8173005
:10B1900002E020238DF8173008E00A9B013B0A9358
:10B1A0009DF8173019460398FFF742FF0A9B002BC2
:10B1B00003D0069A0A9B9A42EFD301230793009B80
:10B1C000012B03D9009B013B009309E0029A079BE6
:10B1D000B2FBF3F30493049A019B9A4200D205E078
:10B1E000079B019A02FB03F30793E8E7029A079B88
:10B1F000B2FBF3F30493049B079A02FB03F3029A56
:10B20000D31A0293154A049B13441B7819460398DA
:10B21000FFF70EFF079A019BB2FBF3F30793079B1F
:10B22000002BE3D10B9B03F00103002B11D00A9BF1
:10B23000002B0ED006E00A9B013B0A9320210398C5
:10B24000FFF7F6FE0A9B002B03D0069A0A9B9A4250
:10B25000F1D300BF09B05DF804FB00BFE8AA03000A
:10B2600000B589B00590049103920293049B002BD2
:10B27000B8BF5B4206930123079307E0039B069A3E
:10B2800092FBF3F30693079B01330793039B069A04
:10B290009A42F3DA029A079B9A4201D9029B0793DA
:10B2A0000A9B002B0AD0049B002B04DB0B9B03F0B2
:10B2B0000403002B02D00A9B013B0A930B9B03F073
:10B2C0000203002B02D0029B002B16D00B9B03F035
:10B2D0000103002B11D10A9B002B0ED006E00A9B24
:10B2E000013B0A9320210598FFF7A2FE0A9B002B41
:10B2F00003D0079A0A9B9A42F1D3049B002B07DAEA
:10B30000049B5B4204932D210598FFF791FE08E012
:10B310000B9B03F00403002B03D02B210598FFF7B0
:10B3200087FE0B9B03F00203002B19D00B9B03F04D
:10B330000103002B14D1029B002B11D10A9B002B7F
:10B340000ED006E00A9B013B0A9330210598FFF7D7
:10B350006FFE0A9B002B03D0079A0A9B9A42F1D3F7
:10B3600004990B9B01930A9B0093029B039A0598F7
:10B37000FFF7DEFE00BF09B05DF804FB00B58FB03B
:10B38000059004910392059B002B04D1B6494FF41C
:10B390009F7005F0DBFF059B5B69002B04D1B24970
:10B3A0004FF4A07005F0D2FF059B1B68002B04D161
:10B3B000AD4940F2411005F0C9FF059B5B68002BC9
:10B3C00004D1A9494FF4A17005F0C0FF049B002BE4
:10B3D00000F09381049B1B788DF83730049B013378
:10B3E00004939DF83730002B00F07E819DF83730B4
:10B3F000252B40F06D8100230A9301230C93049BBD
:10B400001B788DF837309DF83730302B0DD0302B2E
:10B410001BDC2B2B11D02D2B17D10A9B43F00103E2
:10B420000A93049B0133049312E00A9B43F0020346
:10B430000A93049B013304930AE00A9B43F004033C
:10B440000A93049B0133049302E000230C9300BF92
:10B450000C9B002BD3D1002309939DF837302A2B66
:10B460000CD1039B1B68191D039A11601B68099A74
:10B4700013440993049B013304931AE0049B1B7843
:10B480008DF837309DF837302F2B12D99DF8373093
:10B49000392B0ED8049B01330493099A13469B0061
:10B4A00013445B001A469DF837301344303B099330
:10B4B000D3E700230B93049B1B788DF837309DF85E
:10B4C00037302E2B1DD1049B01330493049B1B7832
:10B4D0008DF837309DF837302F2B12D99DF8373043
:10B4E000392B0ED8049B013304930B9A13469B000F
:10B4F00013445B001A469DF837301344303B0B93DE
:10B50000E4E7049B1B788DF837309DF837306C2BBF
:10B5100003D09DF83730682B07D1049B0133049387
:10B52000049B1B788DF83730EFE79DF83730252BDB
:10B5300000F0C480252BC0F2C680782B00F3C380B6
:10B54000582BC0F2C080583B202B00F2BC8001A2D7
:10B5500052F823F043B60200C7B60200C7B6020095
:10B56000C7B60200C7B60200C7B60200C7B60200DF
:10B57000C7B60200C7B60200C7B60200C7B60200CF
:10B58000D9B50200FBB50200C7B60200C7B602007B
:10B59000C7B60200C7B60200FBB50200C7B602007C
:10B5A000C7B60200C7B60200C7B60200C7B602009F
:10B5B000C7B6020089B60200C7B60200C7B60200CD
:10B5C0006DB60200C7B602001FB60200C7B6020081
:10B5D000C7B6020043B60200039B1B68191D039AFD
:10B5E00011601B680C930C9B8DF81F309DF81F3069
:10B5F00019460598FFF71CFD66E0039B1B68191DA3
:10B60000039A11601B680C930A9B0193099B00939A
:10B610000B9B0A220C990598FFF722FE54E0039B2E
:10B620001B68191D039A11601B680C930C990A9BE7
:10B630000193099B00930B9B0A220598FFF778FD65
:10B6400042E0039B1B68191D039A11601B680C9351
:10B650000C990A9B0193099B00930B9B1022059860
:10B66000FFF766FD30E000BFB8AA0300039B1B682C
:10B67000191D039A11601B6808930A9B099A08997F
:10B680000598FFF7F3FC1FE0039B1B68191D039A45
:10B6900011601B680C9330210598FFF7C9FC7821D5
:10B6A0000598FFF7C5FC0C9900230193082300932C
:10B6B000082310220598FFF73BFD05E0252105989A
:10B6C000FFF7B6FC00E000BF049B0133049305E0E4
:10B6D0009DF8373019460598FFF7AAFC049B1B78A4
:10B6E000002B7FF477AE00E000BF059B1B7B002B97
:10B6F00004D00598FFF740FC00E000BF0FB05DF8F4
:10B7000004FB00BF00B587B0059004910392059B30
:10B71000002B0FD1184B1B881B0443F00103184664
:10B72000164A17490E2300930B461649FBF7E5FB13
:10B730000E231CE0049B002B0FD10F4B1B881B0416
:10B7400043F001031846104A0D490E2300930B469F
:10B750000C49FBF7D2FB0E2309E0059B049A1A6003
:10B76000059B1B681B680399059898470346184674
:10B7700007B05DF804FB00BF5022002008AB0300B7
:10B78000ACAC030010AB03003CAB030010B586B0BB
:10B790000590049103920293059B002B0FD15C4B03
:10B7A0001B881B0443F0010318465A4A5A490E23CA
:10B7B00000930B465949FBF7A0FB0E23A4E0039B23
:10B7C000002B0FD1524B1B881B0443F0010318467A
:10B7D000534A51490E2300930B465049FBF78DFB0A
:10B7E0000E2391E0059B1B68002B0FD1484B1B8853
:10B7F0001B0443F0010318464A4A474908230093B3
:10B800000B464649FBF779FB08237DE0029B002BA2
:10B810000FD13F4B1B881B0443F001031846424ADB
:10B820003D49092300930B463C49FBF766FB09237E
:10B830006AE0059B5B685A68029BB3FBF2F102FB6E
:10B8400001F29B1A002B0FD0314B1B881B0443F0D5
:10B8500001031846354A3049092300930B462F4906
:10B86000FBF74BFB09234FE0049800F057F9034620
:10B87000002B0FD1264B1B881B0443F001031846F5
:10B880002B4A2549102300930B462449FBF735FB2F
:10B89000102339E0039B184600F040F90346002BC3
:10B8A0000FD11B4B1B881B0443F001031846214A90
:10B8B0001949102300930B461849FBF71EFB102370
:10B8C00022E0029A0499059800F00EF90346002B35
:10B8D0000FD10F4B1B881B0443F001031846164A77
:10B8E0000D49102300930B460C49FBF706FB102370
:10B8F0000AE0059B1B68DC68089B0093029B039A87
:10B9000004990598A0470346184606B010BD00BF2D
:10B910005022002008AB0300C0AC030010AB0300B2
:10B920009CAB030044AB030058AB0300A4AB030083
:10B93000D0AB0300E8AB03000CAC030010B586B03D
:10B940000590049103920293059B002B0FD13C4B71
:10B950001B881B0443F0010318463A4A3A490E2358
:10B9600000930B463949FBF7C8FA0E2364E0059BA8
:10B970001B68002B0FD1324B1B881B0443F00103C3
:10B980001846334A3049082300930B462F49FBF7EA
:10B99000B4FA082350E0039B002B0FD1284B1B88DF
:10B9A0001B0443F0010318462A4A27490923009340
:10B9B0000B462649FBF7A1FA09233DE004990598B7
:10B9C00000F0B9F80346002B0FD11D4B1B881B0458
:10B9D00043F001031846204A1B49102300930B46ED
:10B9E0001A49FBF78AFA102326E0059B5B681B685F
:10B9F000039A02FB03F31A460499059800F074F8C1
:10BA00000346002B0FD10E4B1B881B0443F0010390
:10BA10001846124A0C49102300930B460B49FBF7BA
:10BA20006CFA102308E0059B1B681C69029B039AB3
:10BA300004990598A0470346184606B010BD00BFFC
:10BA40005022002008AB0300D4AC030010AB03006D
:10BA500044AB030058AB030034AC03005CAC030000
:10BA600000B585B00190019B002B03D0019B1B68A2
:10BA7000002B28D10023039319E0039A13469B005F
:10BA800013449B001A46154B13440193019B1B68FA
:10BA9000002B09D0019B1B68DB690198984703467E
:10BAA000002B01D0012314E0039B013303930C4AC4
:10BAB0000A4BD31A0B4AA2FB03231B09039A9A428F
:10BAC000DBD3002305E0019B1B68DB6901989847E5
